{"contracts/Lingo.sol":{"LINGO":{"abi":[{"inputs":[{"internalType":"string","name":"name_","type":"string"},{"internalType":"string","name":"symbol_","type":"string"},{"internalType":"uint256","name":"totalSupply_","type":"uint256"},{"internalType":"address","name":"owner_","type":"address"},{"internalType":"address","name":"treasuryAddress_","type":"address"},{"internalType":"uint256","name":"txnFee_","type":"uint256"}],"stateMutability":"nonpayable","type":"constructor"},{"anonymous":false,"inputs":[{"indexed":true,"internalType":"address","name":"owner","type":"address"},{"indexed":true,"internalType":"address","name":"spender","type":"address"},{"indexed":false,"internalType":"uint256","name":"value","type":"uint256"}],"name":"Approval","type":"event"},{"anonymous":false,"inputs":[{"indexed":true,"internalType":"address","name":"previousOwner","type":"address"},{"indexed":true,"internalType":"address","name":"newOwner","type":"address"}],"name":"OwnershipTransferred","type":"event"},{"anonymous":false,"inputs":[{"indexed":true,"internalType":"address","name":"from","type":"address"},{"indexed":true,"internalType":"address","name":"to","type":"address"},{"indexed":false,"internalType":"uint256","name":"value","type":"uint256"}],"name":"Transfer","type":"event"},{"anonymous":false,"inputs":[{"indexed":false,"internalType":"uint256","name":"fee","type":"uint256"}],"name":"TransferFeeUpdated","type":"event"},{"anonymous":false,"inputs":[{"indexed":false,"internalType":"address","name":"account","type":"address"}],"name":"TreasuryWalletUpdated","type":"event"},{"anonymous":false,"inputs":[{"indexed":false,"internalType":"enum LINGO.WhiteListTypes","name":"whiteListType","type":"uint8"},{"indexed":false,"internalType":"bool","name":"added","type":"bool"},{"indexed":false,"internalType":"address[]","name":"members","type":"address[]"}],"name":"WhiteListUpdated","type":"event"},{"inputs":[{"internalType":"enum LINGO.WhiteListTypes","name":"whiteListType","type":"uint8"},{"internalType":"address[]","name":"users","type":"address[]"}],"name":"addToWhiteList","outputs":[],"stateMutability":"nonpayable","type":"function"},{"inputs":[{"internalType":"address","name":"owner","type":"address"},{"internalType":"address","name":"spender","type":"address"}],"name":"allowance","outputs":[{"internalType":"uint256","name":"","type":"uint256"}],"stateMutability":"view","type":"function"},{"inputs":[{"internalType":"address","name":"spender","type":"address"},{"internalType":"uint256","name":"amount","type":"uint256"}],"name":"approve","outputs":[{"internalType":"bool","name":"","type":"bool"}],"stateMutability":"nonpayable","type":"function"},{"inputs":[{"internalType":"address","name":"account","type":"address"}],"name":"balanceOf","outputs":[{"internalType":"uint256","name":"","type":"uint256"}],"stateMutability":"view","type":"function"},{"inputs":[{"internalType":"uint256","name":"amount","type":"uint256"}],"name":"burn","outputs":[],"stateMutability":"nonpayable","type":"function"},{"inputs":[{"internalType":"address","name":"account","type":"address"},{"internalType":"uint256","name":"amount","type":"uint256"}],"name":"burnFrom","outputs":[],"stateMutability":"nonpayable","type":"function"},{"inputs":[],"name":"decimals","outputs":[{"internalType":"uint8","name":"","type":"uint8"}],"stateMutability":"view","type":"function"},{"inputs":[{"internalType":"address","name":"spender","type":"address"},{"internalType":"uint256","name":"subtractedValue","type":"uint256"}],"name":"decreaseAllowance","outputs":[{"internalType":"bool","name":"","type":"bool"}],"stateMutability":"nonpayable","type":"function"},{"inputs":[],"name":"getExternalWhitelistedAddresses","outputs":[{"internalType":"address[]","name":"","type":"address[]"}],"stateMutability":"view","type":"function"},{"inputs":[],"name":"getInternalWhitelistedAddresses","outputs":[{"internalType":"address[]","name":"","type":"address[]"}],"stateMutability":"view","type":"function"},{"inputs":[],"name":"getTransferFee","outputs":[{"internalType":"uint256","name":"","type":"uint256"}],"stateMutability":"view","type":"function"},{"inputs":[],"name":"getTreasuryWalletAddress","outputs":[{"internalType":"address","name":"","type":"address"}],"stateMutability":"view","type":"function"},{"inputs":[{"internalType":"address","name":"spender","type":"address"},{"internalType":"uint256","name":"addedValue","type":"uint256"}],"name":"increaseAllowance","outputs":[{"internalType":"bool","name":"","type":"bool"}],"stateMutability":"nonpayable","type":"function"},{"inputs":[{"internalType":"address","name":"account","type":"address"}],"name":"isExternalWhiteListed","outputs":[{"internalType":"bool","name":"","type":"bool"}],"stateMutability":"view","type":"function"},{"inputs":[{"internalType":"address","name":"account","type":"address"}],"name":"isInternalWhiteListed","outputs":[{"internalType":"bool","name":"","type":"bool"}],"stateMutability":"view","type":"function"},{"inputs":[{"internalType":"address","name":"to","type":"address"},{"internalType":"uint256","name":"amount","type":"uint256"}],"name":"mint","outputs":[],"stateMutability":"nonpayable","type":"function"},{"inputs":[],"name":"name","outputs":[{"internalType":"string","name":"","type":"string"}],"stateMutability":"view","type":"function"},{"inputs":[],"name":"owner","outputs":[{"internalType":"address","name":"","type":"address"}],"stateMutability":"view","type":"function"},{"inputs":[{"internalType":"enum LINGO.WhiteListTypes","name":"whiteListType","type":"uint8"},{"internalType":"address[]","name":"users","type":"address[]"}],"name":"removeFromWhiteList","outputs":[],"stateMutability":"nonpayable","type":"function"},{"inputs":[],"name":"renounceOwnership","outputs":[],"stateMutability":"nonpayable","type":"function"},{"inputs":[{"internalType":"uint256","name":"fee","type":"uint256"}],"name":"setTransferFee","outputs":[],"stateMutability":"nonpayable","type":"function"},{"inputs":[{"internalType":"address","name":"account","type":"address"}],"name":"setTreasuryWalletAddress","outputs":[],"stateMutability":"nonpayable","type":"function"},{"inputs":[],"name":"symbol","outputs":[{"internalType":"string","name":"","type":"string"}],"stateMutability":"view","type":"function"},{"inputs":[],"name":"totalSupply","outputs":[{"internalType":"uint256","name":"","type":"uint256"}],"stateMutability":"view","type":"function"},{"inputs":[{"internalType":"address","name":"to","type":"address"},{"internalType":"uint256","name":"amount","type":"uint256"}],"name":"transfer","outputs":[{"internalType":"bool","name":"","type":"bool"}],"stateMutability":"nonpayable","type":"function"},{"inputs":[{"internalType":"address","name":"from","type":"address"},{"internalType":"address","name":"to","type":"address"},{"internalType":"uint256","name":"amount","type":"uint256"}],"name":"transferFrom","outputs":[{"internalType":"bool","name":"","type":"bool"}],"stateMutability":"nonpayable","type":"function"},{"inputs":[{"internalType":"address","name":"newOwner","type":"address"}],"name":"transferOwnership","outputs":[],"stateMutability":"nonpayable","type":"function"}],"evm":{"bytecode":{"linkReferences":{},"object":"60806040523480156200001157600080fd5b506040516200270438038062002704833981016040819052620000349162000812565b8585600362000044838262000941565b50600462000053828262000941565b505050620000706200006a6200014660201b60201c565b6200014a565b6001600160a01b038216620000cc5760405162461bcd60e51b815260206004820152601360248201527f4c494e474f3a205a65726f20416464726573730000000000000000000000000060448201526064015b60405180910390fd5b600780546001600160a01b0319166001600160a01b0384161790556000620000f2601290565b620000ff90600a62000b22565b6200010b908662000b3a565b90506200011984826200019c565b62000124826200026e565b6200012f846200014a565b620001396200031d565b5050505050505062000c33565b3390565b600580546001600160a01b038381166001600160a01b0319831681179093556040519116919082907f8be0079c531659141344cd1fd0a4f28419497f9722a3daafe3b4186f6b6457e090600090a35050565b6001600160a01b038216620001f45760405162461bcd60e51b815260206004820152601f60248201527f45524332303a206d696e7420746f20746865207a65726f2061646472657373006044820152606401620000c3565b6200020260008383620003f5565b806002600082825462000216919062000b54565b90915550506001600160a01b038216600081815260208181526040808320805486019055518481527fddf252ad1be2c89b69c2b068fc378daa952ba7f163c4a11628f55a4df523b3ef910160405180910390a35b5050565b6200027862000412565b6101f4811115620002e25760405162461bcd60e51b815260206004820152602d60248201527f4c494e474f3a205472616e73666572204665652073686f756c6420626520626560448201526c747765656e203025202d20352560981b6064820152608401620000c3565b60068190556040518181527ff9f635b7cf851af6071aaf78ef8a5f752dc52f19d556fea4512b0c2ad4baea729060200160405180910390a150565b600060405180606001604052806200033a6200047060201b60201c565b6001600160a01b0390811682523060208301526007541660409182015280516003808252608082019092529192506000919081602001602082028036833701905050905060005b6003811015620003e757828160038110620003a057620003a062000b6a565b6020020151828281518110620003ba57620003ba62000b6a565b6001600160a01b039092166020928302919091019091015280620003de8162000b80565b91505062000381565b506200026a6001826200047f565b6200040d8383836200040d60201b62000c121760201c565b505050565b6005546001600160a01b031633146200046e5760405162461bcd60e51b815260206004820181905260248201527f4f776e61626c653a2063616c6c6572206973206e6f7420746865206f776e65726044820152606401620000c3565b565b6005546001600160a01b031690565b6200048962000412565b6000826001811115620004a057620004a062000b9c565b03620005fe5760005b8151811015620005bb5760086000838381518110620004cc57620004cc62000b6a565b6020908102919091018101516001600160a01b031682528101919091526040016000205460ff16620005a657600a8282815181106200050f576200050f62000b6a565b60209081029190910181015182546001808201855560009485529284200180546001600160a01b0319166001600160a01b039092169190911790558351909160089185908590811062000566576200056662000b6a565b60200260200101516001600160a01b03166001600160a01b0316815260200190815260200160002060006101000a81548160ff0219169083151502179055505b80620005b28162000b80565b915050620004a9565b507f0f5bb579239f1782a702c2e711e672ae09e920b5af57710f1f234b2f1937f0ec82600183604051620005f29392919062000bb2565b60405180910390a15050565b600182600181111562000615576200061562000b9c565b036200026a5760005b8151811015620005bb576009600083838151811062000641576200064162000b6a565b6020908102919091018101516001600160a01b031682528101919091526040016000205460ff166200071b57600b82828151811062000684576200068462000b6a565b60209081029190910181015182546001808201855560009485529284200180546001600160a01b0319166001600160a01b0390921691909117905583519091600991859085908110620006db57620006db62000b6a565b60200260200101516001600160a01b03166001600160a01b0316815260200190815260200160002060006101000a81548160ff0219169083151502179055505b80620007278162000b80565b9150506200061e565b634e487b7160e01b600052604160045260246000fd5b600082601f8301126200075857600080fd5b81516001600160401b038082111562000775576200077562000730565b604051601f8301601f19908116603f01168101908282118183101715620007a057620007a062000730565b81604052838152602092508683858801011115620007bd57600080fd5b600091505b83821015620007e15785820183015181830184015290820190620007c2565b600093810190920192909252949350505050565b80516001600160a01b03811681146200080d57600080fd5b919050565b60008060008060008060c087890312156200082c57600080fd5b86516001600160401b03808211156200084457600080fd5b620008528a838b0162000746565b975060208901519150808211156200086957600080fd5b506200087889828a0162000746565b955050604087015193506200089060608801620007f5565b9250620008a060808801620007f5565b915060a087015190509295509295509295565b600181811c90821680620008c857607f821691505b602082108103620008e957634e487b7160e01b600052602260045260246000fd5b50919050565b601f8211156200040d57600081815260208120601f850160051c81016020861015620009185750805b601f850160051c820191505b81811015620009395782815560010162000924565b505050505050565b81516001600160401b038111156200095d576200095d62000730565b62000975816200096e8454620008b3565b84620008ef565b602080601f831160018114620009ad5760008415620009945750858301515b600019600386901b1c1916600185901b17855562000939565b600085815260208120601f198616915b82811015620009de57888601518255948401946001909101908401620009bd565b5085821015620009fd5787850151600019600388901b60f8161c191681555b5050505050600190811b01905550565b634e487b7160e01b600052601160045260246000fd5b600181815b8085111562000a6457816000190482111562000a485762000a4862000a0d565b8085161562000a5657918102915b93841c939080029062000a28565b509250929050565b60008262000a7d5750600162000b1c565b8162000a8c5750600062000b1c565b816001811462000aa5576002811462000ab05762000ad0565b600191505062000b1c565b60ff84111562000ac45762000ac462000a0d565b50506001821b62000b1c565b5060208310610133831016604e8410600b841016171562000af5575081810a62000b1c565b62000b01838362000a23565b806000190482111562000b185762000b1862000a0d565b0290505b92915050565b600062000b3360ff84168362000a6c565b9392505050565b808202811582820484141762000b1c5762000b1c62000a0d565b8082018082111562000b1c5762000b1c62000a0d565b634e487b7160e01b600052603260045260246000fd5b60006001820162000b955762000b9562000a0d565b5060010190565b634e487b7160e01b600052602160045260246000fd5b6000606082016002861062000bd757634e487b7160e01b600052602160045260246000fd5b85835260208515158185015260606040850152818551808452608086019150828701935060005b8181101562000c255784516001600160a01b03168352938301939183019160010162000bfe565b509098975050505050505050565b611ac18062000c436000396000f3fe608060405234801561001057600080fd5b50600436106101a95760003560e01c806379cc6790116100f9578063a25d11c311610097578063ae6ebc9f11610071578063ae6ebc9f146103b4578063d0bf0f9a146103bc578063dd62ed3e146103cf578063f2fde38b146103e257600080fd5b8063a25d11c314610362578063a457c2d71461038e578063a9059cbb146103a157600080fd5b80638f02bb5b116100d35780638f02bb5b1461032a57806395d89b411461033d5780639a17d8c1146103455780639ee1cfd41461034d57600080fd5b806379cc6790146102f3578063829691aa146103065780638da5cb5b1461031957600080fd5b8063313ce5671161016657806342966c681161014057806342966c681461029c5780635efd930b146102af57806370a08231146102c2578063715018a6146102eb57600080fd5b8063313ce56714610265578063395093511461027457806340c10f191461028757600080fd5b806306fdde03146101ae5780630899f5a7146101cc578063095ea7b3146101f157806318160ddd1461021457806323b872dd1461022657806328a6868d14610239575b600080fd5b6101b66103f5565b6040516101c391906116b0565b60405180910390f35b6007546001600160a01b03165b6040516001600160a01b0390911681526020016101c3565b6102046101ff36600461171a565b610487565b60405190151581526020016101c3565b6002545b6040519081526020016101c3565b610204610234366004611744565b6104a1565b610204610247366004611780565b6001600160a01b031660009081526008602052604090205460ff1690565b604051601281526020016101c3565b61020461028236600461171a565b610526565b61029a61029536600461171a565b610548565b005b61029a6102aa3660046117a2565b61055e565b61029a6102bd366004611780565b61056b565b6102186102d0366004611780565b6001600160a01b031660009081526020819052604090205490565b61029a610619565b61029a61030136600461171a565b61062d565b61029a6103143660046117d1565b610642565b6005546001600160a01b03166101d9565b61029a6103383660046117a2565b6108cb565b6101b6610970565b600654610218565b61035561097f565b6040516101c391906118f3565b610204610370366004611780565b6001600160a01b031660009081526009602052604090205460ff1690565b61020461039c36600461171a565b6109e0565b6102046103af36600461171a565b610a5b565b610355610ac5565b61029a6103ca3660046117d1565b610b25565b6102186103dd366004611906565b610b71565b61029a6103f0366004611780565b610b9c565b60606003805461040490611939565b80601f016020809104026020016040519081016040528092919081815260200182805461043090611939565b801561047d5780601f106104525761010080835404028352916020019161047d565b820191906000526020600020905b81548152906001019060200180831161046057829003601f168201915b5050505050905090565b600033610495818585610c17565b60019150505b92915050565b6000336104af858285610d3b565b6104b98585610db5565b15610510576000612710600654856104d19190611989565b6104db91906119a0565b6007549091506104f69087906001600160a01b031683610e32565b61050a868661050584886119c2565b610e32565b5061051b565b61051b858585610e32565b506001949350505050565b6000336104958185856105398383610b71565b61054391906119d5565b610c17565b610550610fd6565b61055a8282611030565b5050565b61056833826110ef565b50565b610573610fd6565b6001600160a01b0381166105c45760405162461bcd60e51b81526020600482015260136024820152724c494e474f3a205a65726f204164647265737360681b60448201526064015b60405180910390fd5b600780546001600160a01b0319166001600160a01b0383169081179091556040519081527f97c79b3848e51f57983ac89e4403452655c8d83ceba8199011de63a74f60d1a7906020015b60405180910390a150565b610621610fd6565b61062b6000611221565b565b610638823383610d3b565b61055a82826110ef565b61064a610fd6565b600082600181111561065e5761065e6119e8565b036107ab5760005b815181101561076a5760086000838381518110610685576106856119fe565b6020908102919091018101516001600160a01b031682528101919091526040016000205460ff1661075857600a8282815181106106c4576106c46119fe565b60209081029190910181015182546001808201855560009485529284200180546001600160a01b0319166001600160a01b0390921691909117905583519091600891859085908110610718576107186119fe565b60200260200101516001600160a01b03166001600160a01b0316815260200190815260200160002060006101000a81548160ff0219169083151502179055505b8061076281611a14565b915050610666565b507f0f5bb579239f1782a702c2e711e672ae09e920b5af57710f1f234b2f1937f0ec8260018360405161079f93929190611a2d565b60405180910390a15050565b60018260018111156107bf576107bf6119e8565b0361055a5760005b815181101561076a57600960008383815181106107e6576107e66119fe565b6020908102919091018101516001600160a01b031682528101919091526040016000205460ff166108b957600b828281518110610825576108256119fe565b60209081029190910181015182546001808201855560009485529284200180546001600160a01b0319166001600160a01b0390921691909117905583519091600991859085908110610879576108796119fe565b60200260200101516001600160a01b03166001600160a01b0316815260200190815260200160002060006101000a81548160ff0219169083151502179055505b806108c381611a14565b9150506107c7565b6108d3610fd6565b6101f481111561093b5760405162461bcd60e51b815260206004820152602d60248201527f4c494e474f3a205472616e73666572204665652073686f756c6420626520626560448201526c747765656e203025202d20352560981b60648201526084016105bb565b60068190556040518181527ff9f635b7cf851af6071aaf78ef8a5f752dc52f19d556fea4512b0c2ad4baea729060200161060e565b60606004805461040490611939565b6060600b80548060200260200160405190810160405280929190818152602001828054801561047d57602002820191906000526020600020905b81546001600160a01b031681526001909101906020018083116109b9575050505050905090565b600033816109ee8286610b71565b905083811015610a4e5760405162461bcd60e51b815260206004820152602560248201527f45524332303a2064656372656173656420616c6c6f77616e63652062656c6f77604482015264207a65726f60d81b60648201526084016105bb565b61051b8286868403610c17565b600033610a688185610db5565b15610aba57600061271060065485610a809190611989565b610a8a91906119a0565b600754909150610aa59083906001600160a01b031683610e32565b610ab4828661050584886119c2565b50610495565b610495818585610e32565b6060600a80548060200260200160405190810160405280929190818152602001828054801561047d576020028201919060005260206000209081546001600160a01b031681526001909101906020018083116109b9575050505050905090565b610b2d610fd6565b6000826001811115610b4157610b416119e8565b03610b4f5761055a81611273565b6001826001811115610b6357610b636119e8565b0361055a5761055a81611491565b6001600160a01b03918216600090815260016020908152604080832093909416825291909152205490565b610ba4610fd6565b6001600160a01b038116610c095760405162461bcd60e51b815260206004820152602660248201527f4f776e61626c653a206e6577206f776e657220697320746865207a65726f206160448201526564647265737360d01b60648201526084016105bb565b61056881611221565b505050565b6001600160a01b038316610c795760405162461bcd60e51b8152602060048201526024808201527f45524332303a20617070726f76652066726f6d20746865207a65726f206164646044820152637265737360e01b60648201526084016105bb565b6001600160a01b038216610cda5760405162461bcd60e51b815260206004820152602260248201527f45524332303a20617070726f766520746f20746865207a65726f206164647265604482015261737360f01b60648201526084016105bb565b6001600160a01b0383811660008181526001602090815260408083209487168084529482529182902085905590518481527f8c5be1e5ebec7d5bd14f71427d1e84f3dd0314c0f7b2291e5b200ac8c7c3b925910160405180910390a3505050565b6000610d478484610b71565b90506000198114610daf5781811015610da25760405162461bcd60e51b815260206004820152601d60248201527f45524332303a20696e73756666696369656e7420616c6c6f77616e636500000060448201526064016105bb565b610daf8484848403610c17565b50505050565b6001600160a01b03821660009081526009602052604081205460ff16158015610df757506001600160a01b03821660009081526009602052604090205460ff16155b8015610e1c57506001600160a01b03821660009081526008602052604090205460ff16155b15610e295750600161049b565b50600092915050565b6001600160a01b038316610e965760405162461bcd60e51b815260206004820152602560248201527f45524332303a207472616e736665722066726f6d20746865207a65726f206164604482015264647265737360d81b60648201526084016105bb565b6001600160a01b038216610ef85760405162461bcd60e51b815260206004820152602360248201527f45524332303a207472616e7366657220746f20746865207a65726f206164647260448201526265737360e81b60648201526084016105bb565b6001600160a01b03831660009081526020819052604090205481811015610f705760405162461bcd60e51b815260206004820152602660248201527f45524332303a207472616e7366657220616d6f756e7420657863656564732062604482015265616c616e636560d01b60648201526084016105bb565b6001600160a01b03848116600081815260208181526040808320878703905593871680835291849020805487019055925185815290927fddf252ad1be2c89b69c2b068fc378daa952ba7f163c4a11628f55a4df523b3ef910160405180910390a3610daf565b6005546001600160a01b0316331461062b5760405162461bcd60e51b815260206004820181905260248201527f4f776e61626c653a2063616c6c6572206973206e6f7420746865206f776e657260448201526064016105bb565b6001600160a01b0382166110865760405162461bcd60e51b815260206004820152601f60248201527f45524332303a206d696e7420746f20746865207a65726f20616464726573730060448201526064016105bb565b806002600082825461109891906119d5565b90915550506001600160a01b038216600081815260208181526040808320805486019055518481527fddf252ad1be2c89b69c2b068fc378daa952ba7f163c4a11628f55a4df523b3ef910160405180910390a35050565b6001600160a01b03821661114f5760405162461bcd60e51b815260206004820152602160248201527f45524332303a206275726e2066726f6d20746865207a65726f206164647265736044820152607360f81b60648201526084016105bb565b6001600160a01b038216600090815260208190526040902054818110156111c35760405162461bcd60e51b815260206004820152602260248201527f45524332303a206275726e20616d6f756e7420657863656564732062616c616e604482015261636560f01b60648201526084016105bb565b6001600160a01b0383166000818152602081815260408083208686039055600280548790039055518581529192917fddf252ad1be2c89b69c2b068fc378daa952ba7f163c4a11628f55a4df523b3ef910160405180910390a3505050565b600580546001600160a01b038381166001600160a01b0319831681179093556040519116919082907f8be0079c531659141344cd1fd0a4f28419497f9722a3daafe3b4186f6b6457e090600090a35050565b61127b610fd6565b6000805b8251811015611456576008600084838151811061129e5761129e6119fe565b6020908102919091018101516001600160a01b031682528101919091526040016000205460ff1615611444576000915060005b600a5481101561144257600a81815481106112ee576112ee6119fe565b60009182526020909120015484516001600160a01b039091169085908490811061131a5761131a6119fe565b60200260200101516001600160a01b03160361143057600060086000868581518110611348576113486119fe565b6020908102919091018101516001600160a01b03168252810191909152604001600020805460ff1916911515919091179055600a805461138a906001906119c2565b8154811061139a5761139a6119fe565b600091825260209091200154600a80546001600160a01b0390921691839081106113c6576113c66119fe565b9060005260206000200160006101000a8154816001600160a01b0302191690836001600160a01b03160217905550600a80548061140557611405611a75565b600082815260209020810160001990810180546001600160a01b031916905501905560019250611442565b8061143a81611a14565b9150506112d1565b505b8061144e81611a14565b91505061127f565b50801561055a577f0f5bb579239f1782a702c2e711e672ae09e920b5af57710f1f234b2f1937f0ec6000808460405161079f93929190611a2d565b611499610fd6565b6000805b825181101561167457600960008483815181106114bc576114bc6119fe565b6020908102919091018101516001600160a01b031682528101919091526040016000205460ff1615611662576000915060005b600b5481101561166057600b818154811061150c5761150c6119fe565b60009182526020909120015484516001600160a01b0390911690859084908110611538576115386119fe565b60200260200101516001600160a01b03160361164e57600060096000868581518110611566576115666119fe565b6020908102919091018101516001600160a01b03168252810191909152604001600020805460ff1916911515919091179055600b80546115a8906001906119c2565b815481106115b8576115b86119fe565b600091825260209091200154600b80546001600160a01b0390921691839081106115e4576115e46119fe565b9060005260206000200160006101000a8154816001600160a01b0302191690836001600160a01b03160217905550600b80548061162357611623611a75565b600082815260209020810160001990810180546001600160a01b031916905501905560019250611660565b8061165881611a14565b9150506114ef565b505b8061166c81611a14565b91505061149d565b50801561055a577f0f5bb579239f1782a702c2e711e672ae09e920b5af57710f1f234b2f1937f0ec600160008460405161079f93929190611a2d565b600060208083528351808285015260005b818110156116dd578581018301518582016040015282016116c1565b506000604082860101526040601f19601f8301168501019250505092915050565b80356001600160a01b038116811461171557600080fd5b919050565b6000806040838503121561172d57600080fd5b611736836116fe565b946020939093013593505050565b60008060006060848603121561175957600080fd5b611762846116fe565b9250611770602085016116fe565b9150604084013590509250925092565b60006020828403121561179257600080fd5b61179b826116fe565b9392505050565b6000602082840312156117b457600080fd5b5035919050565b634e487b7160e01b600052604160045260246000fd5b600080604083850312156117e457600080fd5b8235600281106117f357600080fd5b915060208381013567ffffffffffffffff8082111561181157600080fd5b818601915086601f83011261182557600080fd5b813581811115611837576118376117bb565b8060051b604051601f19603f8301168101818110858211171561185c5761185c6117bb565b60405291825284820192508381018501918983111561187a57600080fd5b938501935b8285101561189f57611890856116fe565b8452938501939285019261187f565b8096505050505050509250929050565b600081518084526020808501945080840160005b838110156118e85781516001600160a01b0316875295820195908201906001016118c3565b509495945050505050565b60208152600061179b60208301846118af565b6000806040838503121561191957600080fd5b611922836116fe565b9150611930602084016116fe565b90509250929050565b600181811c9082168061194d57607f821691505b60208210810361196d57634e487b7160e01b600052602260045260246000fd5b50919050565b634e487b7160e01b600052601160045260246000fd5b808202811582820484141761049b5761049b611973565b6000826119bd57634e487b7160e01b600052601260045260246000fd5b500490565b8181038181111561049b5761049b611973565b8082018082111561049b5761049b611973565b634e487b7160e01b600052602160045260246000fd5b634e487b7160e01b600052603260045260246000fd5b600060018201611a2657611a26611973565b5060010190565b600060028510611a4d57634e487b7160e01b600052602160045260246000fd5b848252831515602083015260606040830152611a6c60608301846118af565b95945050505050565b634e487b7160e01b600052603160045260246000fdfea2646970667358221220facc1ab87c9e4fa6185f8f68f4351449a3cb4a83ee85bd2e7e26de27af56aef264736f6c63430008120033","opcodes":"PUSH1 0x80 PUSH1 0x40 MSTORE CALLVALUE DUP1 ISZERO PUSH3 0x11 JUMPI PUSH1 0x0 DUP1 REVERT JUMPDEST POP PUSH1 0x40 MLOAD PUSH3 0x2704 CODESIZE SUB DUP1 PUSH3 0x2704 DUP4 CODECOPY DUP2 ADD PUSH1 0x40 DUP2 SWAP1 MSTORE PUSH3 0x34 SWAP2 PUSH3 0x812 JUMP JUMPDEST DUP6 DUP6 PUSH1 0x3 PUSH3 0x44 DUP4 DUP3 PUSH3 0x941 JUMP JUMPDEST POP PUSH1 0x4 PUSH3 0x53 DUP3 DUP3 PUSH3 0x941 JUMP JUMPDEST POP POP POP PUSH3 0x70 PUSH3 0x6A PUSH3 0x146 PUSH1 0x20 SHL PUSH1 0x20 SHR JUMP JUMPDEST PUSH3 0x14A JUMP JUMPDEST PUSH1 0x1 PUSH1 0x1 PUSH1 0xA0 SHL SUB DUP3 AND PUSH3 0xCC JUMPI PUSH1 0x40 MLOAD PUSH3 0x461BCD PUSH1 0xE5 SHL DUP2 MSTORE PUSH1 0x20 PUSH1 0x4 DUP3 ADD MSTORE PUSH1 0x13 PUSH1 0x24 DUP3 ADD MSTORE PUSH32 0x4C494E474F3A205A65726F204164647265737300000000000000000000000000 PUSH1 0x44 DUP3 ADD MSTORE PUSH1 0x64 ADD JUMPDEST PUSH1 0x40 MLOAD DUP1 SWAP2 SUB SWAP1 REVERT JUMPDEST PUSH1 0x7 DUP1 SLOAD PUSH1 0x1 PUSH1 0x1 PUSH1 0xA0 SHL SUB NOT AND PUSH1 0x1 PUSH1 0x1 PUSH1 0xA0 SHL SUB DUP5 AND OR SWAP1 SSTORE PUSH1 0x0 PUSH3 0xF2 PUSH1 0x12 SWAP1 JUMP JUMPDEST PUSH3 0xFF SWAP1 PUSH1 0xA PUSH3 0xB22 JUMP JUMPDEST PUSH3 0x10B SWAP1 DUP7 PUSH3 0xB3A JUMP JUMPDEST SWAP1 POP PUSH3 0x119 DUP5 DUP3 PUSH3 0x19C JUMP JUMPDEST PUSH3 0x124 DUP3 PUSH3 0x26E JUMP JUMPDEST PUSH3 0x12F DUP5 PUSH3 0x14A JUMP JUMPDEST PUSH3 0x139 PUSH3 0x31D JUMP JUMPDEST POP POP POP POP POP POP POP PUSH3 0xC33 JUMP JUMPDEST CALLER SWAP1 JUMP JUMPDEST PUSH1 0x5 DUP1 SLOAD PUSH1 0x1 PUSH1 0x1 PUSH1 0xA0 SHL SUB DUP4 DUP2 AND PUSH1 0x1 PUSH1 0x1 PUSH1 0xA0 SHL SUB NOT DUP4 AND DUP2 OR SWAP1 SWAP4 SSTORE PUSH1 0x40 MLOAD SWAP2 AND SWAP2 SWAP1 DUP3 SWAP1 PUSH32 0x8BE0079C531659141344CD1FD0A4F28419497F9722A3DAAFE3B4186F6B6457E0 SWAP1 PUSH1 0x0 SWAP1 LOG3 POP POP JUMP JUMPDEST PUSH1 0x1 PUSH1 0x1 PUSH1 0xA0 SHL SUB DUP3 AND PUSH3 0x1F4 JUMPI PUSH1 0x40 MLOAD PUSH3 0x461BCD PUSH1 0xE5 SHL DUP2 MSTORE PUSH1 0x20 PUSH1 0x4 DUP3 ADD MSTORE PUSH1 0x1F PUSH1 0x24 DUP3 ADD MSTORE PUSH32 0x45524332303A206D696E7420746F20746865207A65726F206164647265737300 PUSH1 0x44 DUP3 ADD MSTORE PUSH1 0x64 ADD PUSH3 0xC3 JUMP JUMPDEST PUSH3 0x202 PUSH1 0x0 DUP4 DUP4 PUSH3 0x3F5 JUMP JUMPDEST DUP1 PUSH1 0x2 PUSH1 0x0 DUP3 DUP3 SLOAD PUSH3 0x216 SWAP2 SWAP1 PUSH3 0xB54 JUMP JUMPDEST SWAP1 SWAP2 SSTORE POP POP PUSH1 0x1 PUSH1 0x1 PUSH1 0xA0 SHL SUB DUP3 AND PUSH1 0x0 DUP2 DUP2 MSTORE PUSH1 0x20 DUP2 DUP2 MSTORE PUSH1 0x40 DUP1 DUP4 KECCAK256 DUP1 SLOAD DUP7 ADD SWAP1 SSTORE MLOAD DUP5 DUP2 MSTORE PUSH32 0xDDF252AD1BE2C89B69C2B068FC378DAA952BA7F163C4A11628F55A4DF523B3EF SWAP2 ADD PUSH1 0x40 MLOAD DUP1 SWAP2 SUB SWAP1 LOG3 JUMPDEST POP POP JUMP JUMPDEST PUSH3 0x278 PUSH3 0x412 JUMP JUMPDEST PUSH2 0x1F4 DUP2 GT ISZERO PUSH3 0x2E2 JUMPI PUSH1 0x40 MLOAD PUSH3 0x461BCD PUSH1 0xE5 SHL DUP2 MSTORE PUSH1 0x20 PUSH1 0x4 DUP3 ADD MSTORE PUSH1 0x2D PUSH1 0x24 DUP3 ADD MSTORE PUSH32 0x4C494E474F3A205472616E73666572204665652073686F756C64206265206265 PUSH1 0x44 DUP3 ADD MSTORE PUSH13 0x747765656E203025202D203525 PUSH1 0x98 SHL PUSH1 0x64 DUP3 ADD MSTORE PUSH1 0x84 ADD PUSH3 0xC3 JUMP JUMPDEST PUSH1 0x6 DUP2 SWAP1 SSTORE PUSH1 0x40 MLOAD DUP2 DUP2 MSTORE PUSH32 0xF9F635B7CF851AF6071AAF78EF8A5F752DC52F19D556FEA4512B0C2AD4BAEA72 SWAP1 PUSH1 0x20 ADD PUSH1 0x40 MLOAD DUP1 SWAP2 SUB SWAP1 LOG1 POP JUMP JUMPDEST PUSH1 0x0 PUSH1 0x40 MLOAD DUP1 PUSH1 0x60 ADD PUSH1 0x40 MSTORE DUP1 PUSH3 0x33A PUSH3 0x470 PUSH1 0x20 SHL PUSH1 0x20 SHR JUMP JUMPDEST PUSH1 0x1 PUSH1 0x1 PUSH1 0xA0 SHL SUB SWAP1 DUP2 AND DUP3 MSTORE ADDRESS PUSH1 0x20 DUP4 ADD MSTORE PUSH1 0x7 SLOAD AND PUSH1 0x40 SWAP2 DUP3 ADD MSTORE DUP1 MLOAD PUSH1 0x3 DUP1 DUP3 MSTORE PUSH1 0x80 DUP3 ADD SWAP1 SWAP3 MSTORE SWAP2 SWAP3 POP PUSH1 0x0 SWAP2 SWAP1 DUP2 PUSH1 0x20 ADD PUSH1 0x20 DUP3 MUL DUP1 CALLDATASIZE DUP4 CALLDATACOPY ADD SWAP1 POP POP SWAP1 POP PUSH1 0x0 JUMPDEST PUSH1 0x3 DUP2 LT ISZERO PUSH3 0x3E7 JUMPI DUP3 DUP2 PUSH1 0x3 DUP2 LT PUSH3 0x3A0 JUMPI PUSH3 0x3A0 PUSH3 0xB6A JUMP JUMPDEST PUSH1 0x20 MUL ADD MLOAD DUP3 DUP3 DUP2 MLOAD DUP2 LT PUSH3 0x3BA JUMPI PUSH3 0x3BA PUSH3 0xB6A JUMP JUMPDEST PUSH1 0x1 PUSH1 0x1 PUSH1 0xA0 SHL SUB SWAP1 SWAP3 AND PUSH1 0x20 SWAP3 DUP4 MUL SWAP2 SWAP1 SWAP2 ADD SWAP1 SWAP2 ADD MSTORE DUP1 PUSH3 0x3DE DUP2 PUSH3 0xB80 JUMP JUMPDEST SWAP2 POP POP PUSH3 0x381 JUMP JUMPDEST POP PUSH3 0x26A PUSH1 0x1 DUP3 PUSH3 0x47F JUMP JUMPDEST PUSH3 0x40D DUP4 DUP4 DUP4 PUSH3 0x40D PUSH1 0x20 SHL PUSH3 0xC12 OR PUSH1 0x20 SHR JUMP JUMPDEST POP POP POP JUMP JUMPDEST PUSH1 0x5 SLOAD PUSH1 0x1 PUSH1 0x1 PUSH1 0xA0 SHL SUB AND CALLER EQ PUSH3 0x46E JUMPI PUSH1 0x40 MLOAD PUSH3 0x461BCD PUSH1 0xE5 SHL DUP2 MSTORE PUSH1 0x20 PUSH1 0x4 DUP3 ADD DUP2 SWAP1 MSTORE PUSH1 0x24 DUP3 ADD MSTORE PUSH32 0x4F776E61626C653A2063616C6C6572206973206E6F7420746865206F776E6572 PUSH1 0x44 DUP3 ADD MSTORE PUSH1 0x64 ADD PUSH3 0xC3 JUMP JUMPDEST JUMP JUMPDEST PUSH1 0x5 SLOAD PUSH1 0x1 PUSH1 0x1 PUSH1 0xA0 SHL SUB AND SWAP1 JUMP JUMPDEST PUSH3 0x489 PUSH3 0x412 JUMP JUMPDEST PUSH1 0x0 DUP3 PUSH1 0x1 DUP2 GT ISZERO PUSH3 0x4A0 JUMPI PUSH3 0x4A0 PUSH3 0xB9C JUMP JUMPDEST SUB PUSH3 0x5FE JUMPI PUSH1 0x0 JUMPDEST DUP2 MLOAD DUP2 LT ISZERO PUSH3 0x5BB JUMPI PUSH1 0x8 PUSH1 0x0 DUP4 DUP4 DUP2 MLOAD DUP2 LT PUSH3 0x4CC JUMPI PUSH3 0x4CC PUSH3 0xB6A JUMP JUMPDEST PUSH1 0x20 SWAP1 DUP2 MUL SWAP2 SWAP1 SWAP2 ADD DUP2 ADD MLOAD PUSH1 0x1 PUSH1 0x1 PUSH1 0xA0 SHL SUB AND DUP3 MSTORE DUP2 ADD SWAP2 SWAP1 SWAP2 MSTORE PUSH1 0x40 ADD PUSH1 0x0 KECCAK256 SLOAD PUSH1 0xFF AND PUSH3 0x5A6 JUMPI PUSH1 0xA DUP3 DUP3 DUP2 MLOAD DUP2 LT PUSH3 0x50F JUMPI PUSH3 0x50F PUSH3 0xB6A JUMP JUMPDEST PUSH1 0x20 SWAP1 DUP2 MUL SWAP2 SWAP1 SWAP2 ADD DUP2 ADD MLOAD DUP3 SLOAD PUSH1 0x1 DUP1 DUP3 ADD DUP6 SSTORE PUSH1 0x0 SWAP5 DUP6 MSTORE SWAP3 DUP5 KECCAK256 ADD DUP1 SLOAD PUSH1 0x1 PUSH1 0x1 PUSH1 0xA0 SHL SUB NOT AND PUSH1 0x1 PUSH1 0x1 PUSH1 0xA0 SHL SUB SWAP1 SWAP3 AND SWAP2 SWAP1 SWAP2 OR SWAP1 SSTORE DUP4 MLOAD SWAP1 SWAP2 PUSH1 0x8 SWAP2 DUP6 SWAP1 DUP6 SWAP1 DUP2 LT PUSH3 0x566 JUMPI PUSH3 0x566 PUSH3 0xB6A JUMP JUMPDEST PUSH1 0x20 MUL PUSH1 0x20 ADD ADD MLOAD PUSH1 0x1 PUSH1 0x1 PUSH1 0xA0 SHL SUB AND PUSH1 0x1 PUSH1 0x1 PUSH1 0xA0 SHL SUB AND DUP2 MSTORE PUSH1 0x20 ADD SWAP1 DUP2 MSTORE PUSH1 0x20 ADD PUSH1 0x0 KECCAK256 PUSH1 0x0 PUSH2 0x100 EXP DUP2 SLOAD DUP2 PUSH1 0xFF MUL NOT AND SWAP1 DUP4 ISZERO ISZERO MUL OR SWAP1 SSTORE POP JUMPDEST DUP1 PUSH3 0x5B2 DUP2 PUSH3 0xB80 JUMP JUMPDEST SWAP2 POP POP PUSH3 0x4A9 JUMP JUMPDEST POP PUSH32 0xF5BB579239F1782A702C2E711E672AE09E920B5AF57710F1F234B2F1937F0EC DUP3 PUSH1 0x1 DUP4 PUSH1 0x40 MLOAD PUSH3 0x5F2 SWAP4 SWAP3 SWAP2 SWAP1 PUSH3 0xBB2 JUMP JUMPDEST PUSH1 0x40 MLOAD DUP1 SWAP2 SUB SWAP1 LOG1 POP POP JUMP JUMPDEST PUSH1 0x1 DUP3 PUSH1 0x1 DUP2 GT ISZERO PUSH3 0x615 JUMPI PUSH3 0x615 PUSH3 0xB9C JUMP JUMPDEST SUB PUSH3 0x26A JUMPI PUSH1 0x0 JUMPDEST DUP2 MLOAD DUP2 LT ISZERO PUSH3 0x5BB JUMPI PUSH1 0x9 PUSH1 0x0 DUP4 DUP4 DUP2 MLOAD DUP2 LT PUSH3 0x641 JUMPI PUSH3 0x641 PUSH3 0xB6A JUMP JUMPDEST PUSH1 0x20 SWAP1 DUP2 MUL SWAP2 SWAP1 SWAP2 ADD DUP2 ADD MLOAD PUSH1 0x1 PUSH1 0x1 PUSH1 0xA0 SHL SUB AND DUP3 MSTORE DUP2 ADD SWAP2 SWAP1 SWAP2 MSTORE PUSH1 0x40 ADD PUSH1 0x0 KECCAK256 SLOAD PUSH1 0xFF AND PUSH3 0x71B JUMPI PUSH1 0xB DUP3 DUP3 DUP2 MLOAD DUP2 LT PUSH3 0x684 JUMPI PUSH3 0x684 PUSH3 0xB6A JUMP JUMPDEST PUSH1 0x20 SWAP1 DUP2 MUL SWAP2 SWAP1 SWAP2 ADD DUP2 ADD MLOAD DUP3 SLOAD PUSH1 0x1 DUP1 DUP3 ADD DUP6 SSTORE PUSH1 0x0 SWAP5 DUP6 MSTORE SWAP3 DUP5 KECCAK256 ADD DUP1 SLOAD PUSH1 0x1 PUSH1 0x1 PUSH1 0xA0 SHL SUB NOT AND PUSH1 0x1 PUSH1 0x1 PUSH1 0xA0 SHL SUB SWAP1 SWAP3 AND SWAP2 SWAP1 SWAP2 OR SWAP1 SSTORE DUP4 MLOAD SWAP1 SWAP2 PUSH1 0x9 SWAP2 DUP6 SWAP1 DUP6 SWAP1 DUP2 LT PUSH3 0x6DB JUMPI PUSH3 0x6DB PUSH3 0xB6A JUMP JUMPDEST PUSH1 0x20 MUL PUSH1 0x20 ADD ADD MLOAD PUSH1 0x1 PUSH1 0x1 PUSH1 0xA0 SHL SUB AND PUSH1 0x1 PUSH1 0x1 PUSH1 0xA0 SHL SUB AND DUP2 MSTORE PUSH1 0x20 ADD SWAP1 DUP2 MSTORE PUSH1 0x20 ADD PUSH1 0x0 KECCAK256 PUSH1 0x0 PUSH2 0x100 EXP DUP2 SLOAD DUP2 PUSH1 0xFF MUL NOT AND SWAP1 DUP4 ISZERO ISZERO MUL OR SWAP1 SSTORE POP JUMPDEST DUP1 PUSH3 0x727 DUP2 PUSH3 0xB80 JUMP JUMPDEST SWAP2 POP POP PUSH3 0x61E JUMP JUMPDEST PUSH4 0x4E487B71 PUSH1 0xE0 SHL PUSH1 0x0 MSTORE PUSH1 0x41 PUSH1 0x4 MSTORE PUSH1 0x24 PUSH1 0x0 REVERT JUMPDEST PUSH1 0x0 DUP3 PUSH1 0x1F DUP4 ADD SLT PUSH3 0x758 JUMPI PUSH1 0x0 DUP1 REVERT JUMPDEST DUP2 MLOAD PUSH1 0x1 PUSH1 0x1 PUSH1 0x40 SHL SUB DUP1 DUP3 GT ISZERO PUSH3 0x775 JUMPI PUSH3 0x775 PUSH3 0x730 JUMP JUMPDEST PUSH1 0x40 MLOAD PUSH1 0x1F DUP4 ADD PUSH1 0x1F NOT SWAP1 DUP2 AND PUSH1 0x3F ADD AND DUP2 ADD SWAP1 DUP3 DUP3 GT DUP2 DUP4 LT OR ISZERO PUSH3 0x7A0 JUMPI PUSH3 0x7A0 PUSH3 0x730 JUMP JUMPDEST DUP2 PUSH1 0x40 MSTORE DUP4 DUP2 MSTORE PUSH1 0x20 SWAP3 POP DUP7 DUP4 DUP6 DUP9 ADD ADD GT ISZERO PUSH3 0x7BD JUMPI PUSH1 0x0 DUP1 REVERT JUMPDEST PUSH1 0x0 SWAP2 POP JUMPDEST DUP4 DUP3 LT ISZERO PUSH3 0x7E1 JUMPI DUP6 DUP3 ADD DUP4 ADD MLOAD DUP2 DUP4 ADD DUP5 ADD MSTORE SWAP1 DUP3 ADD SWAP1 PUSH3 0x7C2 JUMP JUMPDEST PUSH1 0x0 SWAP4 DUP2 ADD SWAP1 SWAP3 ADD SWAP3 SWAP1 SWAP3 MSTORE SWAP5 SWAP4 POP POP POP POP JUMP JUMPDEST DUP1 MLOAD PUSH1 0x1 PUSH1 0x1 PUSH1 0xA0 SHL SUB DUP2 AND DUP2 EQ PUSH3 0x80D JUMPI PUSH1 0x0 DUP1 REVERT JUMPDEST SWAP2 SWAP1 POP JUMP JUMPDEST PUSH1 0x0 DUP1 PUSH1 0x0 DUP1 PUSH1 0x0 DUP1 PUSH1 0xC0 DUP8 DUP10 SUB SLT ISZERO PUSH3 0x82C JUMPI PUSH1 0x0 DUP1 REVERT JUMPDEST DUP7 MLOAD PUSH1 0x1 PUSH1 0x1 PUSH1 0x40 SHL SUB DUP1 DUP3 GT ISZERO PUSH3 0x844 JUMPI PUSH1 0x0 DUP1 REVERT JUMPDEST PUSH3 0x852 DUP11 DUP4 DUP12 ADD PUSH3 0x746 JUMP JUMPDEST SWAP8 POP PUSH1 0x20 DUP10 ADD MLOAD SWAP2 POP DUP1 DUP3 GT ISZERO PUSH3 0x869 JUMPI PUSH1 0x0 DUP1 REVERT JUMPDEST POP PUSH3 0x878 DUP10 DUP3 DUP11 ADD PUSH3 0x746 JUMP JUMPDEST SWAP6 POP POP PUSH1 0x40 DUP8 ADD MLOAD SWAP4 POP PUSH3 0x890 PUSH1 0x60 DUP9 ADD PUSH3 0x7F5 JUMP JUMPDEST SWAP3 POP PUSH3 0x8A0 PUSH1 0x80 DUP9 ADD PUSH3 0x7F5 JUMP JUMPDEST SWAP2 POP PUSH1 0xA0 DUP8 ADD MLOAD SWAP1 POP SWAP3 SWAP6 POP SWAP3 SWAP6 POP SWAP3 SWAP6 JUMP JUMPDEST PUSH1 0x1 DUP2 DUP2 SHR SWAP1 DUP3 AND DUP1 PUSH3 0x8C8 JUMPI PUSH1 0x7F DUP3 AND SWAP2 POP JUMPDEST PUSH1 0x20 DUP3 LT DUP2 SUB PUSH3 0x8E9 JUMPI PUSH4 0x4E487B71 PUSH1 0xE0 SHL PUSH1 0x0 MSTORE PUSH1 0x22 PUSH1 0x4 MSTORE PUSH1 0x24 PUSH1 0x0 REVERT JUMPDEST POP SWAP2 SWAP1 POP JUMP JUMPDEST PUSH1 0x1F DUP3 GT ISZERO PUSH3 0x40D JUMPI PUSH1 0x0 DUP2 DUP2 MSTORE PUSH1 0x20 DUP2 KECCAK256 PUSH1 0x1F DUP6 ADD PUSH1 0x5 SHR DUP2 ADD PUSH1 0x20 DUP7 LT ISZERO PUSH3 0x918 JUMPI POP DUP1 JUMPDEST PUSH1 0x1F DUP6 ADD PUSH1 0x5 SHR DUP3 ADD SWAP2 POP JUMPDEST DUP2 DUP2 LT ISZERO PUSH3 0x939 JUMPI DUP3 DUP2 SSTORE PUSH1 0x1 ADD PUSH3 0x924 JUMP JUMPDEST POP POP POP POP POP POP JUMP JUMPDEST DUP2 MLOAD PUSH1 0x1 PUSH1 0x1 PUSH1 0x40 SHL SUB DUP2 GT ISZERO PUSH3 0x95D JUMPI PUSH3 0x95D PUSH3 0x730 JUMP JUMPDEST PUSH3 0x975 DUP2 PUSH3 0x96E DUP5 SLOAD PUSH3 0x8B3 JUMP JUMPDEST DUP5 PUSH3 0x8EF JUMP JUMPDEST PUSH1 0x20 DUP1 PUSH1 0x1F DUP4 GT PUSH1 0x1 DUP2 EQ PUSH3 0x9AD JUMPI PUSH1 0x0 DUP5 ISZERO PUSH3 0x994 JUMPI POP DUP6 DUP4 ADD MLOAD JUMPDEST PUSH1 0x0 NOT PUSH1 0x3 DUP7 SWAP1 SHL SHR NOT AND PUSH1 0x1 DUP6 SWAP1 SHL OR DUP6 SSTORE PUSH3 0x939 JUMP JUMPDEST PUSH1 0x0 DUP6 DUP2 MSTORE PUSH1 0x20 DUP2 KECCAK256 PUSH1 0x1F NOT DUP7 AND SWAP2 JUMPDEST DUP3 DUP2 LT ISZERO PUSH3 0x9DE JUMPI DUP9 DUP7 ADD MLOAD DUP3 SSTORE SWAP5 DUP5 ADD SWAP5 PUSH1 0x1 SWAP1 SWAP2 ADD SWAP1 DUP5 ADD PUSH3 0x9BD JUMP JUMPDEST POP DUP6 DUP3 LT ISZERO PUSH3 0x9FD JUMPI DUP8 DUP6 ADD MLOAD PUSH1 0x0 NOT PUSH1 0x3 DUP9 SWAP1 SHL PUSH1 0xF8 AND SHR NOT AND DUP2 SSTORE JUMPDEST POP POP POP POP POP PUSH1 0x1 SWAP1 DUP2 SHL ADD SWAP1 SSTORE POP JUMP JUMPDEST PUSH4 0x4E487B71 PUSH1 0xE0 SHL PUSH1 0x0 MSTORE PUSH1 0x11 PUSH1 0x4 MSTORE PUSH1 0x24 PUSH1 0x0 REVERT JUMPDEST PUSH1 0x1 DUP2 DUP2 JUMPDEST DUP1 DUP6 GT ISZERO PUSH3 0xA64 JUMPI DUP2 PUSH1 0x0 NOT DIV DUP3 GT ISZERO PUSH3 0xA48 JUMPI PUSH3 0xA48 PUSH3 0xA0D JUMP JUMPDEST DUP1 DUP6 AND ISZERO PUSH3 0xA56 JUMPI SWAP2 DUP2 MUL SWAP2 JUMPDEST SWAP4 DUP5 SHR SWAP4 SWAP1 DUP1 MUL SWAP1 PUSH3 0xA28 JUMP JUMPDEST POP SWAP3 POP SWAP3 SWAP1 POP JUMP JUMPDEST PUSH1 0x0 DUP3 PUSH3 0xA7D JUMPI POP PUSH1 0x1 PUSH3 0xB1C JUMP JUMPDEST DUP2 PUSH3 0xA8C JUMPI POP PUSH1 0x0 PUSH3 0xB1C JUMP JUMPDEST DUP2 PUSH1 0x1 DUP2 EQ PUSH3 0xAA5 JUMPI PUSH1 0x2 DUP2 EQ PUSH3 0xAB0 JUMPI PUSH3 0xAD0 JUMP JUMPDEST PUSH1 0x1 SWAP2 POP POP PUSH3 0xB1C JUMP JUMPDEST PUSH1 0xFF DUP5 GT ISZERO PUSH3 0xAC4 JUMPI PUSH3 0xAC4 PUSH3 0xA0D JUMP JUMPDEST POP POP PUSH1 0x1 DUP3 SHL PUSH3 0xB1C JUMP JUMPDEST POP PUSH1 0x20 DUP4 LT PUSH2 0x133 DUP4 LT AND PUSH1 0x4E DUP5 LT PUSH1 0xB DUP5 LT AND OR ISZERO PUSH3 0xAF5 JUMPI POP DUP2 DUP2 EXP PUSH3 0xB1C JUMP JUMPDEST PUSH3 0xB01 DUP4 DUP4 PUSH3 0xA23 JUMP JUMPDEST DUP1 PUSH1 0x0 NOT DIV DUP3 GT ISZERO PUSH3 0xB18 JUMPI PUSH3 0xB18 PUSH3 0xA0D JUMP JUMPDEST MUL SWAP1 POP JUMPDEST SWAP3 SWAP2 POP POP JUMP JUMPDEST PUSH1 0x0 PUSH3 0xB33 PUSH1 0xFF DUP5 AND DUP4 PUSH3 0xA6C JUMP JUMPDEST SWAP4 SWAP3 POP POP POP JUMP JUMPDEST DUP1 DUP3 MUL DUP2 ISZERO DUP3 DUP3 DIV DUP5 EQ OR PUSH3 0xB1C JUMPI PUSH3 0xB1C PUSH3 0xA0D JUMP JUMPDEST DUP1 DUP3 ADD DUP1 DUP3 GT ISZERO PUSH3 0xB1C JUMPI PUSH3 0xB1C PUSH3 0xA0D JUMP JUMPDEST PUSH4 0x4E487B71 PUSH1 0xE0 SHL PUSH1 0x0 MSTORE PUSH1 0x32 PUSH1 0x4 MSTORE PUSH1 0x24 PUSH1 0x0 REVERT JUMPDEST PUSH1 0x0 PUSH1 0x1 DUP3 ADD PUSH3 0xB95 JUMPI PUSH3 0xB95 PUSH3 0xA0D JUMP JUMPDEST POP PUSH1 0x1 ADD SWAP1 JUMP JUMPDEST PUSH4 0x4E487B71 PUSH1 0xE0 SHL PUSH1 0x0 MSTORE PUSH1 0x21 PUSH1 0x4 MSTORE PUSH1 0x24 PUSH1 0x0 REVERT JUMPDEST PUSH1 0x0 PUSH1 0x60 DUP3 ADD PUSH1 0x2 DUP7 LT PUSH3 0xBD7 JUMPI PUSH4 0x4E487B71 PUSH1 0xE0 SHL PUSH1 0x0 MSTORE PUSH1 0x21 PUSH1 0x4 MSTORE PUSH1 0x24 PUSH1 0x0 REVERT JUMPDEST DUP6 DUP4 MSTORE PUSH1 0x20 DUP6 ISZERO ISZERO DUP2 DUP6 ADD MSTORE PUSH1 0x60 PUSH1 0x40 DUP6 ADD MSTORE DUP2 DUP6 MLOAD DUP1 DUP5 MSTORE PUSH1 0x80 DUP7 ADD SWAP2 POP DUP3 DUP8 ADD SWAP4 POP PUSH1 0x0 JUMPDEST DUP2 DUP2 LT ISZERO PUSH3 0xC25 JUMPI DUP5 MLOAD PUSH1 0x1 PUSH1 0x1 PUSH1 0xA0 SHL SUB AND DUP4 MSTORE SWAP4 DUP4 ADD SWAP4 SWAP2 DUP4 ADD SWAP2 PUSH1 0x1 ADD PUSH3 0xBFE JUMP JUMPDEST POP SWAP1 SWAP9 SWAP8 POP POP POP POP POP POP POP POP JUMP JUMPDEST PUSH2 0x1AC1 DUP1 PUSH3 0xC43 PUSH1 0x0 CODECOPY PUSH1 0x0 RETURN INVALID PUSH1 0x80 PUSH1 0x40 MSTORE CALLVALUE DUP1 ISZERO PUSH2 0x10 JUMPI PUSH1 0x0 DUP1 REVERT JUMPDEST POP PUSH1 0x4 CALLDATASIZE LT PUSH2 0x1A9 JUMPI PUSH1 0x0 CALLDATALOAD PUSH1 0xE0 SHR DUP1 PUSH4 0x79CC6790 GT PUSH2 0xF9 JUMPI DUP1 PUSH4 0xA25D11C3 GT PUSH2 0x97 JUMPI DUP1 PUSH4 0xAE6EBC9F GT PUSH2 0x71 JUMPI DUP1 PUSH4 0xAE6EBC9F EQ PUSH2 0x3B4 JUMPI DUP1 PUSH4 0xD0BF0F9A EQ PUSH2 0x3BC JUMPI DUP1 PUSH4 0xDD62ED3E EQ PUSH2 0x3CF JUMPI DUP1 PUSH4 0xF2FDE38B EQ PUSH2 0x3E2 JUMPI PUSH1 0x0 DUP1 REVERT JUMPDEST DUP1 PUSH4 0xA25D11C3 EQ PUSH2 0x362 JUMPI DUP1 PUSH4 0xA457C2D7 EQ PUSH2 0x38E JUMPI DUP1 PUSH4 0xA9059CBB EQ PUSH2 0x3A1 JUMPI PUSH1 0x0 DUP1 REVERT JUMPDEST DUP1 PUSH4 0x8F02BB5B GT PUSH2 0xD3 JUMPI DUP1 PUSH4 0x8F02BB5B EQ PUSH2 0x32A JUMPI DUP1 PUSH4 0x95D89B41 EQ PUSH2 0x33D JUMPI DUP1 PUSH4 0x9A17D8C1 EQ PUSH2 0x345 JUMPI DUP1 PUSH4 0x9EE1CFD4 EQ PUSH2 0x34D JUMPI PUSH1 0x0 DUP1 REVERT JUMPDEST DUP1 PUSH4 0x79CC6790 EQ PUSH2 0x2F3 JUMPI DUP1 PUSH4 0x829691AA EQ PUSH2 0x306 JUMPI DUP1 PUSH4 0x8DA5CB5B EQ PUSH2 0x319 JUMPI PUSH1 0x0 DUP1 REVERT JUMPDEST DUP1 PUSH4 0x313CE567 GT PUSH2 0x166 JUMPI DUP1 PUSH4 0x42966C68 GT PUSH2 0x140 JUMPI DUP1 PUSH4 0x42966C68 EQ PUSH2 0x29C JUMPI DUP1 PUSH4 0x5EFD930B EQ PUSH2 0x2AF JUMPI DUP1 PUSH4 0x70A08231 EQ PUSH2 0x2C2 JUMPI DUP1 PUSH4 0x715018A6 EQ PUSH2 0x2EB JUMPI PUSH1 0x0 DUP1 REVERT JUMPDEST DUP1 PUSH4 0x313CE567 EQ PUSH2 0x265 JUMPI DUP1 PUSH4 0x39509351 EQ PUSH2 0x274 JUMPI DUP1 PUSH4 0x40C10F19 EQ PUSH2 0x287 JUMPI PUSH1 0x0 DUP1 REVERT JUMPDEST DUP1 PUSH4 0x6FDDE03 EQ PUSH2 0x1AE JUMPI DUP1 PUSH4 0x899F5A7 EQ PUSH2 0x1CC JUMPI DUP1 PUSH4 0x95EA7B3 EQ PUSH2 0x1F1 JUMPI DUP1 PUSH4 0x18160DDD EQ PUSH2 0x214 JUMPI DUP1 PUSH4 0x23B872DD EQ PUSH2 0x226 JUMPI DUP1 PUSH4 0x28A6868D EQ PUSH2 0x239 JUMPI JUMPDEST PUSH1 0x0 DUP1 REVERT JUMPDEST PUSH2 0x1B6 PUSH2 0x3F5 JUMP JUMPDEST PUSH1 0x40 MLOAD PUSH2 0x1C3 SWAP2 SWAP1 PUSH2 0x16B0 JUMP JUMPDEST PUSH1 0x40 MLOAD DUP1 SWAP2 SUB SWAP1 RETURN JUMPDEST PUSH1 0x7 SLOAD PUSH1 0x1 PUSH1 0x1 PUSH1 0xA0 SHL SUB AND JUMPDEST PUSH1 0x40 MLOAD PUSH1 0x1 PUSH1 0x1 PUSH1 0xA0 SHL SUB SWAP1 SWAP2 AND DUP2 MSTORE PUSH1 0x20 ADD PUSH2 0x1C3 JUMP JUMPDEST PUSH2 0x204 PUSH2 0x1FF CALLDATASIZE PUSH1 0x4 PUSH2 0x171A JUMP JUMPDEST PUSH2 0x487 JUMP JUMPDEST PUSH1 0x40 MLOAD SWAP1 ISZERO ISZERO DUP2 MSTORE PUSH1 0x20 ADD PUSH2 0x1C3 JUMP JUMPDEST PUSH1 0x2 SLOAD JUMPDEST PUSH1 0x40 MLOAD SWAP1 DUP2 MSTORE PUSH1 0x20 ADD PUSH2 0x1C3 JUMP JUMPDEST PUSH2 0x204 PUSH2 0x234 CALLDATASIZE PUSH1 0x4 PUSH2 0x1744 JUMP JUMPDEST PUSH2 0x4A1 JUMP JUMPDEST PUSH2 0x204 PUSH2 0x247 CALLDATASIZE PUSH1 0x4 PUSH2 0x1780 JUMP JUMPDEST PUSH1 0x1 PUSH1 0x1 PUSH1 0xA0 SHL SUB AND PUSH1 0x0 SWAP1 DUP2 MSTORE PUSH1 0x8 PUSH1 0x20 MSTORE PUSH1 0x40 SWAP1 KECCAK256 SLOAD PUSH1 0xFF AND SWAP1 JUMP JUMPDEST PUSH1 0x40 MLOAD PUSH1 0x12 DUP2 MSTORE PUSH1 0x20 ADD PUSH2 0x1C3 JUMP JUMPDEST PUSH2 0x204 PUSH2 0x282 CALLDATASIZE PUSH1 0x4 PUSH2 0x171A JUMP JUMPDEST PUSH2 0x526 JUMP JUMPDEST PUSH2 0x29A PUSH2 0x295 CALLDATASIZE PUSH1 0x4 PUSH2 0x171A JUMP JUMPDEST PUSH2 0x548 JUMP JUMPDEST STOP JUMPDEST PUSH2 0x29A PUSH2 0x2AA CALLDATASIZE PUSH1 0x4 PUSH2 0x17A2 JUMP JUMPDEST PUSH2 0x55E JUMP JUMPDEST PUSH2 0x29A PUSH2 0x2BD CALLDATASIZE PUSH1 0x4 PUSH2 0x1780 JUMP JUMPDEST PUSH2 0x56B JUMP JUMPDEST PUSH2 0x218 PUSH2 0x2D0 CALLDATASIZE PUSH1 0x4 PUSH2 0x1780 JUMP JUMPDEST PUSH1 0x1 PUSH1 0x1 PUSH1 0xA0 SHL SUB AND PUSH1 0x0 SWAP1 DUP2 MSTORE PUSH1 0x20 DUP2 SWAP1 MSTORE PUSH1 0x40 SWAP1 KECCAK256 SLOAD SWAP1 JUMP JUMPDEST PUSH2 0x29A PUSH2 0x619 JUMP JUMPDEST PUSH2 0x29A PUSH2 0x301 CALLDATASIZE PUSH1 0x4 PUSH2 0x171A JUMP JUMPDEST PUSH2 0x62D JUMP JUMPDEST PUSH2 0x29A PUSH2 0x314 CALLDATASIZE PUSH1 0x4 PUSH2 0x17D1 JUMP JUMPDEST PUSH2 0x642 JUMP JUMPDEST PUSH1 0x5 SLOAD PUSH1 0x1 PUSH1 0x1 PUSH1 0xA0 SHL SUB AND PUSH2 0x1D9 JUMP JUMPDEST PUSH2 0x29A PUSH2 0x338 CALLDATASIZE PUSH1 0x4 PUSH2 0x17A2 JUMP JUMPDEST PUSH2 0x8CB JUMP JUMPDEST PUSH2 0x1B6 PUSH2 0x970 JUMP JUMPDEST PUSH1 0x6 SLOAD PUSH2 0x218 JUMP JUMPDEST PUSH2 0x355 PUSH2 0x97F JUMP JUMPDEST PUSH1 0x40 MLOAD PUSH2 0x1C3 SWAP2 SWAP1 PUSH2 0x18F3 JUMP JUMPDEST PUSH2 0x204 PUSH2 0x370 CALLDATASIZE PUSH1 0x4 PUSH2 0x1780 JUMP JUMPDEST PUSH1 0x1 PUSH1 0x1 PUSH1 0xA0 SHL SUB AND PUSH1 0x0 SWAP1 DUP2 MSTORE PUSH1 0x9 PUSH1 0x20 MSTORE PUSH1 0x40 SWAP1 KECCAK256 SLOAD PUSH1 0xFF AND SWAP1 JUMP JUMPDEST PUSH2 0x204 PUSH2 0x39C CALLDATASIZE PUSH1 0x4 PUSH2 0x171A JUMP JUMPDEST PUSH2 0x9E0 JUMP JUMPDEST PUSH2 0x204 PUSH2 0x3AF CALLDATASIZE PUSH1 0x4 PUSH2 0x171A JUMP JUMPDEST PUSH2 0xA5B JUMP JUMPDEST PUSH2 0x355 PUSH2 0xAC5 JUMP JUMPDEST PUSH2 0x29A PUSH2 0x3CA CALLDATASIZE PUSH1 0x4 PUSH2 0x17D1 JUMP JUMPDEST PUSH2 0xB25 JUMP JUMPDEST PUSH2 0x218 PUSH2 0x3DD CALLDATASIZE PUSH1 0x4 PUSH2 0x1906 JUMP JUMPDEST PUSH2 0xB71 JUMP JUMPDEST PUSH2 0x29A PUSH2 0x3F0 CALLDATASIZE PUSH1 0x4 PUSH2 0x1780 JUMP JUMPDEST PUSH2 0xB9C JUMP JUMPDEST PUSH1 0x60 PUSH1 0x3 DUP1 SLOAD PUSH2 0x404 SWAP1 PUSH2 0x1939 JUMP JUMPDEST DUP1 PUSH1 0x1F ADD PUSH1 0x20 DUP1 SWAP2 DIV MUL PUSH1 0x20 ADD PUSH1 0x40 MLOAD SWAP1 DUP2 ADD PUSH1 0x40 MSTORE DUP1 SWAP3 SWAP2 SWAP1 DUP2 DUP2 MSTORE PUSH1 0x20 ADD DUP3 DUP1 SLOAD PUSH2 0x430 SWAP1 PUSH2 0x1939 JUMP JUMPDEST DUP1 ISZERO PUSH2 0x47D JUMPI DUP1 PUSH1 0x1F LT PUSH2 0x452 JUMPI PUSH2 0x100 DUP1 DUP4 SLOAD DIV MUL DUP4 MSTORE SWAP2 PUSH1 0x20 ADD SWAP2 PUSH2 0x47D JUMP JUMPDEST DUP3 ADD SWAP2 SWAP1 PUSH1 0x0 MSTORE PUSH1 0x20 PUSH1 0x0 KECCAK256 SWAP1 JUMPDEST DUP2 SLOAD DUP2 MSTORE SWAP1 PUSH1 0x1 ADD SWAP1 PUSH1 0x20 ADD DUP1 DUP4 GT PUSH2 0x460 JUMPI DUP3 SWAP1 SUB PUSH1 0x1F AND DUP3 ADD SWAP2 JUMPDEST POP POP POP POP POP SWAP1 POP SWAP1 JUMP JUMPDEST PUSH1 0x0 CALLER PUSH2 0x495 DUP2 DUP6 DUP6 PUSH2 0xC17 JUMP JUMPDEST PUSH1 0x1 SWAP2 POP POP JUMPDEST SWAP3 SWAP2 POP POP JUMP JUMPDEST PUSH1 0x0 CALLER PUSH2 0x4AF DUP6 DUP3 DUP6 PUSH2 0xD3B JUMP JUMPDEST PUSH2 0x4B9 DUP6 DUP6 PUSH2 0xDB5 JUMP JUMPDEST ISZERO PUSH2 0x510 JUMPI PUSH1 0x0 PUSH2 0x2710 PUSH1 0x6 SLOAD DUP6 PUSH2 0x4D1 SWAP2 SWAP1 PUSH2 0x1989 JUMP JUMPDEST PUSH2 0x4DB SWAP2 SWAP1 PUSH2 0x19A0 JUMP JUMPDEST PUSH1 0x7 SLOAD SWAP1 SWAP2 POP PUSH2 0x4F6 SWAP1 DUP8 SWAP1 PUSH1 0x1 PUSH1 0x1 PUSH1 0xA0 SHL SUB AND DUP4 PUSH2 0xE32 JUMP JUMPDEST PUSH2 0x50A DUP7 DUP7 PUSH2 0x505 DUP5 DUP9 PUSH2 0x19C2 JUMP JUMPDEST PUSH2 0xE32 JUMP JUMPDEST POP PUSH2 0x51B JUMP JUMPDEST PUSH2 0x51B DUP6 DUP6 DUP6 PUSH2 0xE32 JUMP JUMPDEST POP PUSH1 0x1 SWAP5 SWAP4 POP POP POP POP JUMP JUMPDEST PUSH1 0x0 CALLER PUSH2 0x495 DUP2 DUP6 DUP6 PUSH2 0x539 DUP4 DUP4 PUSH2 0xB71 JUMP JUMPDEST PUSH2 0x543 SWAP2 SWAP1 PUSH2 0x19D5 JUMP JUMPDEST PUSH2 0xC17 JUMP JUMPDEST PUSH2 0x550 PUSH2 0xFD6 JUMP JUMPDEST PUSH2 0x55A DUP3 DUP3 PUSH2 0x1030 JUMP JUMPDEST POP POP JUMP JUMPDEST PUSH2 0x568 CALLER DUP3 PUSH2 0x10EF JUMP JUMPDEST POP JUMP JUMPDEST PUSH2 0x573 PUSH2 0xFD6 JUMP JUMPDEST PUSH1 0x1 PUSH1 0x1 PUSH1 0xA0 SHL SUB DUP2 AND PUSH2 0x5C4 JUMPI PUSH1 0x40 MLOAD PUSH3 0x461BCD PUSH1 0xE5 SHL DUP2 MSTORE PUSH1 0x20 PUSH1 0x4 DUP3 ADD MSTORE PUSH1 0x13 PUSH1 0x24 DUP3 ADD MSTORE PUSH19 0x4C494E474F3A205A65726F2041646472657373 PUSH1 0x68 SHL PUSH1 0x44 DUP3 ADD MSTORE PUSH1 0x64 ADD JUMPDEST PUSH1 0x40 MLOAD DUP1 SWAP2 SUB SWAP1 REVERT JUMPDEST PUSH1 0x7 DUP1 SLOAD PUSH1 0x1 PUSH1 0x1 PUSH1 0xA0 SHL SUB NOT AND PUSH1 0x1 PUSH1 0x1 PUSH1 0xA0 SHL SUB DUP4 AND SWAP1 DUP2 OR SWAP1 SWAP2 SSTORE PUSH1 0x40 MLOAD SWAP1 DUP2 MSTORE PUSH32 0x97C79B3848E51F57983AC89E4403452655C8D83CEBA8199011DE63A74F60D1A7 SWAP1 PUSH1 0x20 ADD JUMPDEST PUSH1 0x40 MLOAD DUP1 SWAP2 SUB SWAP1 LOG1 POP JUMP JUMPDEST PUSH2 0x621 PUSH2 0xFD6 JUMP JUMPDEST PUSH2 0x62B PUSH1 0x0 PUSH2 0x1221 JUMP JUMPDEST JUMP JUMPDEST PUSH2 0x638 DUP3 CALLER DUP4 PUSH2 0xD3B JUMP JUMPDEST PUSH2 0x55A DUP3 DUP3 PUSH2 0x10EF JUMP JUMPDEST PUSH2 0x64A PUSH2 0xFD6 JUMP JUMPDEST PUSH1 0x0 DUP3 PUSH1 0x1 DUP2 GT ISZERO PUSH2 0x65E JUMPI PUSH2 0x65E PUSH2 0x19E8 JUMP JUMPDEST SUB PUSH2 0x7AB JUMPI PUSH1 0x0 JUMPDEST DUP2 MLOAD DUP2 LT ISZERO PUSH2 0x76A JUMPI PUSH1 0x8 PUSH1 0x0 DUP4 DUP4 DUP2 MLOAD DUP2 LT PUSH2 0x685 JUMPI PUSH2 0x685 PUSH2 0x19FE JUMP JUMPDEST PUSH1 0x20 SWAP1 DUP2 MUL SWAP2 SWAP1 SWAP2 ADD DUP2 ADD MLOAD PUSH1 0x1 PUSH1 0x1 PUSH1 0xA0 SHL SUB AND DUP3 MSTORE DUP2 ADD SWAP2 SWAP1 SWAP2 MSTORE PUSH1 0x40 ADD PUSH1 0x0 KECCAK256 SLOAD PUSH1 0xFF AND PUSH2 0x758 JUMPI PUSH1 0xA DUP3 DUP3 DUP2 MLOAD DUP2 LT PUSH2 0x6C4 JUMPI PUSH2 0x6C4 PUSH2 0x19FE JUMP JUMPDEST PUSH1 0x20 SWAP1 DUP2 MUL SWAP2 SWAP1 SWAP2 ADD DUP2 ADD MLOAD DUP3 SLOAD PUSH1 0x1 DUP1 DUP3 ADD DUP6 SSTORE PUSH1 0x0 SWAP5 DUP6 MSTORE SWAP3 DUP5 KECCAK256 ADD DUP1 SLOAD PUSH1 0x1 PUSH1 0x1 PUSH1 0xA0 SHL SUB NOT AND PUSH1 0x1 PUSH1 0x1 PUSH1 0xA0 SHL SUB SWAP1 SWAP3 AND SWAP2 SWAP1 SWAP2 OR SWAP1 SSTORE DUP4 MLOAD SWAP1 SWAP2 PUSH1 0x8 SWAP2 DUP6 SWAP1 DUP6 SWAP1 DUP2 LT PUSH2 0x718 JUMPI PUSH2 0x718 PUSH2 0x19FE JUMP JUMPDEST PUSH1 0x20 MUL PUSH1 0x20 ADD ADD MLOAD PUSH1 0x1 PUSH1 0x1 PUSH1 0xA0 SHL SUB AND PUSH1 0x1 PUSH1 0x1 PUSH1 0xA0 SHL SUB AND DUP2 MSTORE PUSH1 0x20 ADD SWAP1 DUP2 MSTORE PUSH1 0x20 ADD PUSH1 0x0 KECCAK256 PUSH1 0x0 PUSH2 0x100 EXP DUP2 SLOAD DUP2 PUSH1 0xFF MUL NOT AND SWAP1 DUP4 ISZERO ISZERO MUL OR SWAP1 SSTORE POP JUMPDEST DUP1 PUSH2 0x762 DUP2 PUSH2 0x1A14 JUMP JUMPDEST SWAP2 POP POP PUSH2 0x666 JUMP JUMPDEST POP PUSH32 0xF5BB579239F1782A702C2E711E672AE09E920B5AF57710F1F234B2F1937F0EC DUP3 PUSH1 0x1 DUP4 PUSH1 0x40 MLOAD PUSH2 0x79F SWAP4 SWAP3 SWAP2 SWAP1 PUSH2 0x1A2D JUMP JUMPDEST PUSH1 0x40 MLOAD DUP1 SWAP2 SUB SWAP1 LOG1 POP POP JUMP JUMPDEST PUSH1 0x1 DUP3 PUSH1 0x1 DUP2 GT ISZERO PUSH2 0x7BF JUMPI PUSH2 0x7BF PUSH2 0x19E8 JUMP JUMPDEST SUB PUSH2 0x55A JUMPI PUSH1 0x0 JUMPDEST DUP2 MLOAD DUP2 LT ISZERO PUSH2 0x76A JUMPI PUSH1 0x9 PUSH1 0x0 DUP4 DUP4 DUP2 MLOAD DUP2 LT PUSH2 0x7E6 JUMPI PUSH2 0x7E6 PUSH2 0x19FE JUMP JUMPDEST PUSH1 0x20 SWAP1 DUP2 MUL SWAP2 SWAP1 SWAP2 ADD DUP2 ADD MLOAD PUSH1 0x1 PUSH1 0x1 PUSH1 0xA0 SHL SUB AND DUP3 MSTORE DUP2 ADD SWAP2 SWAP1 SWAP2 MSTORE PUSH1 0x40 ADD PUSH1 0x0 KECCAK256 SLOAD PUSH1 0xFF AND PUSH2 0x8B9 JUMPI PUSH1 0xB DUP3 DUP3 DUP2 MLOAD DUP2 LT PUSH2 0x825 JUMPI PUSH2 0x825 PUSH2 0x19FE JUMP JUMPDEST PUSH1 0x20 SWAP1 DUP2 MUL SWAP2 SWAP1 SWAP2 ADD DUP2 ADD MLOAD DUP3 SLOAD PUSH1 0x1 DUP1 DUP3 ADD DUP6 SSTORE PUSH1 0x0 SWAP5 DUP6 MSTORE SWAP3 DUP5 KECCAK256 ADD DUP1 SLOAD PUSH1 0x1 PUSH1 0x1 PUSH1 0xA0 SHL SUB NOT AND PUSH1 0x1 PUSH1 0x1 PUSH1 0xA0 SHL SUB SWAP1 SWAP3 AND SWAP2 SWAP1 SWAP2 OR SWAP1 SSTORE DUP4 MLOAD SWAP1 SWAP2 PUSH1 0x9 SWAP2 DUP6 SWAP1 DUP6 SWAP1 DUP2 LT PUSH2 0x879 JUMPI PUSH2 0x879 PUSH2 0x19FE JUMP JUMPDEST PUSH1 0x20 MUL PUSH1 0x20 ADD ADD MLOAD PUSH1 0x1 PUSH1 0x1 PUSH1 0xA0 SHL SUB AND PUSH1 0x1 PUSH1 0x1 PUSH1 0xA0 SHL SUB AND DUP2 MSTORE PUSH1 0x20 ADD SWAP1 DUP2 MSTORE PUSH1 0x20 ADD PUSH1 0x0 KECCAK256 PUSH1 0x0 PUSH2 0x100 EXP DUP2 SLOAD DUP2 PUSH1 0xFF MUL NOT AND SWAP1 DUP4 ISZERO ISZERO MUL OR SWAP1 SSTORE POP JUMPDEST DUP1 PUSH2 0x8C3 DUP2 PUSH2 0x1A14 JUMP JUMPDEST SWAP2 POP POP PUSH2 0x7C7 JUMP JUMPDEST PUSH2 0x8D3 PUSH2 0xFD6 JUMP JUMPDEST PUSH2 0x1F4 DUP2 GT ISZERO PUSH2 0x93B JUMPI PUSH1 0x40 MLOAD PUSH3 0x461BCD PUSH1 0xE5 SHL DUP2 MSTORE PUSH1 0x20 PUSH1 0x4 DUP3 ADD MSTORE PUSH1 0x2D PUSH1 0x24 DUP3 ADD MSTORE PUSH32 0x4C494E474F3A205472616E73666572204665652073686F756C64206265206265 PUSH1 0x44 DUP3 ADD MSTORE PUSH13 0x747765656E203025202D203525 PUSH1 0x98 SHL PUSH1 0x64 DUP3 ADD MSTORE PUSH1 0x84 ADD PUSH2 0x5BB JUMP JUMPDEST PUSH1 0x6 DUP2 SWAP1 SSTORE PUSH1 0x40 MLOAD DUP2 DUP2 MSTORE PUSH32 0xF9F635B7CF851AF6071AAF78EF8A5F752DC52F19D556FEA4512B0C2AD4BAEA72 SWAP1 PUSH1 0x20 ADD PUSH2 0x60E JUMP JUMPDEST PUSH1 0x60 PUSH1 0x4 DUP1 SLOAD PUSH2 0x404 SWAP1 PUSH2 0x1939 JUMP JUMPDEST PUSH1 0x60 PUSH1 0xB DUP1 SLOAD DUP1 PUSH1 0x20 MUL PUSH1 0x20 ADD PUSH1 0x40 MLOAD SWAP1 DUP2 ADD PUSH1 0x40 MSTORE DUP1 SWAP3 SWAP2 SWAP1 DUP2 DUP2 MSTORE PUSH1 0x20 ADD DUP3 DUP1 SLOAD DUP1 ISZERO PUSH2 0x47D JUMPI PUSH1 0x20 MUL DUP3 ADD SWAP2 SWAP1 PUSH1 0x0 MSTORE PUSH1 0x20 PUSH1 0x0 KECCAK256 SWAP1 JUMPDEST DUP2 SLOAD PUSH1 0x1 PUSH1 0x1 PUSH1 0xA0 SHL SUB AND DUP2 MSTORE PUSH1 0x1 SWAP1 SWAP2 ADD SWAP1 PUSH1 0x20 ADD DUP1 DUP4 GT PUSH2 0x9B9 JUMPI POP POP POP POP POP SWAP1 POP SWAP1 JUMP JUMPDEST PUSH1 0x0 CALLER DUP2 PUSH2 0x9EE DUP3 DUP7 PUSH2 0xB71 JUMP JUMPDEST SWAP1 POP DUP4 DUP2 LT ISZERO PUSH2 0xA4E JUMPI PUSH1 0x40 MLOAD PUSH3 0x461BCD PUSH1 0xE5 SHL DUP2 MSTORE PUSH1 0x20 PUSH1 0x4 DUP3 ADD MSTORE PUSH1 0x25 PUSH1 0x24 DUP3 ADD MSTORE PUSH32 0x45524332303A2064656372656173656420616C6C6F77616E63652062656C6F77 PUSH1 0x44 DUP3 ADD MSTORE PUSH5 0x207A65726F PUSH1 0xD8 SHL PUSH1 0x64 DUP3 ADD MSTORE PUSH1 0x84 ADD PUSH2 0x5BB JUMP JUMPDEST PUSH2 0x51B DUP3 DUP7 DUP7 DUP5 SUB PUSH2 0xC17 JUMP JUMPDEST PUSH1 0x0 CALLER PUSH2 0xA68 DUP2 DUP6 PUSH2 0xDB5 JUMP JUMPDEST ISZERO PUSH2 0xABA JUMPI PUSH1 0x0 PUSH2 0x2710 PUSH1 0x6 SLOAD DUP6 PUSH2 0xA80 SWAP2 SWAP1 PUSH2 0x1989 JUMP JUMPDEST PUSH2 0xA8A SWAP2 SWAP1 PUSH2 0x19A0 JUMP JUMPDEST PUSH1 0x7 SLOAD SWAP1 SWAP2 POP PUSH2 0xAA5 SWAP1 DUP4 SWAP1 PUSH1 0x1 PUSH1 0x1 PUSH1 0xA0 SHL SUB AND DUP4 PUSH2 0xE32 JUMP JUMPDEST PUSH2 0xAB4 DUP3 DUP7 PUSH2 0x505 DUP5 DUP9 PUSH2 0x19C2 JUMP JUMPDEST POP PUSH2 0x495 JUMP JUMPDEST PUSH2 0x495 DUP2 DUP6 DUP6 PUSH2 0xE32 JUMP JUMPDEST PUSH1 0x60 PUSH1 0xA DUP1 SLOAD DUP1 PUSH1 0x20 MUL PUSH1 0x20 ADD PUSH1 0x40 MLOAD SWAP1 DUP2 ADD PUSH1 0x40 MSTORE DUP1 SWAP3 SWAP2 SWAP1 DUP2 DUP2 MSTORE PUSH1 0x20 ADD DUP3 DUP1 SLOAD DUP1 ISZERO PUSH2 0x47D JUMPI PUSH1 0x20 MUL DUP3 ADD SWAP2 SWAP1 PUSH1 0x0 MSTORE PUSH1 0x20 PUSH1 0x0 KECCAK256 SWAP1 DUP2 SLOAD PUSH1 0x1 PUSH1 0x1 PUSH1 0xA0 SHL SUB AND DUP2 MSTORE PUSH1 0x1 SWAP1 SWAP2 ADD SWAP1 PUSH1 0x20 ADD DUP1 DUP4 GT PUSH2 0x9B9 JUMPI POP POP POP POP POP SWAP1 POP SWAP1 JUMP JUMPDEST PUSH2 0xB2D PUSH2 0xFD6 JUMP JUMPDEST PUSH1 0x0 DUP3 PUSH1 0x1 DUP2 GT ISZERO PUSH2 0xB41 JUMPI PUSH2 0xB41 PUSH2 0x19E8 JUMP JUMPDEST SUB PUSH2 0xB4F JUMPI PUSH2 0x55A DUP2 PUSH2 0x1273 JUMP JUMPDEST PUSH1 0x1 DUP3 PUSH1 0x1 DUP2 GT ISZERO PUSH2 0xB63 JUMPI PUSH2 0xB63 PUSH2 0x19E8 JUMP JUMPDEST SUB PUSH2 0x55A JUMPI PUSH2 0x55A DUP2 PUSH2 0x1491 JUMP JUMPDEST PUSH1 0x1 PUSH1 0x1 PUSH1 0xA0 SHL SUB SWAP2 DUP3 AND PUSH1 0x0 SWAP1 DUP2 MSTORE PUSH1 0x1 PUSH1 0x20 SWAP1 DUP2 MSTORE PUSH1 0x40 DUP1 DUP4 KECCAK256 SWAP4 SWAP1 SWAP5 AND DUP3 MSTORE SWAP2 SWAP1 SWAP2 MSTORE KECCAK256 SLOAD SWAP1 JUMP JUMPDEST PUSH2 0xBA4 PUSH2 0xFD6 JUMP JUMPDEST PUSH1 0x1 PUSH1 0x1 PUSH1 0xA0 SHL SUB DUP2 AND PUSH2 0xC09 JUMPI PUSH1 0x40 MLOAD PUSH3 0x461BCD PUSH1 0xE5 SHL DUP2 MSTORE PUSH1 0x20 PUSH1 0x4 DUP3 ADD MSTORE PUSH1 0x26 PUSH1 0x24 DUP3 ADD MSTORE PUSH32 0x4F776E61626C653A206E6577206F776E657220697320746865207A65726F2061 PUSH1 0x44 DUP3 ADD MSTORE PUSH6 0x646472657373 PUSH1 0xD0 SHL PUSH1 0x64 DUP3 ADD MSTORE PUSH1 0x84 ADD PUSH2 0x5BB JUMP JUMPDEST PUSH2 0x568 DUP2 PUSH2 0x1221 JUMP JUMPDEST POP POP POP JUMP JUMPDEST PUSH1 0x1 PUSH1 0x1 PUSH1 0xA0 SHL SUB DUP4 AND PUSH2 0xC79 JUMPI PUSH1 0x40 MLOAD PUSH3 0x461BCD PUSH1 0xE5 SHL DUP2 MSTORE PUSH1 0x20 PUSH1 0x4 DUP3 ADD MSTORE PUSH1 0x24 DUP1 DUP3 ADD MSTORE PUSH32 0x45524332303A20617070726F76652066726F6D20746865207A65726F20616464 PUSH1 0x44 DUP3 ADD MSTORE PUSH4 0x72657373 PUSH1 0xE0 SHL PUSH1 0x64 DUP3 ADD MSTORE PUSH1 0x84 ADD PUSH2 0x5BB JUMP JUMPDEST PUSH1 0x1 PUSH1 0x1 PUSH1 0xA0 SHL SUB DUP3 AND PUSH2 0xCDA JUMPI PUSH1 0x40 MLOAD PUSH3 0x461BCD PUSH1 0xE5 SHL DUP2 MSTORE PUSH1 0x20 PUSH1 0x4 DUP3 ADD MSTORE PUSH1 0x22 PUSH1 0x24 DUP3 ADD MSTORE PUSH32 0x45524332303A20617070726F766520746F20746865207A65726F206164647265 PUSH1 0x44 DUP3 ADD MSTORE PUSH2 0x7373 PUSH1 0xF0 SHL PUSH1 0x64 DUP3 ADD MSTORE PUSH1 0x84 ADD PUSH2 0x5BB JUMP JUMPDEST PUSH1 0x1 PUSH1 0x1 PUSH1 0xA0 SHL SUB DUP4 DUP2 AND PUSH1 0x0 DUP2 DUP2 MSTORE PUSH1 0x1 PUSH1 0x20 SWAP1 DUP2 MSTORE PUSH1 0x40 DUP1 DUP4 KECCAK256 SWAP5 DUP8 AND DUP1 DUP5 MSTORE SWAP5 DUP3 MSTORE SWAP2 DUP3 SWAP1 KECCAK256 DUP6 SWAP1 SSTORE SWAP1 MLOAD DUP5 DUP2 MSTORE PUSH32 0x8C5BE1E5EBEC7D5BD14F71427D1E84F3DD0314C0F7B2291E5B200AC8C7C3B925 SWAP2 ADD PUSH1 0x40 MLOAD DUP1 SWAP2 SUB SWAP1 LOG3 POP POP POP JUMP JUMPDEST PUSH1 0x0 PUSH2 0xD47 DUP5 DUP5 PUSH2 0xB71 JUMP JUMPDEST SWAP1 POP PUSH1 0x0 NOT DUP2 EQ PUSH2 0xDAF JUMPI DUP2 DUP2 LT ISZERO PUSH2 0xDA2 JUMPI PUSH1 0x40 MLOAD PUSH3 0x461BCD PUSH1 0xE5 SHL DUP2 MSTORE PUSH1 0x20 PUSH1 0x4 DUP3 ADD MSTORE PUSH1 0x1D PUSH1 0x24 DUP3 ADD MSTORE PUSH32 0x45524332303A20696E73756666696369656E7420616C6C6F77616E6365000000 PUSH1 0x44 DUP3 ADD MSTORE PUSH1 0x64 ADD PUSH2 0x5BB JUMP JUMPDEST PUSH2 0xDAF DUP5 DUP5 DUP5 DUP5 SUB PUSH2 0xC17 JUMP JUMPDEST POP POP POP POP JUMP JUMPDEST PUSH1 0x1 PUSH1 0x1 PUSH1 0xA0 SHL SUB DUP3 AND PUSH1 0x0 SWAP1 DUP2 MSTORE PUSH1 0x9 PUSH1 0x20 MSTORE PUSH1 0x40 DUP2 KECCAK256 SLOAD PUSH1 0xFF AND ISZERO DUP1 ISZERO PUSH2 0xDF7 JUMPI POP PUSH1 0x1 PUSH1 0x1 PUSH1 0xA0 SHL SUB DUP3 AND PUSH1 0x0 SWAP1 DUP2 MSTORE PUSH1 0x9 PUSH1 0x20 MSTORE PUSH1 0x40 SWAP1 KECCAK256 SLOAD PUSH1 0xFF AND ISZERO JUMPDEST DUP1 ISZERO PUSH2 0xE1C JUMPI POP PUSH1 0x1 PUSH1 0x1 PUSH1 0xA0 SHL SUB DUP3 AND PUSH1 0x0 SWAP1 DUP2 MSTORE PUSH1 0x8 PUSH1 0x20 MSTORE PUSH1 0x40 SWAP1 KECCAK256 SLOAD PUSH1 0xFF AND ISZERO JUMPDEST ISZERO PUSH2 0xE29 JUMPI POP PUSH1 0x1 PUSH2 0x49B JUMP JUMPDEST POP PUSH1 0x0 SWAP3 SWAP2 POP POP JUMP JUMPDEST PUSH1 0x1 PUSH1 0x1 PUSH1 0xA0 SHL SUB DUP4 AND PUSH2 0xE96 JUMPI PUSH1 0x40 MLOAD PUSH3 0x461BCD PUSH1 0xE5 SHL DUP2 MSTORE PUSH1 0x20 PUSH1 0x4 DUP3 ADD MSTORE PUSH1 0x25 PUSH1 0x24 DUP3 ADD MSTORE PUSH32 0x45524332303A207472616E736665722066726F6D20746865207A65726F206164 PUSH1 0x44 DUP3 ADD MSTORE PUSH5 0x6472657373 PUSH1 0xD8 SHL PUSH1 0x64 DUP3 ADD MSTORE PUSH1 0x84 ADD PUSH2 0x5BB JUMP JUMPDEST PUSH1 0x1 PUSH1 0x1 PUSH1 0xA0 SHL SUB DUP3 AND PUSH2 0xEF8 JUMPI PUSH1 0x40 MLOAD PUSH3 0x461BCD PUSH1 0xE5 SHL DUP2 MSTORE PUSH1 0x20 PUSH1 0x4 DUP3 ADD MSTORE PUSH1 0x23 PUSH1 0x24 DUP3 ADD MSTORE PUSH32 0x45524332303A207472616E7366657220746F20746865207A65726F2061646472 PUSH1 0x44 DUP3 ADD MSTORE PUSH3 0x657373 PUSH1 0xE8 SHL PUSH1 0x64 DUP3 ADD MSTORE PUSH1 0x84 ADD PUSH2 0x5BB JUMP JUMPDEST PUSH1 0x1 PUSH1 0x1 PUSH1 0xA0 SHL SUB DUP4 AND PUSH1 0x0 SWAP1 DUP2 MSTORE PUSH1 0x20 DUP2 SWAP1 MSTORE PUSH1 0x40 SWAP1 KECCAK256 SLOAD DUP2 DUP2 LT ISZERO PUSH2 0xF70 JUMPI PUSH1 0x40 MLOAD PUSH3 0x461BCD PUSH1 0xE5 SHL DUP2 MSTORE PUSH1 0x20 PUSH1 0x4 DUP3 ADD MSTORE PUSH1 0x26 PUSH1 0x24 DUP3 ADD MSTORE PUSH32 0x45524332303A207472616E7366657220616D6F756E7420657863656564732062 PUSH1 0x44 DUP3 ADD MSTORE PUSH6 0x616C616E6365 PUSH1 0xD0 SHL PUSH1 0x64 DUP3 ADD MSTORE PUSH1 0x84 ADD PUSH2 0x5BB JUMP JUMPDEST PUSH1 0x1 PUSH1 0x1 PUSH1 0xA0 SHL SUB DUP5 DUP2 AND PUSH1 0x0 DUP2 DUP2 MSTORE PUSH1 0x20 DUP2 DUP2 MSTORE PUSH1 0x40 DUP1 DUP4 KECCAK256 DUP8 DUP8 SUB SWAP1 SSTORE SWAP4 DUP8 AND DUP1 DUP4 MSTORE SWAP2 DUP5 SWAP1 KECCAK256 DUP1 SLOAD DUP8 ADD SWAP1 SSTORE SWAP3 MLOAD DUP6 DUP2 MSTORE SWAP1 SWAP3 PUSH32 0xDDF252AD1BE2C89B69C2B068FC378DAA952BA7F163C4A11628F55A4DF523B3EF SWAP2 ADD PUSH1 0x40 MLOAD DUP1 SWAP2 SUB SWAP1 LOG3 PUSH2 0xDAF JUMP JUMPDEST PUSH1 0x5 SLOAD PUSH1 0x1 PUSH1 0x1 PUSH1 0xA0 SHL SUB AND CALLER EQ PUSH2 0x62B JUMPI PUSH1 0x40 MLOAD PUSH3 0x461BCD PUSH1 0xE5 SHL DUP2 MSTORE PUSH1 0x20 PUSH1 0x4 DUP3 ADD DUP2 SWAP1 MSTORE PUSH1 0x24 DUP3 ADD MSTORE PUSH32 0x4F776E61626C653A2063616C6C6572206973206E6F7420746865206F776E6572 PUSH1 0x44 DUP3 ADD MSTORE PUSH1 0x64 ADD PUSH2 0x5BB JUMP JUMPDEST PUSH1 0x1 PUSH1 0x1 PUSH1 0xA0 SHL SUB DUP3 AND PUSH2 0x1086 JUMPI PUSH1 0x40 MLOAD PUSH3 0x461BCD PUSH1 0xE5 SHL DUP2 MSTORE PUSH1 0x20 PUSH1 0x4 DUP3 ADD MSTORE PUSH1 0x1F PUSH1 0x24 DUP3 ADD MSTORE PUSH32 0x45524332303A206D696E7420746F20746865207A65726F206164647265737300 PUSH1 0x44 DUP3 ADD MSTORE PUSH1 0x64 ADD PUSH2 0x5BB JUMP JUMPDEST DUP1 PUSH1 0x2 PUSH1 0x0 DUP3 DUP3 SLOAD PUSH2 0x1098 SWAP2 SWAP1 PUSH2 0x19D5 JUMP JUMPDEST SWAP1 SWAP2 SSTORE POP POP PUSH1 0x1 PUSH1 0x1 PUSH1 0xA0 SHL SUB DUP3 AND PUSH1 0x0 DUP2 DUP2 MSTORE PUSH1 0x20 DUP2 DUP2 MSTORE PUSH1 0x40 DUP1 DUP4 KECCAK256 DUP1 SLOAD DUP7 ADD SWAP1 SSTORE MLOAD DUP5 DUP2 MSTORE PUSH32 0xDDF252AD1BE2C89B69C2B068FC378DAA952BA7F163C4A11628F55A4DF523B3EF SWAP2 ADD PUSH1 0x40 MLOAD DUP1 SWAP2 SUB SWAP1 LOG3 POP POP JUMP JUMPDEST PUSH1 0x1 PUSH1 0x1 PUSH1 0xA0 SHL SUB DUP3 AND PUSH2 0x114F JUMPI PUSH1 0x40 MLOAD PUSH3 0x461BCD PUSH1 0xE5 SHL DUP2 MSTORE PUSH1 0x20 PUSH1 0x4 DUP3 ADD MSTORE PUSH1 0x21 PUSH1 0x24 DUP3 ADD MSTORE PUSH32 0x45524332303A206275726E2066726F6D20746865207A65726F20616464726573 PUSH1 0x44 DUP3 ADD MSTORE PUSH1 0x73 PUSH1 0xF8 SHL PUSH1 0x64 DUP3 ADD MSTORE PUSH1 0x84 ADD PUSH2 0x5BB JUMP JUMPDEST PUSH1 0x1 PUSH1 0x1 PUSH1 0xA0 SHL SUB DUP3 AND PUSH1 0x0 SWAP1 DUP2 MSTORE PUSH1 0x20 DUP2 SWAP1 MSTORE PUSH1 0x40 SWAP1 KECCAK256 SLOAD DUP2 DUP2 LT ISZERO PUSH2 0x11C3 JUMPI PUSH1 0x40 MLOAD PUSH3 0x461BCD PUSH1 0xE5 SHL DUP2 MSTORE PUSH1 0x20 PUSH1 0x4 DUP3 ADD MSTORE PUSH1 0x22 PUSH1 0x24 DUP3 ADD MSTORE PUSH32 0x45524332303A206275726E20616D6F756E7420657863656564732062616C616E PUSH1 0x44 DUP3 ADD MSTORE PUSH2 0x6365 PUSH1 0xF0 SHL PUSH1 0x64 DUP3 ADD MSTORE PUSH1 0x84 ADD PUSH2 0x5BB JUMP JUMPDEST PUSH1 0x1 PUSH1 0x1 PUSH1 0xA0 SHL SUB DUP4 AND PUSH1 0x0 DUP2 DUP2 MSTORE PUSH1 0x20 DUP2 DUP2 MSTORE PUSH1 0x40 DUP1 DUP4 KECCAK256 DUP7 DUP7 SUB SWAP1 SSTORE PUSH1 0x2 DUP1 SLOAD DUP8 SWAP1 SUB SWAP1 SSTORE MLOAD DUP6 DUP2 MSTORE SWAP2 SWAP3 SWAP2 PUSH32 0xDDF252AD1BE2C89B69C2B068FC378DAA952BA7F163C4A11628F55A4DF523B3EF SWAP2 ADD PUSH1 0x40 MLOAD DUP1 SWAP2 SUB SWAP1 LOG3 POP POP POP JUMP JUMPDEST PUSH1 0x5 DUP1 SLOAD PUSH1 0x1 PUSH1 0x1 PUSH1 0xA0 SHL SUB DUP4 DUP2 AND PUSH1 0x1 PUSH1 0x1 PUSH1 0xA0 SHL SUB NOT DUP4 AND DUP2 OR SWAP1 SWAP4 SSTORE PUSH1 0x40 MLOAD SWAP2 AND SWAP2 SWAP1 DUP3 SWAP1 PUSH32 0x8BE0079C531659141344CD1FD0A4F28419497F9722A3DAAFE3B4186F6B6457E0 SWAP1 PUSH1 0x0 SWAP1 LOG3 POP POP JUMP JUMPDEST PUSH2 0x127B PUSH2 0xFD6 JUMP JUMPDEST PUSH1 0x0 DUP1 JUMPDEST DUP3 MLOAD DUP2 LT ISZERO PUSH2 0x1456 JUMPI PUSH1 0x8 PUSH1 0x0 DUP5 DUP4 DUP2 MLOAD DUP2 LT PUSH2 0x129E JUMPI PUSH2 0x129E PUSH2 0x19FE JUMP JUMPDEST PUSH1 0x20 SWAP1 DUP2 MUL SWAP2 SWAP1 SWAP2 ADD DUP2 ADD MLOAD PUSH1 0x1 PUSH1 0x1 PUSH1 0xA0 SHL SUB AND DUP3 MSTORE DUP2 ADD SWAP2 SWAP1 SWAP2 MSTORE PUSH1 0x40 ADD PUSH1 0x0 KECCAK256 SLOAD PUSH1 0xFF AND ISZERO PUSH2 0x1444 JUMPI PUSH1 0x0 SWAP2 POP PUSH1 0x0 JUMPDEST PUSH1 0xA SLOAD DUP2 LT ISZERO PUSH2 0x1442 JUMPI PUSH1 0xA DUP2 DUP2 SLOAD DUP2 LT PUSH2 0x12EE JUMPI PUSH2 0x12EE PUSH2 0x19FE JUMP JUMPDEST PUSH1 0x0 SWAP2 DUP3 MSTORE PUSH1 0x20 SWAP1 SWAP2 KECCAK256 ADD SLOAD DUP5 MLOAD PUSH1 0x1 PUSH1 0x1 PUSH1 0xA0 SHL SUB SWAP1 SWAP2 AND SWAP1 DUP6 SWAP1 DUP5 SWAP1 DUP2 LT PUSH2 0x131A JUMPI PUSH2 0x131A PUSH2 0x19FE JUMP JUMPDEST PUSH1 0x20 MUL PUSH1 0x20 ADD ADD MLOAD PUSH1 0x1 PUSH1 0x1 PUSH1 0xA0 SHL SUB AND SUB PUSH2 0x1430 JUMPI PUSH1 0x0 PUSH1 0x8 PUSH1 0x0 DUP7 DUP6 DUP2 MLOAD DUP2 LT PUSH2 0x1348 JUMPI PUSH2 0x1348 PUSH2 0x19FE JUMP JUMPDEST PUSH1 0x20 SWAP1 DUP2 MUL SWAP2 SWAP1 SWAP2 ADD DUP2 ADD MLOAD PUSH1 0x1 PUSH1 0x1 PUSH1 0xA0 SHL SUB AND DUP3 MSTORE DUP2 ADD SWAP2 SWAP1 SWAP2 MSTORE PUSH1 0x40 ADD PUSH1 0x0 KECCAK256 DUP1 SLOAD PUSH1 0xFF NOT AND SWAP2 ISZERO ISZERO SWAP2 SWAP1 SWAP2 OR SWAP1 SSTORE PUSH1 0xA DUP1 SLOAD PUSH2 0x138A SWAP1 PUSH1 0x1 SWAP1 PUSH2 0x19C2 JUMP JUMPDEST DUP2 SLOAD DUP2 LT PUSH2 0x139A JUMPI PUSH2 0x139A PUSH2 0x19FE JUMP JUMPDEST PUSH1 0x0 SWAP2 DUP3 MSTORE PUSH1 0x20 SWAP1 SWAP2 KECCAK256 ADD SLOAD PUSH1 0xA DUP1 SLOAD PUSH1 0x1 PUSH1 0x1 PUSH1 0xA0 SHL SUB SWAP1 SWAP3 AND SWAP2 DUP4 SWAP1 DUP2 LT PUSH2 0x13C6 JUMPI PUSH2 0x13C6 PUSH2 0x19FE JUMP JUMPDEST SWAP1 PUSH1 0x0 MSTORE PUSH1 0x20 PUSH1 0x0 KECCAK256 ADD PUSH1 0x0 PUSH2 0x100 EXP DUP2 SLOAD DUP2 PUSH1 0x1 PUSH1 0x1 PUSH1 0xA0 SHL SUB MUL NOT AND SWAP1 DUP4 PUSH1 0x1 PUSH1 0x1 PUSH1 0xA0 SHL SUB AND MUL OR SWAP1 SSTORE POP PUSH1 0xA DUP1 SLOAD DUP1 PUSH2 0x1405 JUMPI PUSH2 0x1405 PUSH2 0x1A75 JUMP JUMPDEST PUSH1 0x0 DUP3 DUP2 MSTORE PUSH1 0x20 SWAP1 KECCAK256 DUP2 ADD PUSH1 0x0 NOT SWAP1 DUP2 ADD DUP1 SLOAD PUSH1 0x1 PUSH1 0x1 PUSH1 0xA0 SHL SUB NOT AND SWAP1 SSTORE ADD SWAP1 SSTORE PUSH1 0x1 SWAP3 POP PUSH2 0x1442 JUMP JUMPDEST DUP1 PUSH2 0x143A DUP2 PUSH2 0x1A14 JUMP JUMPDEST SWAP2 POP POP PUSH2 0x12D1 JUMP JUMPDEST POP JUMPDEST DUP1 PUSH2 0x144E DUP2 PUSH2 0x1A14 JUMP JUMPDEST SWAP2 POP POP PUSH2 0x127F JUMP JUMPDEST POP DUP1 ISZERO PUSH2 0x55A JUMPI PUSH32 0xF5BB579239F1782A702C2E711E672AE09E920B5AF57710F1F234B2F1937F0EC PUSH1 0x0 DUP1 DUP5 PUSH1 0x40 MLOAD PUSH2 0x79F SWAP4 SWAP3 SWAP2 SWAP1 PUSH2 0x1A2D JUMP JUMPDEST PUSH2 0x1499 PUSH2 0xFD6 JUMP JUMPDEST PUSH1 0x0 DUP1 JUMPDEST DUP3 MLOAD DUP2 LT ISZERO PUSH2 0x1674 JUMPI PUSH1 0x9 PUSH1 0x0 DUP5 DUP4 DUP2 MLOAD DUP2 LT PUSH2 0x14BC JUMPI PUSH2 0x14BC PUSH2 0x19FE JUMP JUMPDEST PUSH1 0x20 SWAP1 DUP2 MUL SWAP2 SWAP1 SWAP2 ADD DUP2 ADD MLOAD PUSH1 0x1 PUSH1 0x1 PUSH1 0xA0 SHL SUB AND DUP3 MSTORE DUP2 ADD SWAP2 SWAP1 SWAP2 MSTORE PUSH1 0x40 ADD PUSH1 0x0 KECCAK256 SLOAD PUSH1 0xFF AND ISZERO PUSH2 0x1662 JUMPI PUSH1 0x0 SWAP2 POP PUSH1 0x0 JUMPDEST PUSH1 0xB SLOAD DUP2 LT ISZERO PUSH2 0x1660 JUMPI PUSH1 0xB DUP2 DUP2 SLOAD DUP2 LT PUSH2 0x150C JUMPI PUSH2 0x150C PUSH2 0x19FE JUMP JUMPDEST PUSH1 0x0 SWAP2 DUP3 MSTORE PUSH1 0x20 SWAP1 SWAP2 KECCAK256 ADD SLOAD DUP5 MLOAD PUSH1 0x1 PUSH1 0x1 PUSH1 0xA0 SHL SUB SWAP1 SWAP2 AND SWAP1 DUP6 SWAP1 DUP5 SWAP1 DUP2 LT PUSH2 0x1538 JUMPI PUSH2 0x1538 PUSH2 0x19FE JUMP JUMPDEST PUSH1 0x20 MUL PUSH1 0x20 ADD ADD MLOAD PUSH1 0x1 PUSH1 0x1 PUSH1 0xA0 SHL SUB AND SUB PUSH2 0x164E JUMPI PUSH1 0x0 PUSH1 0x9 PUSH1 0x0 DUP7 DUP6 DUP2 MLOAD DUP2 LT PUSH2 0x1566 JUMPI PUSH2 0x1566 PUSH2 0x19FE JUMP JUMPDEST PUSH1 0x20 SWAP1 DUP2 MUL SWAP2 SWAP1 SWAP2 ADD DUP2 ADD MLOAD PUSH1 0x1 PUSH1 0x1 PUSH1 0xA0 SHL SUB AND DUP3 MSTORE DUP2 ADD SWAP2 SWAP1 SWAP2 MSTORE PUSH1 0x40 ADD PUSH1 0x0 KECCAK256 DUP1 SLOAD PUSH1 0xFF NOT AND SWAP2 ISZERO ISZERO SWAP2 SWAP1 SWAP2 OR SWAP1 SSTORE PUSH1 0xB DUP1 SLOAD PUSH2 0x15A8 SWAP1 PUSH1 0x1 SWAP1 PUSH2 0x19C2 JUMP JUMPDEST DUP2 SLOAD DUP2 LT PUSH2 0x15B8 JUMPI PUSH2 0x15B8 PUSH2 0x19FE JUMP JUMPDEST PUSH1 0x0 SWAP2 DUP3 MSTORE PUSH1 0x20 SWAP1 SWAP2 KECCAK256 ADD SLOAD PUSH1 0xB DUP1 SLOAD PUSH1 0x1 PUSH1 0x1 PUSH1 0xA0 SHL SUB SWAP1 SWAP3 AND SWAP2 DUP4 SWAP1 DUP2 LT PUSH2 0x15E4 JUMPI PUSH2 0x15E4 PUSH2 0x19FE JUMP JUMPDEST SWAP1 PUSH1 0x0 MSTORE PUSH1 0x20 PUSH1 0x0 KECCAK256 ADD PUSH1 0x0 PUSH2 0x100 EXP DUP2 SLOAD DUP2 PUSH1 0x1 PUSH1 0x1 PUSH1 0xA0 SHL SUB MUL NOT AND SWAP1 DUP4 PUSH1 0x1 PUSH1 0x1 PUSH1 0xA0 SHL SUB AND MUL OR SWAP1 SSTORE POP PUSH1 0xB DUP1 SLOAD DUP1 PUSH2 0x1623 JUMPI PUSH2 0x1623 PUSH2 0x1A75 JUMP JUMPDEST PUSH1 0x0 DUP3 DUP2 MSTORE PUSH1 0x20 SWAP1 KECCAK256 DUP2 ADD PUSH1 0x0 NOT SWAP1 DUP2 ADD DUP1 SLOAD PUSH1 0x1 PUSH1 0x1 PUSH1 0xA0 SHL SUB NOT AND SWAP1 SSTORE ADD SWAP1 SSTORE PUSH1 0x1 SWAP3 POP PUSH2 0x1660 JUMP JUMPDEST DUP1 PUSH2 0x1658 DUP2 PUSH2 0x1A14 JUMP JUMPDEST SWAP2 POP POP PUSH2 0x14EF JUMP JUMPDEST POP JUMPDEST DUP1 PUSH2 0x166C DUP2 PUSH2 0x1A14 JUMP JUMPDEST SWAP2 POP POP PUSH2 0x149D JUMP JUMPDEST POP DUP1 ISZERO PUSH2 0x55A JUMPI PUSH32 0xF5BB579239F1782A702C2E711E672AE09E920B5AF57710F1F234B2F1937F0EC PUSH1 0x1 PUSH1 0x0 DUP5 PUSH1 0x40 MLOAD PUSH2 0x79F SWAP4 SWAP3 SWAP2 SWAP1 PUSH2 0x1A2D JUMP JUMPDEST PUSH1 0x0 PUSH1 0x20 DUP1 DUP4 MSTORE DUP4 MLOAD DUP1 DUP3 DUP6 ADD MSTORE PUSH1 0x0 JUMPDEST DUP2 DUP2 LT ISZERO PUSH2 0x16DD JUMPI DUP6 DUP2 ADD DUP4 ADD MLOAD DUP6 DUP3 ADD PUSH1 0x40 ADD MSTORE DUP3 ADD PUSH2 0x16C1 JUMP JUMPDEST POP PUSH1 0x0 PUSH1 0x40 DUP3 DUP7 ADD ADD MSTORE PUSH1 0x40 PUSH1 0x1F NOT PUSH1 0x1F DUP4 ADD AND DUP6 ADD ADD SWAP3 POP POP POP SWAP3 SWAP2 POP POP JUMP JUMPDEST DUP1 CALLDATALOAD PUSH1 0x1 PUSH1 0x1 PUSH1 0xA0 SHL SUB DUP2 AND DUP2 EQ PUSH2 0x1715 JUMPI PUSH1 0x0 DUP1 REVERT JUMPDEST SWAP2 SWAP1 POP JUMP JUMPDEST PUSH1 0x0 DUP1 PUSH1 0x40 DUP4 DUP6 SUB SLT ISZERO PUSH2 0x172D JUMPI PUSH1 0x0 DUP1 REVERT JUMPDEST PUSH2 0x1736 DUP4 PUSH2 0x16FE JUMP JUMPDEST SWAP5 PUSH1 0x20 SWAP4 SWAP1 SWAP4 ADD CALLDATALOAD SWAP4 POP POP POP JUMP JUMPDEST PUSH1 0x0 DUP1 PUSH1 0x0 PUSH1 0x60 DUP5 DUP7 SUB SLT ISZERO PUSH2 0x1759 JUMPI PUSH1 0x0 DUP1 REVERT JUMPDEST PUSH2 0x1762 DUP5 PUSH2 0x16FE JUMP JUMPDEST SWAP3 POP PUSH2 0x1770 PUSH1 0x20 DUP6 ADD PUSH2 0x16FE JUMP JUMPDEST SWAP2 POP PUSH1 0x40 DUP5 ADD CALLDATALOAD SWAP1 POP SWAP3 POP SWAP3 POP SWAP3 JUMP JUMPDEST PUSH1 0x0 PUSH1 0x20 DUP3 DUP5 SUB SLT ISZERO PUSH2 0x1792 JUMPI PUSH1 0x0 DUP1 REVERT JUMPDEST PUSH2 0x179B DUP3 PUSH2 0x16FE JUMP JUMPDEST SWAP4 SWAP3 POP POP POP JUMP JUMPDEST PUSH1 0x0 PUSH1 0x20 DUP3 DUP5 SUB SLT ISZERO PUSH2 0x17B4 JUMPI PUSH1 0x0 DUP1 REVERT JUMPDEST POP CALLDATALOAD SWAP2 SWAP1 POP JUMP JUMPDEST PUSH4 0x4E487B71 PUSH1 0xE0 SHL PUSH1 0x0 MSTORE PUSH1 0x41 PUSH1 0x4 MSTORE PUSH1 0x24 PUSH1 0x0 REVERT JUMPDEST PUSH1 0x0 DUP1 PUSH1 0x40 DUP4 DUP6 SUB SLT ISZERO PUSH2 0x17E4 JUMPI PUSH1 0x0 DUP1 REVERT JUMPDEST DUP3 CALLDATALOAD PUSH1 0x2 DUP2 LT PUSH2 0x17F3 JUMPI PUSH1 0x0 DUP1 REVERT JUMPDEST SWAP2 POP PUSH1 0x20 DUP4 DUP2 ADD CALLDATALOAD PUSH8 0xFFFFFFFFFFFFFFFF DUP1 DUP3 GT ISZERO PUSH2 0x1811 JUMPI PUSH1 0x0 DUP1 REVERT JUMPDEST DUP2 DUP7 ADD SWAP2 POP DUP7 PUSH1 0x1F DUP4 ADD SLT PUSH2 0x1825 JUMPI PUSH1 0x0 DUP1 REVERT JUMPDEST DUP2 CALLDATALOAD DUP2 DUP2 GT ISZERO PUSH2 0x1837 JUMPI PUSH2 0x1837 PUSH2 0x17BB JUMP JUMPDEST DUP1 PUSH1 0x5 SHL PUSH1 0x40 MLOAD PUSH1 0x1F NOT PUSH1 0x3F DUP4 ADD AND DUP2 ADD DUP2 DUP2 LT DUP6 DUP3 GT OR ISZERO PUSH2 0x185C JUMPI PUSH2 0x185C PUSH2 0x17BB JUMP JUMPDEST PUSH1 0x40 MSTORE SWAP2 DUP3 MSTORE DUP5 DUP3 ADD SWAP3 POP DUP4 DUP2 ADD DUP6 ADD SWAP2 DUP10 DUP4 GT ISZERO PUSH2 0x187A JUMPI PUSH1 0x0 DUP1 REVERT JUMPDEST SWAP4 DUP6 ADD SWAP4 JUMPDEST DUP3 DUP6 LT ISZERO PUSH2 0x189F JUMPI PUSH2 0x1890 DUP6 PUSH2 0x16FE JUMP JUMPDEST DUP5 MSTORE SWAP4 DUP6 ADD SWAP4 SWAP3 DUP6 ADD SWAP3 PUSH2 0x187F JUMP JUMPDEST DUP1 SWAP7 POP POP POP POP POP POP POP SWAP3 POP SWAP3 SWAP1 POP JUMP JUMPDEST PUSH1 0x0 DUP2 MLOAD DUP1 DUP5 MSTORE PUSH1 0x20 DUP1 DUP6 ADD SWAP5 POP DUP1 DUP5 ADD PUSH1 0x0 JUMPDEST DUP4 DUP2 LT ISZERO PUSH2 0x18E8 JUMPI DUP2 MLOAD PUSH1 0x1 PUSH1 0x1 PUSH1 0xA0 SHL SUB AND DUP8 MSTORE SWAP6 DUP3 ADD SWAP6 SWAP1 DUP3 ADD SWAP1 PUSH1 0x1 ADD PUSH2 0x18C3 JUMP JUMPDEST POP SWAP5 SWAP6 SWAP5 POP POP POP POP POP JUMP JUMPDEST PUSH1 0x20 DUP2 MSTORE PUSH1 0x0 PUSH2 0x179B PUSH1 0x20 DUP4 ADD DUP5 PUSH2 0x18AF JUMP JUMPDEST PUSH1 0x0 DUP1 PUSH1 0x40 DUP4 DUP6 SUB SLT ISZERO PUSH2 0x1919 JUMPI PUSH1 0x0 DUP1 REVERT JUMPDEST PUSH2 0x1922 DUP4 PUSH2 0x16FE JUMP JUMPDEST SWAP2 POP PUSH2 0x1930 PUSH1 0x20 DUP5 ADD PUSH2 0x16FE JUMP JUMPDEST SWAP1 POP SWAP3 POP SWAP3 SWAP1 POP JUMP JUMPDEST PUSH1 0x1 DUP2 DUP2 SHR SWAP1 DUP3 AND DUP1 PUSH2 0x194D JUMPI PUSH1 0x7F DUP3 AND SWAP2 POP JUMPDEST PUSH1 0x20 DUP3 LT DUP2 SUB PUSH2 0x196D JUMPI PUSH4 0x4E487B71 PUSH1 0xE0 SHL PUSH1 0x0 MSTORE PUSH1 0x22 PUSH1 0x4 MSTORE PUSH1 0x24 PUSH1 0x0 REVERT JUMPDEST POP SWAP2 SWAP1 POP JUMP JUMPDEST PUSH4 0x4E487B71 PUSH1 0xE0 SHL PUSH1 0x0 MSTORE PUSH1 0x11 PUSH1 0x4 MSTORE PUSH1 0x24 PUSH1 0x0 REVERT JUMPDEST DUP1 DUP3 MUL DUP2 ISZERO DUP3 DUP3 DIV DUP5 EQ OR PUSH2 0x49B JUMPI PUSH2 0x49B PUSH2 0x1973 JUMP JUMPDEST PUSH1 0x0 DUP3 PUSH2 0x19BD JUMPI PUSH4 0x4E487B71 PUSH1 0xE0 SHL PUSH1 0x0 MSTORE PUSH1 0x12 PUSH1 0x4 MSTORE PUSH1 0x24 PUSH1 0x0 REVERT JUMPDEST POP DIV SWAP1 JUMP JUMPDEST DUP2 DUP2 SUB DUP2 DUP2 GT ISZERO PUSH2 0x49B JUMPI PUSH2 0x49B PUSH2 0x1973 JUMP JUMPDEST DUP1 DUP3 ADD DUP1 DUP3 GT ISZERO PUSH2 0x49B JUMPI PUSH2 0x49B PUSH2 0x1973 JUMP JUMPDEST PUSH4 0x4E487B71 PUSH1 0xE0 SHL PUSH1 0x0 MSTORE PUSH1 0x21 PUSH1 0x4 MSTORE PUSH1 0x24 PUSH1 0x0 REVERT JUMPDEST PUSH4 0x4E487B71 PUSH1 0xE0 SHL PUSH1 0x0 MSTORE PUSH1 0x32 PUSH1 0x4 MSTORE PUSH1 0x24 PUSH1 0x0 REVERT JUMPDEST PUSH1 0x0 PUSH1 0x1 DUP3 ADD PUSH2 0x1A26 JUMPI PUSH2 0x1A26 PUSH2 0x1973 JUMP JUMPDEST POP PUSH1 0x1 ADD SWAP1 JUMP JUMPDEST PUSH1 0x0 PUSH1 0x2 DUP6 LT PUSH2 0x1A4D JUMPI PUSH4 0x4E487B71 PUSH1 0xE0 SHL PUSH1 0x0 MSTORE PUSH1 0x21 PUSH1 0x4 MSTORE PUSH1 0x24 PUSH1 0x0 REVERT JUMPDEST DUP5 DUP3 MSTORE DUP4 ISZERO ISZERO PUSH1 0x20 DUP4 ADD MSTORE PUSH1 0x60 PUSH1 0x40 DUP4 ADD MSTORE PUSH2 0x1A6C PUSH1 0x60 DUP4 ADD DUP5 PUSH2 0x18AF JUMP JUMPDEST SWAP6 SWAP5 POP POP POP POP POP JUMP JUMPDEST PUSH4 0x4E487B71 PUSH1 0xE0 SHL PUSH1 0x0 MSTORE PUSH1 0x31 PUSH1 0x4 MSTORE PUSH1 0x24 PUSH1 0x0 REVERT INVALID LOG2 PUSH5 0x6970667358 0x22 SLT KECCAK256 STATICCALL 0xCC BYTE 0xB8 PUSH29 0x9E4FA6185F8F68F4351449A3CB4A83EE85BD2E7E26DE27AF56AEF26473 PUSH16 0x6C634300081200330000000000000000 "},"methodIdentifiers":{"addToWhiteList(uint8,address[])":"829691aa","allowance(address,address)":"dd62ed3e","approve(address,uint256)":"095ea7b3","balanceOf(address)":"70a08231","burn(uint256)":"42966c68","burnFrom(address,uint256)":"79cc6790","decimals()":"313ce567","decreaseAllowance(address,uint256)":"a457c2d7","getExternalWhitelistedAddresses()":"ae6ebc9f","getInternalWhitelistedAddresses()":"9ee1cfd4","getTransferFee()":"9a17d8c1","getTreasuryWalletAddress()":"0899f5a7","increaseAllowance(address,uint256)":"39509351","isExternalWhiteListed(address)":"28a6868d","isInternalWhiteListed(address)":"a25d11c3","mint(address,uint256)":"40c10f19","name()":"06fdde03","owner()":"8da5cb5b","removeFromWhiteList(uint8,address[])":"d0bf0f9a","renounceOwnership()":"715018a6","setTransferFee(uint256)":"8f02bb5b","setTreasuryWalletAddress(address)":"5efd930b","symbol()":"95d89b41","totalSupply()":"18160ddd","transfer(address,uint256)":"a9059cbb","transferFrom(address,address,uint256)":"23b872dd","transferOwnership(address)":"f2fde38b"}}}}}