{"contracts/Distribution.sol":{"Distribution":{"abi":[{"inputs":[{"internalType":"address","name":"admin","type":"address"},{"internalType":"address","name":"treasuryWallet","type":"address"},{"internalType":"address","name":"tokenAddress","type":"address"},{"internalType":"uint256","name":"slot","type":"uint256"},{"internalType":"uint256","name":"adminClaimPeriod","type":"uint256"},{"internalType":"uint256","name":"fee","type":"uint256"}],"stateMutability":"nonpayable","type":"constructor"},{"anonymous":false,"inputs":[{"indexed":true,"internalType":"address","name":"admin","type":"address"},{"indexed":false,"internalType":"uint256","name":"amount","type":"uint256"}],"name":"AdminClaim","type":"event"},{"anonymous":false,"inputs":[{"indexed":false,"internalType":"uint256","name":"adminClaimPeriod","type":"uint256"}],"name":"AdminClaimPeriodUpdated","type":"event"},{"anonymous":false,"inputs":[{"indexed":true,"internalType":"address","name":"user","type":"address"},{"indexed":false,"internalType":"uint256","name":"amount","type":"uint256"}],"name":"Claim","type":"event"},{"anonymous":false,"inputs":[{"indexed":true,"internalType":"address","name":"user","type":"address"},{"indexed":false,"internalType":"uint256","name":"amount","type":"uint256"}],"name":"Deposit","type":"event"},{"anonymous":false,"inputs":[{"indexed":false,"internalType":"uint256","name":"amount","type":"uint256"}],"name":"Distribute","type":"event"},{"anonymous":false,"inputs":[{"indexed":true,"internalType":"address","name":"previousOwner","type":"address"},{"indexed":true,"internalType":"address","name":"newOwner","type":"address"}],"name":"OwnershipTransferred","type":"event"},{"anonymous":false,"inputs":[{"indexed":false,"internalType":"uint256","name":"slot","type":"uint256"}],"name":"SlotUpdated","type":"event"},{"anonymous":false,"inputs":[{"indexed":false,"internalType":"address","name":"account","type":"address"}],"name":"TreasuryWalletUpdated","type":"event"},{"anonymous":false,"inputs":[{"indexed":true,"internalType":"address","name":"user","type":"address"},{"indexed":false,"internalType":"uint256","name":"amount","type":"uint256"}],"name":"Withdraw","type":"event"},{"anonymous":false,"inputs":[{"indexed":false,"internalType":"uint256","name":"fee","type":"uint256"}],"name":"WithdrawalFeeUpdated","type":"event"},{"inputs":[],"name":"adminClaim","outputs":[],"stateMutability":"nonpayable","type":"function"},{"inputs":[],"name":"claimRewards","outputs":[],"stateMutability":"nonpayable","type":"function"},{"inputs":[{"internalType":"uint256","name":"amount","type":"uint256"}],"name":"deposit","outputs":[],"stateMutability":"nonpayable","type":"function"},{"inputs":[{"internalType":"uint256","name":"amount","type":"uint256"}],"name":"distribute","outputs":[],"stateMutability":"nonpayable","type":"function"},{"inputs":[],"name":"getAdminClaimPeriod","outputs":[{"internalType":"uint256","name":"","type":"uint256"}],"stateMutability":"view","type":"function"},{"inputs":[],"name":"getContractState","outputs":[{"internalType":"uint256","name":"startTime","type":"uint256"},{"internalType":"uint256","name":"endTime","type":"uint256"},{"internalType":"uint256","name":"totalAmount","type":"uint256"},{"internalType":"uint256","name":"totalCredits","type":"uint256"}],"stateMutability":"view","type":"function"},{"inputs":[],"name":"getDistributionHistory","outputs":[{"components":[{"internalType":"uint256","name":"startTime","type":"uint256"},{"internalType":"uint256","name":"endTime","type":"uint256"},{"internalType":"uint256","name":"monthlyProfit","type":"uint256"},{"internalType":"uint256","name":"totalCredits","type":"uint256"},{"internalType":"uint256","name":"remainingTokensToClaim","type":"uint256"}],"internalType":"struct Distribution.DistributionHistory[]","name":"","type":"tuple[]"}],"stateMutability":"view","type":"function"},{"inputs":[],"name":"getSlot","outputs":[{"internalType":"uint256","name":"","type":"uint256"}],"stateMutability":"view","type":"function"},{"inputs":[],"name":"getTokenAddress","outputs":[{"internalType":"address","name":"","type":"address"}],"stateMutability":"view","type":"function"},{"inputs":[],"name":"getTreasuryWalletAddress","outputs":[{"internalType":"address","name":"","type":"address"}],"stateMutability":"view","type":"function"},{"inputs":[],"name":"getUserAddresses","outputs":[{"internalType":"address[]","name":"","type":"address[]"}],"stateMutability":"view","type":"function"},{"inputs":[{"internalType":"address","name":"account","type":"address"}],"name":"getUserStatus","outputs":[{"components":[{"internalType":"uint256","name":"balance","type":"uint256"},{"internalType":"uint256","name":"forecastedCredits","type":"uint256"},{"internalType":"uint256","name":"lastUpdatedTimestamp","type":"uint256"},{"internalType":"uint256","name":"lastClaimedTimestamp","type":"uint256"}],"internalType":"struct Distribution.User","name":"","type":"tuple"}],"stateMutability":"view","type":"function"},{"inputs":[],"name":"getWithdrawalFee","outputs":[{"internalType":"uint256","name":"","type":"uint256"}],"stateMutability":"view","type":"function"},{"inputs":[],"name":"owner","outputs":[{"internalType":"address","name":"","type":"address"}],"stateMutability":"view","type":"function"},{"inputs":[],"name":"renounceOwnership","outputs":[],"stateMutability":"nonpayable","type":"function"},{"inputs":[{"internalType":"address","name":"account","type":"address"}],"name":"setTreasuryWalletAddress","outputs":[],"stateMutability":"nonpayable","type":"function"},{"inputs":[{"internalType":"uint256","name":"fee","type":"uint256"}],"name":"setWithdrawalFee","outputs":[],"stateMutability":"nonpayable","type":"function"},{"inputs":[{"internalType":"address","name":"newOwner","type":"address"}],"name":"transferOwnership","outputs":[],"stateMutability":"nonpayable","type":"function"},{"inputs":[{"internalType":"uint256","name":"newAdminClaimPeriod","type":"uint256"}],"name":"updateAdminClaimPeriod","outputs":[],"stateMutability":"nonpayable","type":"function"},{"inputs":[{"internalType":"uint256","name":"newSlot","type":"uint256"}],"name":"updateSlot","outputs":[],"stateMutability":"nonpayable","type":"function"},{"inputs":[{"internalType":"uint256","name":"amount","type":"uint256"}],"name":"withdraw","outputs":[],"stateMutability":"nonpayable","type":"function"}],"evm":{"bytecode":{"linkReferences":{},"object":"60a0604052600060055560006006553480156200001b57600080fd5b5060405162002437380380620024378339810160408190526200003e916200029d565b620000493362000121565b600180556001600160a01b038516620000a95760405162461bcd60e51b815260206004820152601360248201527f4c494e474f3a205a65726f20416464726573730000000000000000000000000060448201526064015b60405180910390fd5b6001600160a01b0384166080526002839055620000c9610e104262000303565b6003819055600254620000dc9162000326565b600455600d829055600780546001600160a01b0319166001600160a01b0387161790556200010a8162000171565b620001158662000121565b5050505050506200034e565b600080546001600160a01b038381166001600160a01b0319831681178455604051919092169283917f8be0079c531659141344cd1fd0a4f28419497f9722a3daafe3b4186f6b6457e09190a35050565b6200017b62000222565b6101f4811115620001e75760405162461bcd60e51b815260206004820152602f60248201527f4c494e474f3a205769746864726177616c204665652073686f756c642062652060448201526e6265747765656e203025202d20352560881b6064820152608401620000a0565b60088190556040518181527fe94edcc114da5287ecb30ee8aacf12e6c16b11b8583d7f9e477ab1616e33d53d9060200160405180910390a150565b6000546001600160a01b031633146200027e5760405162461bcd60e51b815260206004820181905260248201527f4f776e61626c653a2063616c6c6572206973206e6f7420746865206f776e65726044820152606401620000a0565b565b80516001600160a01b03811681146200029857600080fd5b919050565b60008060008060008060c08789031215620002b757600080fd5b620002c28762000280565b9550620002d26020880162000280565b9450620002e26040880162000280565b9350606087015192506080870151915060a087015190509295509295509295565b6000826200032157634e487b7160e01b600052601260045260246000fd5b500490565b808201808211156200034857634e487b7160e01b600052601160045260246000fd5b92915050565b6080516120aa6200038d6000396000818161017d0152818161115e015281816113d301528181611737015281816119e70152611c3b01526120aa6000f3fe608060405234801561001057600080fd5b50600436106101375760003560e01c8063715018a6116100b8578063a591efde1161007c578063a591efde14610271578063ac1e502514610286578063b6b55f2514610299578063d8e159f8146102ac578063ea0d5dcd146102b4578063f2fde38b146102fa57600080fd5b8063715018a6146102115780637f4e48491461021957806382ef8fa8146102455780638da5cb5b1461024d57806391c05b0b1461025e57600080fd5b8063372500ab116100ff578063372500ab146101c857806337bbcfe8146101d057806350c6d481146101e35780635efd930b146101f65780636c877c841461020957600080fd5b80630899f5a71461013c5780630fba7faf1461016657806310fe9ae81461017b57806327499265146101a15780632e1a7d4d146101b3575b600080fd5b6007546001600160a01b03165b6040516001600160a01b0390911681526020015b60405180910390f35b61016e61030d565b60405161015d9190611d5c565b7f0000000000000000000000000000000000000000000000000000000000000000610149565b600d545b60405190815260200161015d565b6101c66101c1366004611dca565b61039e565b005b6101c66107ba565b6101c66101de366004611dca565b610d49565b6101c66101f1366004611dca565b610d8d565b6101c6610204366004611de3565b610e1a565b6002546101a5565b6101c6610ebc565b60035460045460065460055460408051948552602085019390935291830152606082015260800161015d565b6101c6610ece565b6000546001600160a01b0316610149565b6101c661026c366004611dca565b6110d5565b6102796114ad565b60405161015d9190611e13565b6101c6610294366004611dca565b61150f565b6101c66102a7366004611dca565b6115b6565b6008546101a5565b6102c76102c2366004611de3565b611ac5565b60405161015d91908151815260208083015190820152604080830151908201526060918201519181019190915260800190565b6101c6610308366004611de3565b611b3e565b6060600c805480602002602001604051908101604052809291908181526020016000905b8282101561039557838290600052602060002090600502016040518060a00160405290816000820154815260200160018201548152602001600282015481526020016003820154815260200160048201548152505081526020019060010190610331565b50505050905090565b336000908152600a602052604090205460ff166103fe5760405162461bcd60e51b81526020600482015260196024820152782624a723a79d102737ba1030b71030b1ba34bb32903ab9b2b960391b60448201526064015b60405180910390fd5b60045461040d610e1042611e76565b111580156104285750600354610425610e1042611e76565b10155b6104445760405162461bcd60e51b81526004016103f590611e98565b336000908152600960209081526040918290208251608081018452815481526001820154928101929092526002810154928201929092526003909101546060820152600c541561052957600c8054600091906104a290600190611eec565b815481106104b2576104b2611eff565b90600052602060002090600502016040518060a00160405290816000820154815260200160018201548152602001600282015481526020016003820154815260200160048201548152505090508060200151826060015110156105275760405162461bcd60e51b81526004016103f590611f15565b505b610531611bb7565b600082116105515760405162461bcd60e51b81526004016103f590611f88565b33600081815260096020526040902080548411156105b15760405162461bcd60e51b815260206004820152601b60248201527f4c494e474f3a20496e73756666696369656e742062616c616e6365000000000060448201526064016103f5565b8060010154600560008282546105c79190611eec565b909155506105d99050610e1042611e76565b6004546105e69190611eec565b81546105f29190611fbf565b8160010160008282546106059190611eec565b909155505080548490829060009061061e908490611eec565b909155506106309050610e1042611e76565b60045461063d9190611eec565b81546106499190611fbf565b81600101600082825461065c9190611fd6565b9091555061066e9050610e1042611e76565b600282015560018101546005805460009061068a908490611fd6565b9250508190555083600660008282546106a39190611eec565b9091555050600854600090612710906106bc9087611fbf565b6106c69190611e76565b6007549091506000906106e2906001600160a01b031683611c10565b9050806107315760405162461bcd60e51b815260206004820152601c60248201527f4c494e474f3a2046656520636f6c6c656374696f6e206661696c65640000000060448201526064016103f5565b600061074685610741858a611eec565b611c10565b9050806107655760405162461bcd60e51b81526004016103f590611fe9565b846001600160a01b03167f884edad9ce6fa2440d8a54cc123490eb96d2768479d49ff9c7366125a9424364886040516107a091815260200190565b60405180910390a250505050506107b660018055565b5050565b336000908152600a602052604090205460ff166108155760405162461bcd60e51b81526020600482015260196024820152782624a723a79d102737ba1030b71030b1ba34bb32903ab9b2b960391b60448201526064016103f5565b600454610824610e1042611e76565b1115801561083f575060035461083c610e1042611e76565b10155b61085b5760405162461bcd60e51b81526004016103f590611e98565b610863611bb7565b3360008181526009602052604090206003808201549054116108c05760405162461bcd60e51b815260206004820152601660248201527513125391d3ce88105b1c9958591e4818db185a5b595960521b60448201526064016103f5565b6000806000600c805490506001148061091b5750600c54600110801561091b5750600c80546108f190600190611eec565b8154811061090157610901611eff565b906000526020600020906005020160000154846003015410155b15610a3c57600c80546000919061093490600190611eec565b8154811061094457610944611eff565b9060005260206000209060050201600301541115610a3757600180850154600c80549194509161097391611eec565b8154811061098357610983611eff565b906000526020600020906005020160030154600c6001600c805490506109a99190611eec565b815481106109b9576109b9611eff565b906000526020600020906005020160020154836109d69190611fbf565b6109e09190611e76565b90506109ec8184611fd6565b600c80549194508291610a0190600190611eec565b81548110610a1157610a11611eff565b90600052602060002090600502016004016000828254610a319190611eec565b90915550505b610c0b565b60005b600c54811015610c09578460030154600c8281548110610a6157610a61611eff565b90600052602060002090600502016001015410158015610aa557506000600c8281548110610a9157610a91611eff565b906000526020600020906005020160030154115b15610bf75760009250600091508460030154600c8281548110610aca57610aca611eff565b90600052602060002090600502016000015411610aed5784600101549250610b50565b600c8181548110610b0057610b00611eff565b906000526020600020906005020160000154600c8281548110610b2557610b25611eff565b906000526020600020906005020160010154610b419190611eec565b8554610b4d9190611fbf565b92505b600c8181548110610b6357610b63611eff565b906000526020600020906005020160030154600c8281548110610b8857610b88611eff565b90600052602060002090600502016002015484610ba59190611fbf565b610baf9190611e76565b9150610bbb8285611fd6565b935081600c8281548110610bd157610bd1611eff565b90600052602060002090600502016004016000828254610bf19190611eec565b90915550505b80610c0181612020565b915050610a3f565b505b60008311610c515760405162461bcd60e51b81526020600482015260136024820152724c494e474f3a205a65726f207265776172647360681b60448201526064016103f5565b600060055411610c62576000610c68565b83600101545b60056000828254610c799190611eec565b9091555050600354600454610c8e9190611eec565b8454610c9a9190611fbf565b6001850181905560058054600090610cb3908490611fd6565b90915550610cc59050610e1042611e76565b60038501556000610cd68685611c10565b905080610cf55760405162461bcd60e51b81526004016103f590611fe9565b856001600160a01b03167f47cee97cb7acd717b3c0aa1435d004cd5b3c8c57d70dbceb4e4458bbd60e39d485604051610d3091815260200190565b60405180910390a2505050505050610d4760018055565b565b610d51611cb2565b600d8190556040518181527f227eb5469f2250dba512afc74b3a4aa5eac62196ded8694cfe83b3285435fbc5906020015b60405180910390a150565b610d95611cb2565b60008111610de55760405162461bcd60e51b815260206004820152601a60248201527f4c494e474f3a20536c6f742063616e6e6f74206265207a65726f00000000000060448201526064016103f5565b60028190556040518181527fb3ee65c0c15104083e90f55b359836720e3d2dfd10e8203a69e562453e8bf2f590602001610d82565b610e22611cb2565b6001600160a01b038116610e6e5760405162461bcd60e51b81526020600482015260136024820152724c494e474f3a205a65726f204164647265737360681b60448201526064016103f5565b600780546001600160a01b0319166001600160a01b0383169081179091556040519081527f97c79b3848e51f57983ac89e4403452655c8d83ceba8199011de63a74f60d1a790602001610d82565b610ec4611cb2565b610d476000611d0c565b610ed6611cb2565b610ede611bb7565b6000805b600c54811015610fa057600d54600c8281548110610f0257610f02611eff565b906000526020600020906005020160010154610e1042610f229190611e76565b610f2c9190611eec565b10610f8e57600c8181548110610f4457610f44611eff565b90600052602060002090600502016004015482610f619190611fd6565b91506000600c8281548110610f7857610f78611eff565b9060005260206000209060050201600401819055505b80610f9881612020565b915050610ee2565b5060008111610fff5760405162461bcd60e51b815260206004820152602560248201527f4c494e474f3a205a65726f20746f6b656e7320617661696c61626c6520746f20604482015264636c61696d60d81b60648201526084016103f5565b600061101c6110166000546001600160a01b031690565b83611c10565b90508061107c5760405162461bcd60e51b815260206004820152602860248201527f4c494e474f3a204661696c656420746f207472616e7366657220636c61696d656044820152676420746f6b656e7360c01b60648201526084016103f5565b6000546001600160a01b03166001600160a01b03167f9538d979992cc86b9ed8d06fb1974d5626861f234058e3b0ced24898d4a499dc836040516110c291815260200190565b60405180910390a25050610d4760018055565b6110dd611cb2565b600081116110fd5760405162461bcd60e51b81526004016103f590611f88565b611109610e1042611e76565b600454111561115a5760405162461bcd60e51b815260206004820152601d60248201527f4c494e474f3a2043757272656e7420736c6f742069732061637469766500000060448201526064016103f5565b60007f00000000000000000000000000000000000000000000000000000000000000006001600160a01b031663dd62ed3e61119d6000546001600160a01b031690565b6040516001600160e01b031960e084901b1681526001600160a01b039091166004820152306024820152604401602060405180830381865afa1580156111e7573d6000803e3d6000fd5b505050506040513d601f19601f8201168201806040525081019061120b9190612039565b90508181101561125d5760405162461bcd60e51b815260206004820152601d60248201527f4c494e474f3a20496e73756666696369656e7420616c6c6f77616e636500000060448201526064016103f5565b6040805160a0810182526003805482526004805460208401908152938301868152600580546060860190815260808601898152600c80546001810182556000919091529651969092027fdf6966c971051c3d54ec59162606531493a51404a002842f56009d7e5cf4a8c781019690965595517fdf6966c971051c3d54ec59162606531493a51404a002842f56009d7e5cf4a8c886015590517fdf6966c971051c3d54ec59162606531493a51404a002842f56009d7e5cf4a8c985015593517fdf6966c971051c3d54ec59162606531493a51404a002842f56009d7e5cf4a8ca84015592517fdf6966c971051c3d54ec59162606531493a51404a002842f56009d7e5cf4a8cb9092019190915590549081905560025461137b91611fd6565b600481905560035461138c91611eec565b6006546113999190611fbf565b6005556040518281527f4def474aca53bf221d07d9ab0f675b3f6d8d2494b8427271bcf43c018ef1eead9060200160405180910390a160007f00000000000000000000000000000000000000000000000000000000000000006001600160a01b03166323b872dd6114126000546001600160a01b031690565b6040516001600160e01b031960e084901b1681526001600160a01b039091166004820152306024820152604481018690526064016020604051808303816000875af1158015611465573d6000803e3d6000fd5b505050506040513d601f19601f820116820180604052508101906114899190612052565b9050806114a85760405162461bcd60e51b81526004016103f590611fe9565b505050565b6060600b80548060200260200160405190810160405280929190818152602001828054801561150557602002820191906000526020600020905b81546001600160a01b031681526001909101906020018083116114e7575b5050505050905090565b611517611cb2565b6101f48111156115815760405162461bcd60e51b815260206004820152602f60248201527f4c494e474f3a205769746864726177616c204665652073686f756c642062652060448201526e6265747765656e203025202d20352560881b60648201526084016103f5565b60088190556040518181527fe94edcc114da5287ecb30ee8aacf12e6c16b11b8583d7f9e477ab1616e33d53d90602001610d82565b6004546115c5610e1042611e76565b111580156115e057506003546115dd610e1042611e76565b10155b6115fc5760405162461bcd60e51b81526004016103f590611e98565b336000908152600960209081526040918290208251608081018452815481526001820154928101929092526002810154928201929092526003909101546060820152600c54156116e157600c80546000919061165a90600190611eec565b8154811061166a5761166a611eff565b90600052602060002090600502016040518060a00160405290816000820154815260200160018201548152602001600282015481526020016003820154815260200160048201548152505090508060200151826060015110156116df5760405162461bcd60e51b81526004016103f590611f15565b505b6116e9611bb7565b600082116117095760405162461bcd60e51b81526004016103f590611f88565b600033604051636eb1769f60e11b81526001600160a01b0380831660048301523060248301529192506000917f0000000000000000000000000000000000000000000000000000000000000000169063dd62ed3e90604401602060405180830381865afa15801561177e573d6000803e3d6000fd5b505050506040513d601f19601f820116820180604052508101906117a29190612039565b9050838110156117f45760405162461bcd60e51b815260206004820152601d60248201527f4c494e474f3a20496e73756666696369656e7420616c6c6f77616e636500000060448201526064016103f5565b6001600160a01b038216600090815260096020526040902060055461181a576000611820565b80600101545b600560008282546118319190611eec565b9091555050600181015461184657600061186b565b611852610e1042611e76565b60045461185f9190611eec565b815461186b9190611fbf565b81600101600082825461187e9190611eec565b9091555050805485908290600090611897908490611fd6565b909155506118a99050610e1042611e76565b6004546118b69190611eec565b81546118c29190611fbf565b8160010160008282546118d59190611fd6565b909155506118e79050610e1042611e76565b6002820155600181015460058054600090611903908490611fd6565b92505081905550846006600082825461191c9190611fd6565b90915550506001600160a01b0383166000908152600a602052604090205460ff166119b8576001600160a01b0383166000818152600a60205260408120805460ff19166001908117909155600b805491820181559091527f0175b7a638427703f0dbe7bb9bbf987a2551717b34e79f33b5b1008d1fa01db90180546001600160a01b03191690911790556119b2610e1042611e76565b60038201555b6040516323b872dd60e01b81526001600160a01b038481166004830152306024830152604482018790526000917f0000000000000000000000000000000000000000000000000000000000000000909116906323b872dd906064016020604051808303816000875af1158015611a32573d6000803e3d6000fd5b505050506040513d601f19601f82011682018060405250810190611a569190612052565b905080611a755760405162461bcd60e51b81526004016103f590611fe9565b836001600160a01b03167fe1fffcc4923d04b559f4d29a8bfc6cda04eb5b0d3c460751c2402c5c5cc9109c87604051611ab091815260200190565b60405180910390a2505050506107b660018055565b611af06040518060800160405280600081526020016000815260200160008152602001600081525090565b506001600160a01b0316600090815260096020908152604091829020825160808101845281548152600182015492810192909252600281015492820192909252600390910154606082015290565b611b46611cb2565b6001600160a01b038116611bab5760405162461bcd60e51b815260206004820152602660248201527f4f776e61626c653a206e6577206f776e657220697320746865207a65726f206160448201526564647265737360d01b60648201526084016103f5565b611bb481611d0c565b50565b600260015403611c095760405162461bcd60e51b815260206004820152601f60248201527f5265656e7472616e637947756172643a207265656e7472616e742063616c6c0060448201526064016103f5565b6002600155565b60405163a9059cbb60e01b81526001600160a01b0383811660048301526024820183905260009182917f0000000000000000000000000000000000000000000000000000000000000000169063a9059cbb906044016020604051808303816000875af1158015611c84573d6000803e3d6000fd5b505050506040513d601f19601f82011682018060405250810190611ca89190612052565b9150505b92915050565b6000546001600160a01b03163314610d475760405162461bcd60e51b815260206004820181905260248201527f4f776e61626c653a2063616c6c6572206973206e6f7420746865206f776e657260448201526064016103f5565b600080546001600160a01b038381166001600160a01b0319831681178455604051919092169283917f8be0079c531659141344cd1fd0a4f28419497f9722a3daafe3b4186f6b6457e09190a35050565b602080825282518282018190526000919060409081850190868401855b82811015611dbd5781518051855286810151878601528581015186860152606080820151908601526080908101519085015260a09093019290850190600101611d79565b5091979650505050505050565b600060208284031215611ddc57600080fd5b5035919050565b600060208284031215611df557600080fd5b81356001600160a01b0381168114611e0c57600080fd5b9392505050565b6020808252825182820181905260009190848201906040850190845b81811015611e545783516001600160a01b031683529284019291840191600101611e2f565b50909695505050505050565b634e487b7160e01b600052601160045260246000fd5b600082611e9357634e487b7160e01b600052601260045260246000fd5b500490565b60208082526034908201527f4c494e474f3a20446973747269627574696f6e206973206f6e20686f6c642e20604082015273283632b0b9b29031b7b73a30b1ba1030b236b4b760611b606082015260800190565b81810381811115611cac57611cac611e60565b634e487b7160e01b600052603260045260246000fd5b6020808252604d908201527f4c494e474f3a2055736572206861766520756e636c61696d656420746f6b656e60408201527f732e20506c6561736520636c61696d206974206265666f7265206465706f736960608201526c74206f7220776974686472617760981b608082015260a00190565b6020808252601c908201527f4c494e474f3a20416d6f756e742063616e6e6f74206265207a65726f00000000604082015260600190565b8082028115828204841417611cac57611cac611e60565b80820180821115611cac57611cac611e60565b6020808252601c908201527f4c494e474f3a20546f6b656e207472616e73666572206661696c656400000000604082015260600190565b60006001820161203257612032611e60565b5060010190565b60006020828403121561204b57600080fd5b5051919050565b60006020828403121561206457600080fd5b81518015158114611e0c57600080fdfea26469706673582212202626b9c235d42e1875def2f1b392313cef1555618a4997a0a9aa2bf0e12ebe1764736f6c63430008120033","opcodes":"PUSH1 0xA0 PUSH1 0x40 MSTORE PUSH1 0x0 PUSH1 0x5 SSTORE PUSH1 0x0 PUSH1 0x6 SSTORE CALLVALUE DUP1 ISZERO PUSH3 0x1B JUMPI PUSH1 0x0 DUP1 REVERT JUMPDEST POP PUSH1 0x40 MLOAD PUSH3 0x2437 CODESIZE SUB DUP1 PUSH3 0x2437 DUP4 CODECOPY DUP2 ADD PUSH1 0x40 DUP2 SWAP1 MSTORE PUSH3 0x3E SWAP2 PUSH3 0x29D JUMP JUMPDEST PUSH3 0x49 CALLER PUSH3 0x121 JUMP JUMPDEST PUSH1 0x1 DUP1 SSTORE PUSH1 0x1 PUSH1 0x1 PUSH1 0xA0 SHL SUB DUP6 AND PUSH3 0xA9 JUMPI PUSH1 0x40 MLOAD PUSH3 0x461BCD PUSH1 0xE5 SHL DUP2 MSTORE PUSH1 0x20 PUSH1 0x4 DUP3 ADD MSTORE PUSH1 0x13 PUSH1 0x24 DUP3 ADD MSTORE PUSH32 0x4C494E474F3A205A65726F204164647265737300000000000000000000000000 PUSH1 0x44 DUP3 ADD MSTORE PUSH1 0x64 ADD JUMPDEST PUSH1 0x40 MLOAD DUP1 SWAP2 SUB SWAP1 REVERT JUMPDEST PUSH1 0x1 PUSH1 0x1 PUSH1 0xA0 SHL SUB DUP5 AND PUSH1 0x80 MSTORE PUSH1 0x2 DUP4 SWAP1 SSTORE PUSH3 0xC9 PUSH2 0xE10 TIMESTAMP PUSH3 0x303 JUMP JUMPDEST PUSH1 0x3 DUP2 SWAP1 SSTORE PUSH1 0x2 SLOAD PUSH3 0xDC SWAP2 PUSH3 0x326 JUMP JUMPDEST PUSH1 0x4 SSTORE PUSH1 0xD DUP3 SWAP1 SSTORE PUSH1 0x7 DUP1 SLOAD PUSH1 0x1 PUSH1 0x1 PUSH1 0xA0 SHL SUB NOT AND PUSH1 0x1 PUSH1 0x1 PUSH1 0xA0 SHL SUB DUP8 AND OR SWAP1 SSTORE PUSH3 0x10A DUP2 PUSH3 0x171 JUMP JUMPDEST PUSH3 0x115 DUP7 PUSH3 0x121 JUMP JUMPDEST POP POP POP POP POP POP PUSH3 0x34E JUMP JUMPDEST PUSH1 0x0 DUP1 SLOAD PUSH1 0x1 PUSH1 0x1 PUSH1 0xA0 SHL SUB DUP4 DUP2 AND PUSH1 0x1 PUSH1 0x1 PUSH1 0xA0 SHL SUB NOT DUP4 AND DUP2 OR DUP5 SSTORE PUSH1 0x40 MLOAD SWAP2 SWAP1 SWAP3 AND SWAP3 DUP4 SWAP2 PUSH32 0x8BE0079C531659141344CD1FD0A4F28419497F9722A3DAAFE3B4186F6B6457E0 SWAP2 SWAP1 LOG3 POP POP JUMP JUMPDEST PUSH3 0x17B PUSH3 0x222 JUMP JUMPDEST PUSH2 0x1F4 DUP2 GT ISZERO PUSH3 0x1E7 JUMPI PUSH1 0x40 MLOAD PUSH3 0x461BCD PUSH1 0xE5 SHL DUP2 MSTORE PUSH1 0x20 PUSH1 0x4 DUP3 ADD MSTORE PUSH1 0x2F PUSH1 0x24 DUP3 ADD MSTORE PUSH32 0x4C494E474F3A205769746864726177616C204665652073686F756C6420626520 PUSH1 0x44 DUP3 ADD MSTORE PUSH15 0x6265747765656E203025202D203525 PUSH1 0x88 SHL PUSH1 0x64 DUP3 ADD MSTORE PUSH1 0x84 ADD PUSH3 0xA0 JUMP JUMPDEST PUSH1 0x8 DUP2 SWAP1 SSTORE PUSH1 0x40 MLOAD DUP2 DUP2 MSTORE PUSH32 0xE94EDCC114DA5287ECB30EE8AACF12E6C16B11B8583D7F9E477AB1616E33D53D SWAP1 PUSH1 0x20 ADD PUSH1 0x40 MLOAD DUP1 SWAP2 SUB SWAP1 LOG1 POP JUMP JUMPDEST PUSH1 0x0 SLOAD PUSH1 0x1 PUSH1 0x1 PUSH1 0xA0 SHL SUB AND CALLER EQ PUSH3 0x27E JUMPI PUSH1 0x40 MLOAD PUSH3 0x461BCD PUSH1 0xE5 SHL DUP2 MSTORE PUSH1 0x20 PUSH1 0x4 DUP3 ADD DUP2 SWAP1 MSTORE PUSH1 0x24 DUP3 ADD MSTORE PUSH32 0x4F776E61626C653A2063616C6C6572206973206E6F7420746865206F776E6572 PUSH1 0x44 DUP3 ADD MSTORE PUSH1 0x64 ADD PUSH3 0xA0 JUMP JUMPDEST JUMP JUMPDEST DUP1 MLOAD PUSH1 0x1 PUSH1 0x1 PUSH1 0xA0 SHL SUB DUP2 AND DUP2 EQ PUSH3 0x298 JUMPI PUSH1 0x0 DUP1 REVERT JUMPDEST SWAP2 SWAP1 POP JUMP JUMPDEST PUSH1 0x0 DUP1 PUSH1 0x0 DUP1 PUSH1 0x0 DUP1 PUSH1 0xC0 DUP8 DUP10 SUB SLT ISZERO PUSH3 0x2B7 JUMPI PUSH1 0x0 DUP1 REVERT JUMPDEST PUSH3 0x2C2 DUP8 PUSH3 0x280 JUMP JUMPDEST SWAP6 POP PUSH3 0x2D2 PUSH1 0x20 DUP9 ADD PUSH3 0x280 JUMP JUMPDEST SWAP5 POP PUSH3 0x2E2 PUSH1 0x40 DUP9 ADD PUSH3 0x280 JUMP JUMPDEST SWAP4 POP PUSH1 0x60 DUP8 ADD MLOAD SWAP3 POP PUSH1 0x80 DUP8 ADD MLOAD SWAP2 POP PUSH1 0xA0 DUP8 ADD MLOAD SWAP1 POP SWAP3 SWAP6 POP SWAP3 SWAP6 POP SWAP3 SWAP6 JUMP JUMPDEST PUSH1 0x0 DUP3 PUSH3 0x321 JUMPI PUSH4 0x4E487B71 PUSH1 0xE0 SHL PUSH1 0x0 MSTORE PUSH1 0x12 PUSH1 0x4 MSTORE PUSH1 0x24 PUSH1 0x0 REVERT JUMPDEST POP DIV SWAP1 JUMP JUMPDEST DUP1 DUP3 ADD DUP1 DUP3 GT ISZERO PUSH3 0x348 JUMPI PUSH4 0x4E487B71 PUSH1 0xE0 SHL PUSH1 0x0 MSTORE PUSH1 0x11 PUSH1 0x4 MSTORE PUSH1 0x24 PUSH1 0x0 REVERT JUMPDEST SWAP3 SWAP2 POP POP JUMP JUMPDEST PUSH1 0x80 MLOAD PUSH2 0x20AA PUSH3 0x38D PUSH1 0x0 CODECOPY PUSH1 0x0 DUP2 DUP2 PUSH2 0x17D ADD MSTORE DUP2 DUP2 PUSH2 0x115E ADD MSTORE DUP2 DUP2 PUSH2 0x13D3 ADD MSTORE DUP2 DUP2 PUSH2 0x1737 ADD MSTORE DUP2 DUP2 PUSH2 0x19E7 ADD MSTORE PUSH2 0x1C3B ADD MSTORE PUSH2 0x20AA PUSH1 0x0 RETURN INVALID PUSH1 0x80 PUSH1 0x40 MSTORE CALLVALUE DUP1 ISZERO PUSH2 0x10 JUMPI PUSH1 0x0 DUP1 REVERT JUMPDEST POP PUSH1 0x4 CALLDATASIZE LT PUSH2 0x137 JUMPI PUSH1 0x0 CALLDATALOAD PUSH1 0xE0 SHR DUP1 PUSH4 0x715018A6 GT PUSH2 0xB8 JUMPI DUP1 PUSH4 0xA591EFDE GT PUSH2 0x7C JUMPI DUP1 PUSH4 0xA591EFDE EQ PUSH2 0x271 JUMPI DUP1 PUSH4 0xAC1E5025 EQ PUSH2 0x286 JUMPI DUP1 PUSH4 0xB6B55F25 EQ PUSH2 0x299 JUMPI DUP1 PUSH4 0xD8E159F8 EQ PUSH2 0x2AC JUMPI DUP1 PUSH4 0xEA0D5DCD EQ PUSH2 0x2B4 JUMPI DUP1 PUSH4 0xF2FDE38B EQ PUSH2 0x2FA JUMPI PUSH1 0x0 DUP1 REVERT JUMPDEST DUP1 PUSH4 0x715018A6 EQ PUSH2 0x211 JUMPI DUP1 PUSH4 0x7F4E4849 EQ PUSH2 0x219 JUMPI DUP1 PUSH4 0x82EF8FA8 EQ PUSH2 0x245 JUMPI DUP1 PUSH4 0x8DA5CB5B EQ PUSH2 0x24D JUMPI DUP1 PUSH4 0x91C05B0B EQ PUSH2 0x25E JUMPI PUSH1 0x0 DUP1 REVERT JUMPDEST DUP1 PUSH4 0x372500AB GT PUSH2 0xFF JUMPI DUP1 PUSH4 0x372500AB EQ PUSH2 0x1C8 JUMPI DUP1 PUSH4 0x37BBCFE8 EQ PUSH2 0x1D0 JUMPI DUP1 PUSH4 0x50C6D481 EQ PUSH2 0x1E3 JUMPI DUP1 PUSH4 0x5EFD930B EQ PUSH2 0x1F6 JUMPI DUP1 PUSH4 0x6C877C84 EQ PUSH2 0x209 JUMPI PUSH1 0x0 DUP1 REVERT JUMPDEST DUP1 PUSH4 0x899F5A7 EQ PUSH2 0x13C JUMPI DUP1 PUSH4 0xFBA7FAF EQ PUSH2 0x166 JUMPI DUP1 PUSH4 0x10FE9AE8 EQ PUSH2 0x17B JUMPI DUP1 PUSH4 0x27499265 EQ PUSH2 0x1A1 JUMPI DUP1 PUSH4 0x2E1A7D4D EQ PUSH2 0x1B3 JUMPI JUMPDEST PUSH1 0x0 DUP1 REVERT JUMPDEST PUSH1 0x7 SLOAD PUSH1 0x1 PUSH1 0x1 PUSH1 0xA0 SHL SUB AND JUMPDEST PUSH1 0x40 MLOAD PUSH1 0x1 PUSH1 0x1 PUSH1 0xA0 SHL SUB SWAP1 SWAP2 AND DUP2 MSTORE PUSH1 0x20 ADD JUMPDEST PUSH1 0x40 MLOAD DUP1 SWAP2 SUB SWAP1 RETURN JUMPDEST PUSH2 0x16E PUSH2 0x30D JUMP JUMPDEST PUSH1 0x40 MLOAD PUSH2 0x15D SWAP2 SWAP1 PUSH2 0x1D5C JUMP JUMPDEST PUSH32 0x0 PUSH2 0x149 JUMP JUMPDEST PUSH1 0xD SLOAD JUMPDEST PUSH1 0x40 MLOAD SWAP1 DUP2 MSTORE PUSH1 0x20 ADD PUSH2 0x15D JUMP JUMPDEST PUSH2 0x1C6 PUSH2 0x1C1 CALLDATASIZE PUSH1 0x4 PUSH2 0x1DCA JUMP JUMPDEST PUSH2 0x39E JUMP JUMPDEST STOP JUMPDEST PUSH2 0x1C6 PUSH2 0x7BA JUMP JUMPDEST PUSH2 0x1C6 PUSH2 0x1DE CALLDATASIZE PUSH1 0x4 PUSH2 0x1DCA JUMP JUMPDEST PUSH2 0xD49 JUMP JUMPDEST PUSH2 0x1C6 PUSH2 0x1F1 CALLDATASIZE PUSH1 0x4 PUSH2 0x1DCA JUMP JUMPDEST PUSH2 0xD8D JUMP JUMPDEST PUSH2 0x1C6 PUSH2 0x204 CALLDATASIZE PUSH1 0x4 PUSH2 0x1DE3 JUMP JUMPDEST PUSH2 0xE1A JUMP JUMPDEST PUSH1 0x2 SLOAD PUSH2 0x1A5 JUMP JUMPDEST PUSH2 0x1C6 PUSH2 0xEBC JUMP JUMPDEST PUSH1 0x3 SLOAD PUSH1 0x4 SLOAD PUSH1 0x6 SLOAD PUSH1 0x5 SLOAD PUSH1 0x40 DUP1 MLOAD SWAP5 DUP6 MSTORE PUSH1 0x20 DUP6 ADD SWAP4 SWAP1 SWAP4 MSTORE SWAP2 DUP4 ADD MSTORE PUSH1 0x60 DUP3 ADD MSTORE PUSH1 0x80 ADD PUSH2 0x15D JUMP JUMPDEST PUSH2 0x1C6 PUSH2 0xECE JUMP JUMPDEST PUSH1 0x0 SLOAD PUSH1 0x1 PUSH1 0x1 PUSH1 0xA0 SHL SUB AND PUSH2 0x149 JUMP JUMPDEST PUSH2 0x1C6 PUSH2 0x26C CALLDATASIZE PUSH1 0x4 PUSH2 0x1DCA JUMP JUMPDEST PUSH2 0x10D5 JUMP JUMPDEST PUSH2 0x279 PUSH2 0x14AD JUMP JUMPDEST PUSH1 0x40 MLOAD PUSH2 0x15D SWAP2 SWAP1 PUSH2 0x1E13 JUMP JUMPDEST PUSH2 0x1C6 PUSH2 0x294 CALLDATASIZE PUSH1 0x4 PUSH2 0x1DCA JUMP JUMPDEST PUSH2 0x150F JUMP JUMPDEST PUSH2 0x1C6 PUSH2 0x2A7 CALLDATASIZE PUSH1 0x4 PUSH2 0x1DCA JUMP JUMPDEST PUSH2 0x15B6 JUMP JUMPDEST PUSH1 0x8 SLOAD PUSH2 0x1A5 JUMP JUMPDEST PUSH2 0x2C7 PUSH2 0x2C2 CALLDATASIZE PUSH1 0x4 PUSH2 0x1DE3 JUMP JUMPDEST PUSH2 0x1AC5 JUMP JUMPDEST PUSH1 0x40 MLOAD PUSH2 0x15D SWAP2 SWAP1 DUP2 MLOAD DUP2 MSTORE PUSH1 0x20 DUP1 DUP4 ADD MLOAD SWAP1 DUP3 ADD MSTORE PUSH1 0x40 DUP1 DUP4 ADD MLOAD SWAP1 DUP3 ADD MSTORE PUSH1 0x60 SWAP2 DUP3 ADD MLOAD SWAP2 DUP2 ADD SWAP2 SWAP1 SWAP2 MSTORE PUSH1 0x80 ADD SWAP1 JUMP JUMPDEST PUSH2 0x1C6 PUSH2 0x308 CALLDATASIZE PUSH1 0x4 PUSH2 0x1DE3 JUMP JUMPDEST PUSH2 0x1B3E JUMP JUMPDEST PUSH1 0x60 PUSH1 0xC DUP1 SLOAD DUP1 PUSH1 0x20 MUL PUSH1 0x20 ADD PUSH1 0x40 MLOAD SWAP1 DUP2 ADD PUSH1 0x40 MSTORE DUP1 SWAP3 SWAP2 SWAP1 DUP2 DUP2 MSTORE PUSH1 0x20 ADD PUSH1 0x0 SWAP1 JUMPDEST DUP3 DUP3 LT ISZERO PUSH2 0x395 JUMPI DUP4 DUP3 SWAP1 PUSH1 0x0 MSTORE PUSH1 0x20 PUSH1 0x0 KECCAK256 SWAP1 PUSH1 0x5 MUL ADD PUSH1 0x40 MLOAD DUP1 PUSH1 0xA0 ADD PUSH1 0x40 MSTORE SWAP1 DUP2 PUSH1 0x0 DUP3 ADD SLOAD DUP2 MSTORE PUSH1 0x20 ADD PUSH1 0x1 DUP3 ADD SLOAD DUP2 MSTORE PUSH1 0x20 ADD PUSH1 0x2 DUP3 ADD SLOAD DUP2 MSTORE PUSH1 0x20 ADD PUSH1 0x3 DUP3 ADD SLOAD DUP2 MSTORE PUSH1 0x20 ADD PUSH1 0x4 DUP3 ADD SLOAD DUP2 MSTORE POP POP DUP2 MSTORE PUSH1 0x20 ADD SWAP1 PUSH1 0x1 ADD SWAP1 PUSH2 0x331 JUMP JUMPDEST POP POP POP POP SWAP1 POP SWAP1 JUMP JUMPDEST CALLER PUSH1 0x0 SWAP1 DUP2 MSTORE PUSH1 0xA PUSH1 0x20 MSTORE PUSH1 0x40 SWAP1 KECCAK256 SLOAD PUSH1 0xFF AND PUSH2 0x3FE JUMPI PUSH1 0x40 MLOAD PUSH3 0x461BCD PUSH1 0xE5 SHL DUP2 MSTORE PUSH1 0x20 PUSH1 0x4 DUP3 ADD MSTORE PUSH1 0x19 PUSH1 0x24 DUP3 ADD MSTORE PUSH25 0x2624A723A79D102737BA1030B71030B1BA34BB32903AB9B2B9 PUSH1 0x39 SHL PUSH1 0x44 DUP3 ADD MSTORE PUSH1 0x64 ADD JUMPDEST PUSH1 0x40 MLOAD DUP1 SWAP2 SUB SWAP1 REVERT JUMPDEST PUSH1 0x4 SLOAD PUSH2 0x40D PUSH2 0xE10 TIMESTAMP PUSH2 0x1E76 JUMP JUMPDEST GT ISZERO DUP1 ISZERO PUSH2 0x428 JUMPI POP PUSH1 0x3 SLOAD PUSH2 0x425 PUSH2 0xE10 TIMESTAMP PUSH2 0x1E76 JUMP JUMPDEST LT ISZERO JUMPDEST PUSH2 0x444 JUMPI PUSH1 0x40 MLOAD PUSH3 0x461BCD PUSH1 0xE5 SHL DUP2 MSTORE PUSH1 0x4 ADD PUSH2 0x3F5 SWAP1 PUSH2 0x1E98 JUMP JUMPDEST CALLER PUSH1 0x0 SWAP1 DUP2 MSTORE PUSH1 0x9 PUSH1 0x20 SWAP1 DUP2 MSTORE PUSH1 0x40 SWAP2 DUP3 SWAP1 KECCAK256 DUP3 MLOAD PUSH1 0x80 DUP2 ADD DUP5 MSTORE DUP2 SLOAD DUP2 MSTORE PUSH1 0x1 DUP3 ADD SLOAD SWAP3 DUP2 ADD SWAP3 SWAP1 SWAP3 MSTORE PUSH1 0x2 DUP2 ADD SLOAD SWAP3 DUP3 ADD SWAP3 SWAP1 SWAP3 MSTORE PUSH1 0x3 SWAP1 SWAP2 ADD SLOAD PUSH1 0x60 DUP3 ADD MSTORE PUSH1 0xC SLOAD ISZERO PUSH2 0x529 JUMPI PUSH1 0xC DUP1 SLOAD PUSH1 0x0 SWAP2 SWAP1 PUSH2 0x4A2 SWAP1 PUSH1 0x1 SWAP1 PUSH2 0x1EEC JUMP JUMPDEST DUP2 SLOAD DUP2 LT PUSH2 0x4B2 JUMPI PUSH2 0x4B2 PUSH2 0x1EFF JUMP JUMPDEST SWAP1 PUSH1 0x0 MSTORE PUSH1 0x20 PUSH1 0x0 KECCAK256 SWAP1 PUSH1 0x5 MUL ADD PUSH1 0x40 MLOAD DUP1 PUSH1 0xA0 ADD PUSH1 0x40 MSTORE SWAP1 DUP2 PUSH1 0x0 DUP3 ADD SLOAD DUP2 MSTORE PUSH1 0x20 ADD PUSH1 0x1 DUP3 ADD SLOAD DUP2 MSTORE PUSH1 0x20 ADD PUSH1 0x2 DUP3 ADD SLOAD DUP2 MSTORE PUSH1 0x20 ADD PUSH1 0x3 DUP3 ADD SLOAD DUP2 MSTORE PUSH1 0x20 ADD PUSH1 0x4 DUP3 ADD SLOAD DUP2 MSTORE POP POP SWAP1 POP DUP1 PUSH1 0x20 ADD MLOAD DUP3 PUSH1 0x60 ADD MLOAD LT ISZERO PUSH2 0x527 JUMPI PUSH1 0x40 MLOAD PUSH3 0x461BCD PUSH1 0xE5 SHL DUP2 MSTORE PUSH1 0x4 ADD PUSH2 0x3F5 SWAP1 PUSH2 0x1F15 JUMP JUMPDEST POP JUMPDEST PUSH2 0x531 PUSH2 0x1BB7 JUMP JUMPDEST PUSH1 0x0 DUP3 GT PUSH2 0x551 JUMPI PUSH1 0x40 MLOAD PUSH3 0x461BCD PUSH1 0xE5 SHL DUP2 MSTORE PUSH1 0x4 ADD PUSH2 0x3F5 SWAP1 PUSH2 0x1F88 JUMP JUMPDEST CALLER PUSH1 0x0 DUP2 DUP2 MSTORE PUSH1 0x9 PUSH1 0x20 MSTORE PUSH1 0x40 SWAP1 KECCAK256 DUP1 SLOAD DUP5 GT ISZERO PUSH2 0x5B1 JUMPI PUSH1 0x40 MLOAD PUSH3 0x461BCD PUSH1 0xE5 SHL DUP2 MSTORE PUSH1 0x20 PUSH1 0x4 DUP3 ADD MSTORE PUSH1 0x1B PUSH1 0x24 DUP3 ADD MSTORE PUSH32 0x4C494E474F3A20496E73756666696369656E742062616C616E63650000000000 PUSH1 0x44 DUP3 ADD MSTORE PUSH1 0x64 ADD PUSH2 0x3F5 JUMP JUMPDEST DUP1 PUSH1 0x1 ADD SLOAD PUSH1 0x5 PUSH1 0x0 DUP3 DUP3 SLOAD PUSH2 0x5C7 SWAP2 SWAP1 PUSH2 0x1EEC JUMP JUMPDEST SWAP1 SWAP2 SSTORE POP PUSH2 0x5D9 SWAP1 POP PUSH2 0xE10 TIMESTAMP PUSH2 0x1E76 JUMP JUMPDEST PUSH1 0x4 SLOAD PUSH2 0x5E6 SWAP2 SWAP1 PUSH2 0x1EEC JUMP JUMPDEST DUP2 SLOAD PUSH2 0x5F2 SWAP2 SWAP1 PUSH2 0x1FBF JUMP JUMPDEST DUP2 PUSH1 0x1 ADD PUSH1 0x0 DUP3 DUP3 SLOAD PUSH2 0x605 SWAP2 SWAP1 PUSH2 0x1EEC JUMP JUMPDEST SWAP1 SWAP2 SSTORE POP POP DUP1 SLOAD DUP5 SWAP1 DUP3 SWAP1 PUSH1 0x0 SWAP1 PUSH2 0x61E SWAP1 DUP5 SWAP1 PUSH2 0x1EEC JUMP JUMPDEST SWAP1 SWAP2 SSTORE POP PUSH2 0x630 SWAP1 POP PUSH2 0xE10 TIMESTAMP PUSH2 0x1E76 JUMP JUMPDEST PUSH1 0x4 SLOAD PUSH2 0x63D SWAP2 SWAP1 PUSH2 0x1EEC JUMP JUMPDEST DUP2 SLOAD PUSH2 0x649 SWAP2 SWAP1 PUSH2 0x1FBF JUMP JUMPDEST DUP2 PUSH1 0x1 ADD PUSH1 0x0 DUP3 DUP3 SLOAD PUSH2 0x65C SWAP2 SWAP1 PUSH2 0x1FD6 JUMP JUMPDEST SWAP1 SWAP2 SSTORE POP PUSH2 0x66E SWAP1 POP PUSH2 0xE10 TIMESTAMP PUSH2 0x1E76 JUMP JUMPDEST PUSH1 0x2 DUP3 ADD SSTORE PUSH1 0x1 DUP2 ADD SLOAD PUSH1 0x5 DUP1 SLOAD PUSH1 0x0 SWAP1 PUSH2 0x68A SWAP1 DUP5 SWAP1 PUSH2 0x1FD6 JUMP JUMPDEST SWAP3 POP POP DUP2 SWAP1 SSTORE POP DUP4 PUSH1 0x6 PUSH1 0x0 DUP3 DUP3 SLOAD PUSH2 0x6A3 SWAP2 SWAP1 PUSH2 0x1EEC JUMP JUMPDEST SWAP1 SWAP2 SSTORE POP POP PUSH1 0x8 SLOAD PUSH1 0x0 SWAP1 PUSH2 0x2710 SWAP1 PUSH2 0x6BC SWAP1 DUP8 PUSH2 0x1FBF JUMP JUMPDEST PUSH2 0x6C6 SWAP2 SWAP1 PUSH2 0x1E76 JUMP JUMPDEST PUSH1 0x7 SLOAD SWAP1 SWAP2 POP PUSH1 0x0 SWAP1 PUSH2 0x6E2 SWAP1 PUSH1 0x1 PUSH1 0x1 PUSH1 0xA0 SHL SUB AND DUP4 PUSH2 0x1C10 JUMP JUMPDEST SWAP1 POP DUP1 PUSH2 0x731 JUMPI PUSH1 0x40 MLOAD PUSH3 0x461BCD PUSH1 0xE5 SHL DUP2 MSTORE PUSH1 0x20 PUSH1 0x4 DUP3 ADD MSTORE PUSH1 0x1C PUSH1 0x24 DUP3 ADD MSTORE PUSH32 0x4C494E474F3A2046656520636F6C6C656374696F6E206661696C656400000000 PUSH1 0x44 DUP3 ADD MSTORE PUSH1 0x64 ADD PUSH2 0x3F5 JUMP JUMPDEST PUSH1 0x0 PUSH2 0x746 DUP6 PUSH2 0x741 DUP6 DUP11 PUSH2 0x1EEC JUMP JUMPDEST PUSH2 0x1C10 JUMP JUMPDEST SWAP1 POP DUP1 PUSH2 0x765 JUMPI PUSH1 0x40 MLOAD PUSH3 0x461BCD PUSH1 0xE5 SHL DUP2 MSTORE PUSH1 0x4 ADD PUSH2 0x3F5 SWAP1 PUSH2 0x1FE9 JUMP JUMPDEST DUP5 PUSH1 0x1 PUSH1 0x1 PUSH1 0xA0 SHL SUB AND PUSH32 0x884EDAD9CE6FA2440D8A54CC123490EB96D2768479D49FF9C7366125A9424364 DUP9 PUSH1 0x40 MLOAD PUSH2 0x7A0 SWAP2 DUP2 MSTORE PUSH1 0x20 ADD SWAP1 JUMP JUMPDEST PUSH1 0x40 MLOAD DUP1 SWAP2 SUB SWAP1 LOG2 POP POP POP POP POP PUSH2 0x7B6 PUSH1 0x1 DUP1 SSTORE JUMP JUMPDEST POP POP JUMP JUMPDEST CALLER PUSH1 0x0 SWAP1 DUP2 MSTORE PUSH1 0xA PUSH1 0x20 MSTORE PUSH1 0x40 SWAP1 KECCAK256 SLOAD PUSH1 0xFF AND PUSH2 0x815 JUMPI PUSH1 0x40 MLOAD PUSH3 0x461BCD PUSH1 0xE5 SHL DUP2 MSTORE PUSH1 0x20 PUSH1 0x4 DUP3 ADD MSTORE PUSH1 0x19 PUSH1 0x24 DUP3 ADD MSTORE PUSH25 0x2624A723A79D102737BA1030B71030B1BA34BB32903AB9B2B9 PUSH1 0x39 SHL PUSH1 0x44 DUP3 ADD MSTORE PUSH1 0x64 ADD PUSH2 0x3F5 JUMP JUMPDEST PUSH1 0x4 SLOAD PUSH2 0x824 PUSH2 0xE10 TIMESTAMP PUSH2 0x1E76 JUMP JUMPDEST GT ISZERO DUP1 ISZERO PUSH2 0x83F JUMPI POP PUSH1 0x3 SLOAD PUSH2 0x83C PUSH2 0xE10 TIMESTAMP PUSH2 0x1E76 JUMP JUMPDEST LT ISZERO JUMPDEST PUSH2 0x85B JUMPI PUSH1 0x40 MLOAD PUSH3 0x461BCD PUSH1 0xE5 SHL DUP2 MSTORE PUSH1 0x4 ADD PUSH2 0x3F5 SWAP1 PUSH2 0x1E98 JUMP JUMPDEST PUSH2 0x863 PUSH2 0x1BB7 JUMP JUMPDEST CALLER PUSH1 0x0 DUP2 DUP2 MSTORE PUSH1 0x9 PUSH1 0x20 MSTORE PUSH1 0x40 SWAP1 KECCAK256 PUSH1 0x3 DUP1 DUP3 ADD SLOAD SWAP1 SLOAD GT PUSH2 0x8C0 JUMPI PUSH1 0x40 MLOAD PUSH3 0x461BCD PUSH1 0xE5 SHL DUP2 MSTORE PUSH1 0x20 PUSH1 0x4 DUP3 ADD MSTORE PUSH1 0x16 PUSH1 0x24 DUP3 ADD MSTORE PUSH22 0x13125391D3CE88105B1C9958591E4818DB185A5B5959 PUSH1 0x52 SHL PUSH1 0x44 DUP3 ADD MSTORE PUSH1 0x64 ADD PUSH2 0x3F5 JUMP JUMPDEST PUSH1 0x0 DUP1 PUSH1 0x0 PUSH1 0xC DUP1 SLOAD SWAP1 POP PUSH1 0x1 EQ DUP1 PUSH2 0x91B JUMPI POP PUSH1 0xC SLOAD PUSH1 0x1 LT DUP1 ISZERO PUSH2 0x91B JUMPI POP PUSH1 0xC DUP1 SLOAD PUSH2 0x8F1 SWAP1 PUSH1 0x1 SWAP1 PUSH2 0x1EEC JUMP JUMPDEST DUP2 SLOAD DUP2 LT PUSH2 0x901 JUMPI PUSH2 0x901 PUSH2 0x1EFF JUMP JUMPDEST SWAP1 PUSH1 0x0 MSTORE PUSH1 0x20 PUSH1 0x0 KECCAK256 SWAP1 PUSH1 0x5 MUL ADD PUSH1 0x0 ADD SLOAD DUP5 PUSH1 0x3 ADD SLOAD LT ISZERO JUMPDEST ISZERO PUSH2 0xA3C JUMPI PUSH1 0xC DUP1 SLOAD PUSH1 0x0 SWAP2 SWAP1 PUSH2 0x934 SWAP1 PUSH1 0x1 SWAP1 PUSH2 0x1EEC JUMP JUMPDEST DUP2 SLOAD DUP2 LT PUSH2 0x944 JUMPI PUSH2 0x944 PUSH2 0x1EFF JUMP JUMPDEST SWAP1 PUSH1 0x0 MSTORE PUSH1 0x20 PUSH1 0x0 KECCAK256 SWAP1 PUSH1 0x5 MUL ADD PUSH1 0x3 ADD SLOAD GT ISZERO PUSH2 0xA37 JUMPI PUSH1 0x1 DUP1 DUP6 ADD SLOAD PUSH1 0xC DUP1 SLOAD SWAP2 SWAP5 POP SWAP2 PUSH2 0x973 SWAP2 PUSH2 0x1EEC JUMP JUMPDEST DUP2 SLOAD DUP2 LT PUSH2 0x983 JUMPI PUSH2 0x983 PUSH2 0x1EFF JUMP JUMPDEST SWAP1 PUSH1 0x0 MSTORE PUSH1 0x20 PUSH1 0x0 KECCAK256 SWAP1 PUSH1 0x5 MUL ADD PUSH1 0x3 ADD SLOAD PUSH1 0xC PUSH1 0x1 PUSH1 0xC DUP1 SLOAD SWAP1 POP PUSH2 0x9A9 SWAP2 SWAP1 PUSH2 0x1EEC JUMP JUMPDEST DUP2 SLOAD DUP2 LT PUSH2 0x9B9 JUMPI PUSH2 0x9B9 PUSH2 0x1EFF JUMP JUMPDEST SWAP1 PUSH1 0x0 MSTORE PUSH1 0x20 PUSH1 0x0 KECCAK256 SWAP1 PUSH1 0x5 MUL ADD PUSH1 0x2 ADD SLOAD DUP4 PUSH2 0x9D6 SWAP2 SWAP1 PUSH2 0x1FBF JUMP JUMPDEST PUSH2 0x9E0 SWAP2 SWAP1 PUSH2 0x1E76 JUMP JUMPDEST SWAP1 POP PUSH2 0x9EC DUP2 DUP5 PUSH2 0x1FD6 JUMP JUMPDEST PUSH1 0xC DUP1 SLOAD SWAP2 SWAP5 POP DUP3 SWAP2 PUSH2 0xA01 SWAP1 PUSH1 0x1 SWAP1 PUSH2 0x1EEC JUMP JUMPDEST DUP2 SLOAD DUP2 LT PUSH2 0xA11 JUMPI PUSH2 0xA11 PUSH2 0x1EFF JUMP JUMPDEST SWAP1 PUSH1 0x0 MSTORE PUSH1 0x20 PUSH1 0x0 KECCAK256 SWAP1 PUSH1 0x5 MUL ADD PUSH1 0x4 ADD PUSH1 0x0 DUP3 DUP3 SLOAD PUSH2 0xA31 SWAP2 SWAP1 PUSH2 0x1EEC JUMP JUMPDEST SWAP1 SWAP2 SSTORE POP POP JUMPDEST PUSH2 0xC0B JUMP JUMPDEST PUSH1 0x0 JUMPDEST PUSH1 0xC SLOAD DUP2 LT ISZERO PUSH2 0xC09 JUMPI DUP5 PUSH1 0x3 ADD SLOAD PUSH1 0xC DUP3 DUP2 SLOAD DUP2 LT PUSH2 0xA61 JUMPI PUSH2 0xA61 PUSH2 0x1EFF JUMP JUMPDEST SWAP1 PUSH1 0x0 MSTORE PUSH1 0x20 PUSH1 0x0 KECCAK256 SWAP1 PUSH1 0x5 MUL ADD PUSH1 0x1 ADD SLOAD LT ISZERO DUP1 ISZERO PUSH2 0xAA5 JUMPI POP PUSH1 0x0 PUSH1 0xC DUP3 DUP2 SLOAD DUP2 LT PUSH2 0xA91 JUMPI PUSH2 0xA91 PUSH2 0x1EFF JUMP JUMPDEST SWAP1 PUSH1 0x0 MSTORE PUSH1 0x20 PUSH1 0x0 KECCAK256 SWAP1 PUSH1 0x5 MUL ADD PUSH1 0x3 ADD SLOAD GT JUMPDEST ISZERO PUSH2 0xBF7 JUMPI PUSH1 0x0 SWAP3 POP PUSH1 0x0 SWAP2 POP DUP5 PUSH1 0x3 ADD SLOAD PUSH1 0xC DUP3 DUP2 SLOAD DUP2 LT PUSH2 0xACA JUMPI PUSH2 0xACA PUSH2 0x1EFF JUMP JUMPDEST SWAP1 PUSH1 0x0 MSTORE PUSH1 0x20 PUSH1 0x0 KECCAK256 SWAP1 PUSH1 0x5 MUL ADD PUSH1 0x0 ADD SLOAD GT PUSH2 0xAED JUMPI DUP5 PUSH1 0x1 ADD SLOAD SWAP3 POP PUSH2 0xB50 JUMP JUMPDEST PUSH1 0xC DUP2 DUP2 SLOAD DUP2 LT PUSH2 0xB00 JUMPI PUSH2 0xB00 PUSH2 0x1EFF JUMP JUMPDEST SWAP1 PUSH1 0x0 MSTORE PUSH1 0x20 PUSH1 0x0 KECCAK256 SWAP1 PUSH1 0x5 MUL ADD PUSH1 0x0 ADD SLOAD PUSH1 0xC DUP3 DUP2 SLOAD DUP2 LT PUSH2 0xB25 JUMPI PUSH2 0xB25 PUSH2 0x1EFF JUMP JUMPDEST SWAP1 PUSH1 0x0 MSTORE PUSH1 0x20 PUSH1 0x0 KECCAK256 SWAP1 PUSH1 0x5 MUL ADD PUSH1 0x1 ADD SLOAD PUSH2 0xB41 SWAP2 SWAP1 PUSH2 0x1EEC JUMP JUMPDEST DUP6 SLOAD PUSH2 0xB4D SWAP2 SWAP1 PUSH2 0x1FBF JUMP JUMPDEST SWAP3 POP JUMPDEST PUSH1 0xC DUP2 DUP2 SLOAD DUP2 LT PUSH2 0xB63 JUMPI PUSH2 0xB63 PUSH2 0x1EFF JUMP JUMPDEST SWAP1 PUSH1 0x0 MSTORE PUSH1 0x20 PUSH1 0x0 KECCAK256 SWAP1 PUSH1 0x5 MUL ADD PUSH1 0x3 ADD SLOAD PUSH1 0xC DUP3 DUP2 SLOAD DUP2 LT PUSH2 0xB88 JUMPI PUSH2 0xB88 PUSH2 0x1EFF JUMP JUMPDEST SWAP1 PUSH1 0x0 MSTORE PUSH1 0x20 PUSH1 0x0 KECCAK256 SWAP1 PUSH1 0x5 MUL ADD PUSH1 0x2 ADD SLOAD DUP5 PUSH2 0xBA5 SWAP2 SWAP1 PUSH2 0x1FBF JUMP JUMPDEST PUSH2 0xBAF SWAP2 SWAP1 PUSH2 0x1E76 JUMP JUMPDEST SWAP2 POP PUSH2 0xBBB DUP3 DUP6 PUSH2 0x1FD6 JUMP JUMPDEST SWAP4 POP DUP2 PUSH1 0xC DUP3 DUP2 SLOAD DUP2 LT PUSH2 0xBD1 JUMPI PUSH2 0xBD1 PUSH2 0x1EFF JUMP JUMPDEST SWAP1 PUSH1 0x0 MSTORE PUSH1 0x20 PUSH1 0x0 KECCAK256 SWAP1 PUSH1 0x5 MUL ADD PUSH1 0x4 ADD PUSH1 0x0 DUP3 DUP3 SLOAD PUSH2 0xBF1 SWAP2 SWAP1 PUSH2 0x1EEC JUMP JUMPDEST SWAP1 SWAP2 SSTORE POP POP JUMPDEST DUP1 PUSH2 0xC01 DUP2 PUSH2 0x2020 JUMP JUMPDEST SWAP2 POP POP PUSH2 0xA3F JUMP JUMPDEST POP JUMPDEST PUSH1 0x0 DUP4 GT PUSH2 0xC51 JUMPI PUSH1 0x40 MLOAD PUSH3 0x461BCD PUSH1 0xE5 SHL DUP2 MSTORE PUSH1 0x20 PUSH1 0x4 DUP3 ADD MSTORE PUSH1 0x13 PUSH1 0x24 DUP3 ADD MSTORE PUSH19 0x4C494E474F3A205A65726F2072657761726473 PUSH1 0x68 SHL PUSH1 0x44 DUP3 ADD MSTORE PUSH1 0x64 ADD PUSH2 0x3F5 JUMP JUMPDEST PUSH1 0x0 PUSH1 0x5 SLOAD GT PUSH2 0xC62 JUMPI PUSH1 0x0 PUSH2 0xC68 JUMP JUMPDEST DUP4 PUSH1 0x1 ADD SLOAD JUMPDEST PUSH1 0x5 PUSH1 0x0 DUP3 DUP3 SLOAD PUSH2 0xC79 SWAP2 SWAP1 PUSH2 0x1EEC JUMP JUMPDEST SWAP1 SWAP2 SSTORE POP POP PUSH1 0x3 SLOAD PUSH1 0x4 SLOAD PUSH2 0xC8E SWAP2 SWAP1 PUSH2 0x1EEC JUMP JUMPDEST DUP5 SLOAD PUSH2 0xC9A SWAP2 SWAP1 PUSH2 0x1FBF JUMP JUMPDEST PUSH1 0x1 DUP6 ADD DUP2 SWAP1 SSTORE PUSH1 0x5 DUP1 SLOAD PUSH1 0x0 SWAP1 PUSH2 0xCB3 SWAP1 DUP5 SWAP1 PUSH2 0x1FD6 JUMP JUMPDEST SWAP1 SWAP2 SSTORE POP PUSH2 0xCC5 SWAP1 POP PUSH2 0xE10 TIMESTAMP PUSH2 0x1E76 JUMP JUMPDEST PUSH1 0x3 DUP6 ADD SSTORE PUSH1 0x0 PUSH2 0xCD6 DUP7 DUP6 PUSH2 0x1C10 JUMP JUMPDEST SWAP1 POP DUP1 PUSH2 0xCF5 JUMPI PUSH1 0x40 MLOAD PUSH3 0x461BCD PUSH1 0xE5 SHL DUP2 MSTORE PUSH1 0x4 ADD PUSH2 0x3F5 SWAP1 PUSH2 0x1FE9 JUMP JUMPDEST DUP6 PUSH1 0x1 PUSH1 0x1 PUSH1 0xA0 SHL SUB AND PUSH32 0x47CEE97CB7ACD717B3C0AA1435D004CD5B3C8C57D70DBCEB4E4458BBD60E39D4 DUP6 PUSH1 0x40 MLOAD PUSH2 0xD30 SWAP2 DUP2 MSTORE PUSH1 0x20 ADD SWAP1 JUMP JUMPDEST PUSH1 0x40 MLOAD DUP1 SWAP2 SUB SWAP1 LOG2 POP POP POP POP POP POP PUSH2 0xD47 PUSH1 0x1 DUP1 SSTORE JUMP JUMPDEST JUMP JUMPDEST PUSH2 0xD51 PUSH2 0x1CB2 JUMP JUMPDEST PUSH1 0xD DUP2 SWAP1 SSTORE PUSH1 0x40 MLOAD DUP2 DUP2 MSTORE PUSH32 0x227EB5469F2250DBA512AFC74B3A4AA5EAC62196DED8694CFE83B3285435FBC5 SWAP1 PUSH1 0x20 ADD JUMPDEST PUSH1 0x40 MLOAD DUP1 SWAP2 SUB SWAP1 LOG1 POP JUMP JUMPDEST PUSH2 0xD95 PUSH2 0x1CB2 JUMP JUMPDEST PUSH1 0x0 DUP2 GT PUSH2 0xDE5 JUMPI PUSH1 0x40 MLOAD PUSH3 0x461BCD PUSH1 0xE5 SHL DUP2 MSTORE PUSH1 0x20 PUSH1 0x4 DUP3 ADD MSTORE PUSH1 0x1A PUSH1 0x24 DUP3 ADD MSTORE PUSH32 0x4C494E474F3A20536C6F742063616E6E6F74206265207A65726F000000000000 PUSH1 0x44 DUP3 ADD MSTORE PUSH1 0x64 ADD PUSH2 0x3F5 JUMP JUMPDEST PUSH1 0x2 DUP2 SWAP1 SSTORE PUSH1 0x40 MLOAD DUP2 DUP2 MSTORE PUSH32 0xB3EE65C0C15104083E90F55B359836720E3D2DFD10E8203A69E562453E8BF2F5 SWAP1 PUSH1 0x20 ADD PUSH2 0xD82 JUMP JUMPDEST PUSH2 0xE22 PUSH2 0x1CB2 JUMP JUMPDEST PUSH1 0x1 PUSH1 0x1 PUSH1 0xA0 SHL SUB DUP2 AND PUSH2 0xE6E JUMPI PUSH1 0x40 MLOAD PUSH3 0x461BCD PUSH1 0xE5 SHL DUP2 MSTORE PUSH1 0x20 PUSH1 0x4 DUP3 ADD MSTORE PUSH1 0x13 PUSH1 0x24 DUP3 ADD MSTORE PUSH19 0x4C494E474F3A205A65726F2041646472657373 PUSH1 0x68 SHL PUSH1 0x44 DUP3 ADD MSTORE PUSH1 0x64 ADD PUSH2 0x3F5 JUMP JUMPDEST PUSH1 0x7 DUP1 SLOAD PUSH1 0x1 PUSH1 0x1 PUSH1 0xA0 SHL SUB NOT AND PUSH1 0x1 PUSH1 0x1 PUSH1 0xA0 SHL SUB DUP4 AND SWAP1 DUP2 OR SWAP1 SWAP2 SSTORE PUSH1 0x40 MLOAD SWAP1 DUP2 MSTORE PUSH32 0x97C79B3848E51F57983AC89E4403452655C8D83CEBA8199011DE63A74F60D1A7 SWAP1 PUSH1 0x20 ADD PUSH2 0xD82 JUMP JUMPDEST PUSH2 0xEC4 PUSH2 0x1CB2 JUMP JUMPDEST PUSH2 0xD47 PUSH1 0x0 PUSH2 0x1D0C JUMP JUMPDEST PUSH2 0xED6 PUSH2 0x1CB2 JUMP JUMPDEST PUSH2 0xEDE PUSH2 0x1BB7 JUMP JUMPDEST PUSH1 0x0 DUP1 JUMPDEST PUSH1 0xC SLOAD DUP2 LT ISZERO PUSH2 0xFA0 JUMPI PUSH1 0xD SLOAD PUSH1 0xC DUP3 DUP2 SLOAD DUP2 LT PUSH2 0xF02 JUMPI PUSH2 0xF02 PUSH2 0x1EFF JUMP JUMPDEST SWAP1 PUSH1 0x0 MSTORE PUSH1 0x20 PUSH1 0x0 KECCAK256 SWAP1 PUSH1 0x5 MUL ADD PUSH1 0x1 ADD SLOAD PUSH2 0xE10 TIMESTAMP PUSH2 0xF22 SWAP2 SWAP1 PUSH2 0x1E76 JUMP JUMPDEST PUSH2 0xF2C SWAP2 SWAP1 PUSH2 0x1EEC JUMP JUMPDEST LT PUSH2 0xF8E JUMPI PUSH1 0xC DUP2 DUP2 SLOAD DUP2 LT PUSH2 0xF44 JUMPI PUSH2 0xF44 PUSH2 0x1EFF JUMP JUMPDEST SWAP1 PUSH1 0x0 MSTORE PUSH1 0x20 PUSH1 0x0 KECCAK256 SWAP1 PUSH1 0x5 MUL ADD PUSH1 0x4 ADD SLOAD DUP3 PUSH2 0xF61 SWAP2 SWAP1 PUSH2 0x1FD6 JUMP JUMPDEST SWAP2 POP PUSH1 0x0 PUSH1 0xC DUP3 DUP2 SLOAD DUP2 LT PUSH2 0xF78 JUMPI PUSH2 0xF78 PUSH2 0x1EFF JUMP JUMPDEST SWAP1 PUSH1 0x0 MSTORE PUSH1 0x20 PUSH1 0x0 KECCAK256 SWAP1 PUSH1 0x5 MUL ADD PUSH1 0x4 ADD DUP2 SWAP1 SSTORE POP JUMPDEST DUP1 PUSH2 0xF98 DUP2 PUSH2 0x2020 JUMP JUMPDEST SWAP2 POP POP PUSH2 0xEE2 JUMP JUMPDEST POP PUSH1 0x0 DUP2 GT PUSH2 0xFFF JUMPI PUSH1 0x40 MLOAD PUSH3 0x461BCD PUSH1 0xE5 SHL DUP2 MSTORE PUSH1 0x20 PUSH1 0x4 DUP3 ADD MSTORE PUSH1 0x25 PUSH1 0x24 DUP3 ADD MSTORE PUSH32 0x4C494E474F3A205A65726F20746F6B656E7320617661696C61626C6520746F20 PUSH1 0x44 DUP3 ADD MSTORE PUSH5 0x636C61696D PUSH1 0xD8 SHL PUSH1 0x64 DUP3 ADD MSTORE PUSH1 0x84 ADD PUSH2 0x3F5 JUMP JUMPDEST PUSH1 0x0 PUSH2 0x101C PUSH2 0x1016 PUSH1 0x0 SLOAD PUSH1 0x1 PUSH1 0x1 PUSH1 0xA0 SHL SUB AND SWAP1 JUMP JUMPDEST DUP4 PUSH2 0x1C10 JUMP JUMPDEST SWAP1 POP DUP1 PUSH2 0x107C JUMPI PUSH1 0x40 MLOAD PUSH3 0x461BCD PUSH1 0xE5 SHL DUP2 MSTORE PUSH1 0x20 PUSH1 0x4 DUP3 ADD MSTORE PUSH1 0x28 PUSH1 0x24 DUP3 ADD MSTORE PUSH32 0x4C494E474F3A204661696C656420746F207472616E7366657220636C61696D65 PUSH1 0x44 DUP3 ADD MSTORE PUSH8 0x6420746F6B656E73 PUSH1 0xC0 SHL PUSH1 0x64 DUP3 ADD MSTORE PUSH1 0x84 ADD PUSH2 0x3F5 JUMP JUMPDEST PUSH1 0x0 SLOAD PUSH1 0x1 PUSH1 0x1 PUSH1 0xA0 SHL SUB AND PUSH1 0x1 PUSH1 0x1 PUSH1 0xA0 SHL SUB AND PUSH32 0x9538D979992CC86B9ED8D06FB1974D5626861F234058E3B0CED24898D4A499DC DUP4 PUSH1 0x40 MLOAD PUSH2 0x10C2 SWAP2 DUP2 MSTORE PUSH1 0x20 ADD SWAP1 JUMP JUMPDEST PUSH1 0x40 MLOAD DUP1 SWAP2 SUB SWAP1 LOG2 POP POP PUSH2 0xD47 PUSH1 0x1 DUP1 SSTORE JUMP JUMPDEST PUSH2 0x10DD PUSH2 0x1CB2 JUMP JUMPDEST PUSH1 0x0 DUP2 GT PUSH2 0x10FD JUMPI PUSH1 0x40 MLOAD PUSH3 0x461BCD PUSH1 0xE5 SHL DUP2 MSTORE PUSH1 0x4 ADD PUSH2 0x3F5 SWAP1 PUSH2 0x1F88 JUMP JUMPDEST PUSH2 0x1109 PUSH2 0xE10 TIMESTAMP PUSH2 0x1E76 JUMP JUMPDEST PUSH1 0x4 SLOAD GT ISZERO PUSH2 0x115A JUMPI PUSH1 0x40 MLOAD PUSH3 0x461BCD PUSH1 0xE5 SHL DUP2 MSTORE PUSH1 0x20 PUSH1 0x4 DUP3 ADD MSTORE PUSH1 0x1D PUSH1 0x24 DUP3 ADD MSTORE PUSH32 0x4C494E474F3A2043757272656E7420736C6F7420697320616374697665000000 PUSH1 0x44 DUP3 ADD MSTORE PUSH1 0x64 ADD PUSH2 0x3F5 JUMP JUMPDEST PUSH1 0x0 PUSH32 0x0 PUSH1 0x1 PUSH1 0x1 PUSH1 0xA0 SHL SUB AND PUSH4 0xDD62ED3E PUSH2 0x119D PUSH1 0x0 SLOAD PUSH1 0x1 PUSH1 0x1 PUSH1 0xA0 SHL SUB AND SWAP1 JUMP JUMPDEST PUSH1 0x40 MLOAD PUSH1 0x1 PUSH1 0x1 PUSH1 0xE0 SHL SUB NOT PUSH1 0xE0 DUP5 SWAP1 SHL AND DUP2 MSTORE PUSH1 0x1 PUSH1 0x1 PUSH1 0xA0 SHL SUB SWAP1 SWAP2 AND PUSH1 0x4 DUP3 ADD MSTORE ADDRESS PUSH1 0x24 DUP3 ADD MSTORE PUSH1 0x44 ADD PUSH1 0x20 PUSH1 0x40 MLOAD DUP1 DUP4 SUB DUP2 DUP7 GAS STATICCALL ISZERO DUP1 ISZERO PUSH2 0x11E7 JUMPI RETURNDATASIZE PUSH1 0x0 DUP1 RETURNDATACOPY RETURNDATASIZE PUSH1 0x0 REVERT JUMPDEST POP POP POP POP PUSH1 0x40 MLOAD RETURNDATASIZE PUSH1 0x1F NOT PUSH1 0x1F DUP3 ADD AND DUP3 ADD DUP1 PUSH1 0x40 MSTORE POP DUP2 ADD SWAP1 PUSH2 0x120B SWAP2 SWAP1 PUSH2 0x2039 JUMP JUMPDEST SWAP1 POP DUP2 DUP2 LT ISZERO PUSH2 0x125D JUMPI PUSH1 0x40 MLOAD PUSH3 0x461BCD PUSH1 0xE5 SHL DUP2 MSTORE PUSH1 0x20 PUSH1 0x4 DUP3 ADD MSTORE PUSH1 0x1D PUSH1 0x24 DUP3 ADD MSTORE PUSH32 0x4C494E474F3A20496E73756666696369656E7420616C6C6F77616E6365000000 PUSH1 0x44 DUP3 ADD MSTORE PUSH1 0x64 ADD PUSH2 0x3F5 JUMP JUMPDEST PUSH1 0x40 DUP1 MLOAD PUSH1 0xA0 DUP2 ADD DUP3 MSTORE PUSH1 0x3 DUP1 SLOAD DUP3 MSTORE PUSH1 0x4 DUP1 SLOAD PUSH1 0x20 DUP5 ADD SWAP1 DUP2 MSTORE SWAP4 DUP4 ADD DUP7 DUP2 MSTORE PUSH1 0x5 DUP1 SLOAD PUSH1 0x60 DUP7 ADD SWAP1 DUP2 MSTORE PUSH1 0x80 DUP7 ADD DUP10 DUP2 MSTORE PUSH1 0xC DUP1 SLOAD PUSH1 0x1 DUP2 ADD DUP3 SSTORE PUSH1 0x0 SWAP2 SWAP1 SWAP2 MSTORE SWAP7 MLOAD SWAP7 SWAP1 SWAP3 MUL PUSH32 0xDF6966C971051C3D54EC59162606531493A51404A002842F56009D7E5CF4A8C7 DUP2 ADD SWAP7 SWAP1 SWAP7 SSTORE SWAP6 MLOAD PUSH32 0xDF6966C971051C3D54EC59162606531493A51404A002842F56009D7E5CF4A8C8 DUP7 ADD SSTORE SWAP1 MLOAD PUSH32 0xDF6966C971051C3D54EC59162606531493A51404A002842F56009D7E5CF4A8C9 DUP6 ADD SSTORE SWAP4 MLOAD PUSH32 0xDF6966C971051C3D54EC59162606531493A51404A002842F56009D7E5CF4A8CA DUP5 ADD SSTORE SWAP3 MLOAD PUSH32 0xDF6966C971051C3D54EC59162606531493A51404A002842F56009D7E5CF4A8CB SWAP1 SWAP3 ADD SWAP2 SWAP1 SWAP2 SSTORE SWAP1 SLOAD SWAP1 DUP2 SWAP1 SSTORE PUSH1 0x2 SLOAD PUSH2 0x137B SWAP2 PUSH2 0x1FD6 JUMP JUMPDEST PUSH1 0x4 DUP2 SWAP1 SSTORE PUSH1 0x3 SLOAD PUSH2 0x138C SWAP2 PUSH2 0x1EEC JUMP JUMPDEST PUSH1 0x6 SLOAD PUSH2 0x1399 SWAP2 SWAP1 PUSH2 0x1FBF JUMP JUMPDEST PUSH1 0x5 SSTORE PUSH1 0x40 MLOAD DUP3 DUP2 MSTORE PUSH32 0x4DEF474ACA53BF221D07D9AB0F675B3F6D8D2494B8427271BCF43C018EF1EEAD SWAP1 PUSH1 0x20 ADD PUSH1 0x40 MLOAD DUP1 SWAP2 SUB SWAP1 LOG1 PUSH1 0x0 PUSH32 0x0 PUSH1 0x1 PUSH1 0x1 PUSH1 0xA0 SHL SUB AND PUSH4 0x23B872DD PUSH2 0x1412 PUSH1 0x0 SLOAD PUSH1 0x1 PUSH1 0x1 PUSH1 0xA0 SHL SUB AND SWAP1 JUMP JUMPDEST PUSH1 0x40 MLOAD PUSH1 0x1 PUSH1 0x1 PUSH1 0xE0 SHL SUB NOT PUSH1 0xE0 DUP5 SWAP1 SHL AND DUP2 MSTORE PUSH1 0x1 PUSH1 0x1 PUSH1 0xA0 SHL SUB SWAP1 SWAP2 AND PUSH1 0x4 DUP3 ADD MSTORE ADDRESS PUSH1 0x24 DUP3 ADD MSTORE PUSH1 0x44 DUP2 ADD DUP7 SWAP1 MSTORE PUSH1 0x64 ADD PUSH1 0x20 PUSH1 0x40 MLOAD DUP1 DUP4 SUB DUP2 PUSH1 0x0 DUP8 GAS CALL ISZERO DUP1 ISZERO PUSH2 0x1465 JUMPI RETURNDATASIZE PUSH1 0x0 DUP1 RETURNDATACOPY RETURNDATASIZE PUSH1 0x0 REVERT JUMPDEST POP POP POP POP PUSH1 0x40 MLOAD RETURNDATASIZE PUSH1 0x1F NOT PUSH1 0x1F DUP3 ADD AND DUP3 ADD DUP1 PUSH1 0x40 MSTORE POP DUP2 ADD SWAP1 PUSH2 0x1489 SWAP2 SWAP1 PUSH2 0x2052 JUMP JUMPDEST SWAP1 POP DUP1 PUSH2 0x14A8 JUMPI PUSH1 0x40 MLOAD PUSH3 0x461BCD PUSH1 0xE5 SHL DUP2 MSTORE PUSH1 0x4 ADD PUSH2 0x3F5 SWAP1 PUSH2 0x1FE9 JUMP JUMPDEST POP POP POP JUMP JUMPDEST PUSH1 0x60 PUSH1 0xB DUP1 SLOAD DUP1 PUSH1 0x20 MUL PUSH1 0x20 ADD PUSH1 0x40 MLOAD SWAP1 DUP2 ADD PUSH1 0x40 MSTORE DUP1 SWAP3 SWAP2 SWAP1 DUP2 DUP2 MSTORE PUSH1 0x20 ADD DUP3 DUP1 SLOAD DUP1 ISZERO PUSH2 0x1505 JUMPI PUSH1 0x20 MUL DUP3 ADD SWAP2 SWAP1 PUSH1 0x0 MSTORE PUSH1 0x20 PUSH1 0x0 KECCAK256 SWAP1 JUMPDEST DUP2 SLOAD PUSH1 0x1 PUSH1 0x1 PUSH1 0xA0 SHL SUB AND DUP2 MSTORE PUSH1 0x1 SWAP1 SWAP2 ADD SWAP1 PUSH1 0x20 ADD DUP1 DUP4 GT PUSH2 0x14E7 JUMPI JUMPDEST POP POP POP POP POP SWAP1 POP SWAP1 JUMP JUMPDEST PUSH2 0x1517 PUSH2 0x1CB2 JUMP JUMPDEST PUSH2 0x1F4 DUP2 GT ISZERO PUSH2 0x1581 JUMPI PUSH1 0x40 MLOAD PUSH3 0x461BCD PUSH1 0xE5 SHL DUP2 MSTORE PUSH1 0x20 PUSH1 0x4 DUP3 ADD MSTORE PUSH1 0x2F PUSH1 0x24 DUP3 ADD MSTORE PUSH32 0x4C494E474F3A205769746864726177616C204665652073686F756C6420626520 PUSH1 0x44 DUP3 ADD MSTORE PUSH15 0x6265747765656E203025202D203525 PUSH1 0x88 SHL PUSH1 0x64 DUP3 ADD MSTORE PUSH1 0x84 ADD PUSH2 0x3F5 JUMP JUMPDEST PUSH1 0x8 DUP2 SWAP1 SSTORE PUSH1 0x40 MLOAD DUP2 DUP2 MSTORE PUSH32 0xE94EDCC114DA5287ECB30EE8AACF12E6C16B11B8583D7F9E477AB1616E33D53D SWAP1 PUSH1 0x20 ADD PUSH2 0xD82 JUMP JUMPDEST PUSH1 0x4 SLOAD PUSH2 0x15C5 PUSH2 0xE10 TIMESTAMP PUSH2 0x1E76 JUMP JUMPDEST GT ISZERO DUP1 ISZERO PUSH2 0x15E0 JUMPI POP PUSH1 0x3 SLOAD PUSH2 0x15DD PUSH2 0xE10 TIMESTAMP PUSH2 0x1E76 JUMP JUMPDEST LT ISZERO JUMPDEST PUSH2 0x15FC JUMPI PUSH1 0x40 MLOAD PUSH3 0x461BCD PUSH1 0xE5 SHL DUP2 MSTORE PUSH1 0x4 ADD PUSH2 0x3F5 SWAP1 PUSH2 0x1E98 JUMP JUMPDEST CALLER PUSH1 0x0 SWAP1 DUP2 MSTORE PUSH1 0x9 PUSH1 0x20 SWAP1 DUP2 MSTORE PUSH1 0x40 SWAP2 DUP3 SWAP1 KECCAK256 DUP3 MLOAD PUSH1 0x80 DUP2 ADD DUP5 MSTORE DUP2 SLOAD DUP2 MSTORE PUSH1 0x1 DUP3 ADD SLOAD SWAP3 DUP2 ADD SWAP3 SWAP1 SWAP3 MSTORE PUSH1 0x2 DUP2 ADD SLOAD SWAP3 DUP3 ADD SWAP3 SWAP1 SWAP3 MSTORE PUSH1 0x3 SWAP1 SWAP2 ADD SLOAD PUSH1 0x60 DUP3 ADD MSTORE PUSH1 0xC SLOAD ISZERO PUSH2 0x16E1 JUMPI PUSH1 0xC DUP1 SLOAD PUSH1 0x0 SWAP2 SWAP1 PUSH2 0x165A SWAP1 PUSH1 0x1 SWAP1 PUSH2 0x1EEC JUMP JUMPDEST DUP2 SLOAD DUP2 LT PUSH2 0x166A JUMPI PUSH2 0x166A PUSH2 0x1EFF JUMP JUMPDEST SWAP1 PUSH1 0x0 MSTORE PUSH1 0x20 PUSH1 0x0 KECCAK256 SWAP1 PUSH1 0x5 MUL ADD PUSH1 0x40 MLOAD DUP1 PUSH1 0xA0 ADD PUSH1 0x40 MSTORE SWAP1 DUP2 PUSH1 0x0 DUP3 ADD SLOAD DUP2 MSTORE PUSH1 0x20 ADD PUSH1 0x1 DUP3 ADD SLOAD DUP2 MSTORE PUSH1 0x20 ADD PUSH1 0x2 DUP3 ADD SLOAD DUP2 MSTORE PUSH1 0x20 ADD PUSH1 0x3 DUP3 ADD SLOAD DUP2 MSTORE PUSH1 0x20 ADD PUSH1 0x4 DUP3 ADD SLOAD DUP2 MSTORE POP POP SWAP1 POP DUP1 PUSH1 0x20 ADD MLOAD DUP3 PUSH1 0x60 ADD MLOAD LT ISZERO PUSH2 0x16DF JUMPI PUSH1 0x40 MLOAD PUSH3 0x461BCD PUSH1 0xE5 SHL DUP2 MSTORE PUSH1 0x4 ADD PUSH2 0x3F5 SWAP1 PUSH2 0x1F15 JUMP JUMPDEST POP JUMPDEST PUSH2 0x16E9 PUSH2 0x1BB7 JUMP JUMPDEST PUSH1 0x0 DUP3 GT PUSH2 0x1709 JUMPI PUSH1 0x40 MLOAD PUSH3 0x461BCD PUSH1 0xE5 SHL DUP2 MSTORE PUSH1 0x4 ADD PUSH2 0x3F5 SWAP1 PUSH2 0x1F88 JUMP JUMPDEST PUSH1 0x0 CALLER PUSH1 0x40 MLOAD PUSH4 0x6EB1769F PUSH1 0xE1 SHL DUP2 MSTORE PUSH1 0x1 PUSH1 0x1 PUSH1 0xA0 SHL SUB DUP1 DUP4 AND PUSH1 0x4 DUP4 ADD MSTORE ADDRESS PUSH1 0x24 DUP4 ADD MSTORE SWAP2 SWAP3 POP PUSH1 0x0 SWAP2 PUSH32 0x0 AND SWAP1 PUSH4 0xDD62ED3E SWAP1 PUSH1 0x44 ADD PUSH1 0x20 PUSH1 0x40 MLOAD DUP1 DUP4 SUB DUP2 DUP7 GAS STATICCALL ISZERO DUP1 ISZERO PUSH2 0x177E JUMPI RETURNDATASIZE PUSH1 0x0 DUP1 RETURNDATACOPY RETURNDATASIZE PUSH1 0x0 REVERT JUMPDEST POP POP POP POP PUSH1 0x40 MLOAD RETURNDATASIZE PUSH1 0x1F NOT PUSH1 0x1F DUP3 ADD AND DUP3 ADD DUP1 PUSH1 0x40 MSTORE POP DUP2 ADD SWAP1 PUSH2 0x17A2 SWAP2 SWAP1 PUSH2 0x2039 JUMP JUMPDEST SWAP1 POP DUP4 DUP2 LT ISZERO PUSH2 0x17F4 JUMPI PUSH1 0x40 MLOAD PUSH3 0x461BCD PUSH1 0xE5 SHL DUP2 MSTORE PUSH1 0x20 PUSH1 0x4 DUP3 ADD MSTORE PUSH1 0x1D PUSH1 0x24 DUP3 ADD MSTORE PUSH32 0x4C494E474F3A20496E73756666696369656E7420616C6C6F77616E6365000000 PUSH1 0x44 DUP3 ADD MSTORE PUSH1 0x64 ADD PUSH2 0x3F5 JUMP JUMPDEST PUSH1 0x1 PUSH1 0x1 PUSH1 0xA0 SHL SUB DUP3 AND PUSH1 0x0 SWAP1 DUP2 MSTORE PUSH1 0x9 PUSH1 0x20 MSTORE PUSH1 0x40 SWAP1 KECCAK256 PUSH1 0x5 SLOAD PUSH2 0x181A JUMPI PUSH1 0x0 PUSH2 0x1820 JUMP JUMPDEST DUP1 PUSH1 0x1 ADD SLOAD JUMPDEST PUSH1 0x5 PUSH1 0x0 DUP3 DUP3 SLOAD PUSH2 0x1831 SWAP2 SWAP1 PUSH2 0x1EEC JUMP JUMPDEST SWAP1 SWAP2 SSTORE POP POP PUSH1 0x1 DUP2 ADD SLOAD PUSH2 0x1846 JUMPI PUSH1 0x0 PUSH2 0x186B JUMP JUMPDEST PUSH2 0x1852 PUSH2 0xE10 TIMESTAMP PUSH2 0x1E76 JUMP JUMPDEST PUSH1 0x4 SLOAD PUSH2 0x185F SWAP2 SWAP1 PUSH2 0x1EEC JUMP JUMPDEST DUP2 SLOAD PUSH2 0x186B SWAP2 SWAP1 PUSH2 0x1FBF JUMP JUMPDEST DUP2 PUSH1 0x1 ADD PUSH1 0x0 DUP3 DUP3 SLOAD PUSH2 0x187E SWAP2 SWAP1 PUSH2 0x1EEC JUMP JUMPDEST SWAP1 SWAP2 SSTORE POP POP DUP1 SLOAD DUP6 SWAP1 DUP3 SWAP1 PUSH1 0x0 SWAP1 PUSH2 0x1897 SWAP1 DUP5 SWAP1 PUSH2 0x1FD6 JUMP JUMPDEST SWAP1 SWAP2 SSTORE POP PUSH2 0x18A9 SWAP1 POP PUSH2 0xE10 TIMESTAMP PUSH2 0x1E76 JUMP JUMPDEST PUSH1 0x4 SLOAD PUSH2 0x18B6 SWAP2 SWAP1 PUSH2 0x1EEC JUMP JUMPDEST DUP2 SLOAD PUSH2 0x18C2 SWAP2 SWAP1 PUSH2 0x1FBF JUMP JUMPDEST DUP2 PUSH1 0x1 ADD PUSH1 0x0 DUP3 DUP3 SLOAD PUSH2 0x18D5 SWAP2 SWAP1 PUSH2 0x1FD6 JUMP JUMPDEST SWAP1 SWAP2 SSTORE POP PUSH2 0x18E7 SWAP1 POP PUSH2 0xE10 TIMESTAMP PUSH2 0x1E76 JUMP JUMPDEST PUSH1 0x2 DUP3 ADD SSTORE PUSH1 0x1 DUP2 ADD SLOAD PUSH1 0x5 DUP1 SLOAD PUSH1 0x0 SWAP1 PUSH2 0x1903 SWAP1 DUP5 SWAP1 PUSH2 0x1FD6 JUMP JUMPDEST SWAP3 POP POP DUP2 SWAP1 SSTORE POP DUP5 PUSH1 0x6 PUSH1 0x0 DUP3 DUP3 SLOAD PUSH2 0x191C SWAP2 SWAP1 PUSH2 0x1FD6 JUMP JUMPDEST SWAP1 SWAP2 SSTORE POP POP PUSH1 0x1 PUSH1 0x1 PUSH1 0xA0 SHL SUB DUP4 AND PUSH1 0x0 SWAP1 DUP2 MSTORE PUSH1 0xA PUSH1 0x20 MSTORE PUSH1 0x40 SWAP1 KECCAK256 SLOAD PUSH1 0xFF AND PUSH2 0x19B8 JUMPI PUSH1 0x1 PUSH1 0x1 PUSH1 0xA0 SHL SUB DUP4 AND PUSH1 0x0 DUP2 DUP2 MSTORE PUSH1 0xA PUSH1 0x20 MSTORE PUSH1 0x40 DUP2 KECCAK256 DUP1 SLOAD PUSH1 0xFF NOT AND PUSH1 0x1 SWAP1 DUP2 OR SWAP1 SWAP2 SSTORE PUSH1 0xB DUP1 SLOAD SWAP2 DUP3 ADD DUP2 SSTORE SWAP1 SWAP2 MSTORE PUSH32 0x175B7A638427703F0DBE7BB9BBF987A2551717B34E79F33B5B1008D1FA01DB9 ADD DUP1 SLOAD PUSH1 0x1 PUSH1 0x1 PUSH1 0xA0 SHL SUB NOT AND SWAP1 SWAP2 OR SWAP1 SSTORE PUSH2 0x19B2 PUSH2 0xE10 TIMESTAMP PUSH2 0x1E76 JUMP JUMPDEST PUSH1 0x3 DUP3 ADD SSTORE JUMPDEST PUSH1 0x40 MLOAD PUSH4 0x23B872DD PUSH1 0xE0 SHL DUP2 MSTORE PUSH1 0x1 PUSH1 0x1 PUSH1 0xA0 SHL SUB DUP5 DUP2 AND PUSH1 0x4 DUP4 ADD MSTORE ADDRESS PUSH1 0x24 DUP4 ADD MSTORE PUSH1 0x44 DUP3 ADD DUP8 SWAP1 MSTORE PUSH1 0x0 SWAP2 PUSH32 0x0 SWAP1 SWAP2 AND SWAP1 PUSH4 0x23B872DD SWAP1 PUSH1 0x64 ADD PUSH1 0x20 PUSH1 0x40 MLOAD DUP1 DUP4 SUB DUP2 PUSH1 0x0 DUP8 GAS CALL ISZERO DUP1 ISZERO PUSH2 0x1A32 JUMPI RETURNDATASIZE PUSH1 0x0 DUP1 RETURNDATACOPY RETURNDATASIZE PUSH1 0x0 REVERT JUMPDEST POP POP POP POP PUSH1 0x40 MLOAD RETURNDATASIZE PUSH1 0x1F NOT PUSH1 0x1F DUP3 ADD AND DUP3 ADD DUP1 PUSH1 0x40 MSTORE POP DUP2 ADD SWAP1 PUSH2 0x1A56 SWAP2 SWAP1 PUSH2 0x2052 JUMP JUMPDEST SWAP1 POP DUP1 PUSH2 0x1A75 JUMPI PUSH1 0x40 MLOAD PUSH3 0x461BCD PUSH1 0xE5 SHL DUP2 MSTORE PUSH1 0x4 ADD PUSH2 0x3F5 SWAP1 PUSH2 0x1FE9 JUMP JUMPDEST DUP4 PUSH1 0x1 PUSH1 0x1 PUSH1 0xA0 SHL SUB AND PUSH32 0xE1FFFCC4923D04B559F4D29A8BFC6CDA04EB5B0D3C460751C2402C5C5CC9109C DUP8 PUSH1 0x40 MLOAD PUSH2 0x1AB0 SWAP2 DUP2 MSTORE PUSH1 0x20 ADD SWAP1 JUMP JUMPDEST PUSH1 0x40 MLOAD DUP1 SWAP2 SUB SWAP1 LOG2 POP POP POP POP PUSH2 0x7B6 PUSH1 0x1 DUP1 SSTORE JUMP JUMPDEST PUSH2 0x1AF0 PUSH1 0x40 MLOAD DUP1 PUSH1 0x80 ADD PUSH1 0x40 MSTORE DUP1 PUSH1 0x0 DUP2 MSTORE PUSH1 0x20 ADD PUSH1 0x0 DUP2 MSTORE PUSH1 0x20 ADD PUSH1 0x0 DUP2 MSTORE PUSH1 0x20 ADD PUSH1 0x0 DUP2 MSTORE POP SWAP1 JUMP JUMPDEST POP PUSH1 0x1 PUSH1 0x1 PUSH1 0xA0 SHL SUB AND PUSH1 0x0 SWAP1 DUP2 MSTORE PUSH1 0x9 PUSH1 0x20 SWAP1 DUP2 MSTORE PUSH1 0x40 SWAP2 DUP3 SWAP1 KECCAK256 DUP3 MLOAD PUSH1 0x80 DUP2 ADD DUP5 MSTORE DUP2 SLOAD DUP2 MSTORE PUSH1 0x1 DUP3 ADD SLOAD SWAP3 DUP2 ADD SWAP3 SWAP1 SWAP3 MSTORE PUSH1 0x2 DUP2 ADD SLOAD SWAP3 DUP3 ADD SWAP3 SWAP1 SWAP3 MSTORE PUSH1 0x3 SWAP1 SWAP2 ADD SLOAD PUSH1 0x60 DUP3 ADD MSTORE SWAP1 JUMP JUMPDEST PUSH2 0x1B46 PUSH2 0x1CB2 JUMP JUMPDEST PUSH1 0x1 PUSH1 0x1 PUSH1 0xA0 SHL SUB DUP2 AND PUSH2 0x1BAB JUMPI PUSH1 0x40 MLOAD PUSH3 0x461BCD PUSH1 0xE5 SHL DUP2 MSTORE PUSH1 0x20 PUSH1 0x4 DUP3 ADD MSTORE PUSH1 0x26 PUSH1 0x24 DUP3 ADD MSTORE PUSH32 0x4F776E61626C653A206E6577206F776E657220697320746865207A65726F2061 PUSH1 0x44 DUP3 ADD MSTORE PUSH6 0x646472657373 PUSH1 0xD0 SHL PUSH1 0x64 DUP3 ADD MSTORE PUSH1 0x84 ADD PUSH2 0x3F5 JUMP JUMPDEST PUSH2 0x1BB4 DUP2 PUSH2 0x1D0C JUMP JUMPDEST POP JUMP JUMPDEST PUSH1 0x2 PUSH1 0x1 SLOAD SUB PUSH2 0x1C09 JUMPI PUSH1 0x40 MLOAD PUSH3 0x461BCD PUSH1 0xE5 SHL DUP2 MSTORE PUSH1 0x20 PUSH1 0x4 DUP3 ADD MSTORE PUSH1 0x1F PUSH1 0x24 DUP3 ADD MSTORE PUSH32 0x5265656E7472616E637947756172643A207265656E7472616E742063616C6C00 PUSH1 0x44 DUP3 ADD MSTORE PUSH1 0x64 ADD PUSH2 0x3F5 JUMP JUMPDEST PUSH1 0x2 PUSH1 0x1 SSTORE JUMP JUMPDEST PUSH1 0x40 MLOAD PUSH4 0xA9059CBB PUSH1 0xE0 SHL DUP2 MSTORE PUSH1 0x1 PUSH1 0x1 PUSH1 0xA0 SHL SUB DUP4 DUP2 AND PUSH1 0x4 DUP4 ADD MSTORE PUSH1 0x24 DUP3 ADD DUP4 SWAP1 MSTORE PUSH1 0x0 SWAP2 DUP3 SWAP2 PUSH32 0x0 AND SWAP1 PUSH4 0xA9059CBB SWAP1 PUSH1 0x44 ADD PUSH1 0x20 PUSH1 0x40 MLOAD DUP1 DUP4 SUB DUP2 PUSH1 0x0 DUP8 GAS CALL ISZERO DUP1 ISZERO PUSH2 0x1C84 JUMPI RETURNDATASIZE PUSH1 0x0 DUP1 RETURNDATACOPY RETURNDATASIZE PUSH1 0x0 REVERT JUMPDEST POP POP POP POP PUSH1 0x40 MLOAD RETURNDATASIZE PUSH1 0x1F NOT PUSH1 0x1F DUP3 ADD AND DUP3 ADD DUP1 PUSH1 0x40 MSTORE POP DUP2 ADD SWAP1 PUSH2 0x1CA8 SWAP2 SWAP1 PUSH2 0x2052 JUMP JUMPDEST SWAP2 POP POP JUMPDEST SWAP3 SWAP2 POP POP JUMP JUMPDEST PUSH1 0x0 SLOAD PUSH1 0x1 PUSH1 0x1 PUSH1 0xA0 SHL SUB AND CALLER EQ PUSH2 0xD47 JUMPI PUSH1 0x40 MLOAD PUSH3 0x461BCD PUSH1 0xE5 SHL DUP2 MSTORE PUSH1 0x20 PUSH1 0x4 DUP3 ADD DUP2 SWAP1 MSTORE PUSH1 0x24 DUP3 ADD MSTORE PUSH32 0x4F776E61626C653A2063616C6C6572206973206E6F7420746865206F776E6572 PUSH1 0x44 DUP3 ADD MSTORE PUSH1 0x64 ADD PUSH2 0x3F5 JUMP JUMPDEST PUSH1 0x0 DUP1 SLOAD PUSH1 0x1 PUSH1 0x1 PUSH1 0xA0 SHL SUB DUP4 DUP2 AND PUSH1 0x1 PUSH1 0x1 PUSH1 0xA0 SHL SUB NOT DUP4 AND DUP2 OR DUP5 SSTORE PUSH1 0x40 MLOAD SWAP2 SWAP1 SWAP3 AND SWAP3 DUP4 SWAP2 PUSH32 0x8BE0079C531659141344CD1FD0A4F28419497F9722A3DAAFE3B4186F6B6457E0 SWAP2 SWAP1 LOG3 POP POP JUMP JUMPDEST PUSH1 0x20 DUP1 DUP3 MSTORE DUP3 MLOAD DUP3 DUP3 ADD DUP2 SWAP1 MSTORE PUSH1 0x0 SWAP2 SWAP1 PUSH1 0x40 SWAP1 DUP2 DUP6 ADD SWAP1 DUP7 DUP5 ADD DUP6 JUMPDEST DUP3 DUP2 LT ISZERO PUSH2 0x1DBD JUMPI DUP2 MLOAD DUP1 MLOAD DUP6 MSTORE DUP7 DUP2 ADD MLOAD DUP8 DUP7 ADD MSTORE DUP6 DUP2 ADD MLOAD DUP7 DUP7 ADD MSTORE PUSH1 0x60 DUP1 DUP3 ADD MLOAD SWAP1 DUP7 ADD MSTORE PUSH1 0x80 SWAP1 DUP2 ADD MLOAD SWAP1 DUP6 ADD MSTORE PUSH1 0xA0 SWAP1 SWAP4 ADD SWAP3 SWAP1 DUP6 ADD SWAP1 PUSH1 0x1 ADD PUSH2 0x1D79 JUMP JUMPDEST POP SWAP2 SWAP8 SWAP7 POP POP POP POP POP POP POP JUMP JUMPDEST PUSH1 0x0 PUSH1 0x20 DUP3 DUP5 SUB SLT ISZERO PUSH2 0x1DDC JUMPI PUSH1 0x0 DUP1 REVERT JUMPDEST POP CALLDATALOAD SWAP2 SWAP1 POP JUMP JUMPDEST PUSH1 0x0 PUSH1 0x20 DUP3 DUP5 SUB SLT ISZERO PUSH2 0x1DF5 JUMPI PUSH1 0x0 DUP1 REVERT JUMPDEST DUP2 CALLDATALOAD PUSH1 0x1 PUSH1 0x1 PUSH1 0xA0 SHL SUB DUP2 AND DUP2 EQ PUSH2 0x1E0C JUMPI PUSH1 0x0 DUP1 REVERT JUMPDEST SWAP4 SWAP3 POP POP POP JUMP JUMPDEST PUSH1 0x20 DUP1 DUP3 MSTORE DUP3 MLOAD DUP3 DUP3 ADD DUP2 SWAP1 MSTORE PUSH1 0x0 SWAP2 SWAP1 DUP5 DUP3 ADD SWAP1 PUSH1 0x40 DUP6 ADD SWAP1 DUP5 JUMPDEST DUP2 DUP2 LT ISZERO PUSH2 0x1E54 JUMPI DUP4 MLOAD PUSH1 0x1 PUSH1 0x1 PUSH1 0xA0 SHL SUB AND DUP4 MSTORE SWAP3 DUP5 ADD SWAP3 SWAP2 DUP5 ADD SWAP2 PUSH1 0x1 ADD PUSH2 0x1E2F JUMP JUMPDEST POP SWAP1 SWAP7 SWAP6 POP POP POP POP POP POP JUMP JUMPDEST PUSH4 0x4E487B71 PUSH1 0xE0 SHL PUSH1 0x0 MSTORE PUSH1 0x11 PUSH1 0x4 MSTORE PUSH1 0x24 PUSH1 0x0 REVERT JUMPDEST PUSH1 0x0 DUP3 PUSH2 0x1E93 JUMPI PUSH4 0x4E487B71 PUSH1 0xE0 SHL PUSH1 0x0 MSTORE PUSH1 0x12 PUSH1 0x4 MSTORE PUSH1 0x24 PUSH1 0x0 REVERT JUMPDEST POP DIV SWAP1 JUMP JUMPDEST PUSH1 0x20 DUP1 DUP3 MSTORE PUSH1 0x34 SWAP1 DUP3 ADD MSTORE PUSH32 0x4C494E474F3A20446973747269627574696F6E206973206F6E20686F6C642E20 PUSH1 0x40 DUP3 ADD MSTORE PUSH20 0x283632B0B9B29031B7B73A30B1BA1030B236B4B7 PUSH1 0x61 SHL PUSH1 0x60 DUP3 ADD MSTORE PUSH1 0x80 ADD SWAP1 JUMP JUMPDEST DUP2 DUP2 SUB DUP2 DUP2 GT ISZERO PUSH2 0x1CAC JUMPI PUSH2 0x1CAC PUSH2 0x1E60 JUMP JUMPDEST PUSH4 0x4E487B71 PUSH1 0xE0 SHL PUSH1 0x0 MSTORE PUSH1 0x32 PUSH1 0x4 MSTORE PUSH1 0x24 PUSH1 0x0 REVERT JUMPDEST PUSH1 0x20 DUP1 DUP3 MSTORE PUSH1 0x4D SWAP1 DUP3 ADD MSTORE PUSH32 0x4C494E474F3A2055736572206861766520756E636C61696D656420746F6B656E PUSH1 0x40 DUP3 ADD MSTORE PUSH32 0x732E20506C6561736520636C61696D206974206265666F7265206465706F7369 PUSH1 0x60 DUP3 ADD MSTORE PUSH13 0x74206F72207769746864726177 PUSH1 0x98 SHL PUSH1 0x80 DUP3 ADD MSTORE PUSH1 0xA0 ADD SWAP1 JUMP JUMPDEST PUSH1 0x20 DUP1 DUP3 MSTORE PUSH1 0x1C SWAP1 DUP3 ADD MSTORE PUSH32 0x4C494E474F3A20416D6F756E742063616E6E6F74206265207A65726F00000000 PUSH1 0x40 DUP3 ADD MSTORE PUSH1 0x60 ADD SWAP1 JUMP JUMPDEST DUP1 DUP3 MUL DUP2 ISZERO DUP3 DUP3 DIV DUP5 EQ OR PUSH2 0x1CAC JUMPI PUSH2 0x1CAC PUSH2 0x1E60 JUMP JUMPDEST DUP1 DUP3 ADD DUP1 DUP3 GT ISZERO PUSH2 0x1CAC JUMPI PUSH2 0x1CAC PUSH2 0x1E60 JUMP JUMPDEST PUSH1 0x20 DUP1 DUP3 MSTORE PUSH1 0x1C SWAP1 DUP3 ADD MSTORE PUSH32 0x4C494E474F3A20546F6B656E207472616E73666572206661696C656400000000 PUSH1 0x40 DUP3 ADD MSTORE PUSH1 0x60 ADD SWAP1 JUMP JUMPDEST PUSH1 0x0 PUSH1 0x1 DUP3 ADD PUSH2 0x2032 JUMPI PUSH2 0x2032 PUSH2 0x1E60 JUMP JUMPDEST POP PUSH1 0x1 ADD SWAP1 JUMP JUMPDEST PUSH1 0x0 PUSH1 0x20 DUP3 DUP5 SUB SLT ISZERO PUSH2 0x204B JUMPI PUSH1 0x0 DUP1 REVERT JUMPDEST POP MLOAD SWAP2 SWAP1 POP JUMP JUMPDEST PUSH1 0x0 PUSH1 0x20 DUP3 DUP5 SUB SLT ISZERO PUSH2 0x2064 JUMPI PUSH1 0x0 DUP1 REVERT JUMPDEST DUP2 MLOAD DUP1 ISZERO ISZERO DUP2 EQ PUSH2 0x1E0C JUMPI PUSH1 0x0 DUP1 REVERT INVALID LOG2 PUSH5 0x6970667358 0x22 SLT KECCAK256 0x26 0x26 0xB9 0xC2 CALLDATALOAD 0xD4 0x2E XOR PUSH22 0xDEF2F1B392313CEF1555618A4997A0A9AA2BF0E12EBE OR PUSH5 0x736F6C6343 STOP ADDMOD SLT STOP CALLER "},"methodIdentifiers":{"adminClaim()":"82ef8fa8","claimRewards()":"372500ab","deposit(uint256)":"b6b55f25","distribute(uint256)":"91c05b0b","getAdminClaimPeriod()":"27499265","getContractState()":"7f4e4849","getDistributionHistory()":"0fba7faf","getSlot()":"6c877c84","getTokenAddress()":"10fe9ae8","getTreasuryWalletAddress()":"0899f5a7","getUserAddresses()":"a591efde","getUserStatus(address)":"ea0d5dcd","getWithdrawalFee()":"d8e159f8","owner()":"8da5cb5b","renounceOwnership()":"715018a6","setTreasuryWalletAddress(address)":"5efd930b","setWithdrawalFee(uint256)":"ac1e5025","transferOwnership(address)":"f2fde38b","updateAdminClaimPeriod(uint256)":"37bbcfe8","updateSlot(uint256)":"50c6d481","withdraw(uint256)":"2e1a7d4d"}}}}}