{
  "_format": "hh-sol-artifact-1",
  "contractName": "Distribution",
  "sourceName": "contracts/Distribution.sol",
  "abi": [
    {
      "inputs": [
        {
          "internalType": "address",
          "name": "admin",
          "type": "address"
        },
        {
          "internalType": "address",
          "name": "treasuryWallet",
          "type": "address"
        },
        {
          "internalType": "address",
          "name": "tokenAddress",
          "type": "address"
        },
        {
          "internalType": "uint256",
          "name": "slot",
          "type": "uint256"
        },
        {
          "internalType": "uint256",
          "name": "adminClaimPeriod",
          "type": "uint256"
        },
        {
          "internalType": "uint256",
          "name": "fee",
          "type": "uint256"
        }
      ],
      "stateMutability": "nonpayable",
      "type": "constructor"
    },
    {
      "anonymous": false,
      "inputs": [
        {
          "indexed": true,
          "internalType": "address",
          "name": "admin",
          "type": "address"
        },
        {
          "indexed": false,
          "internalType": "uint256",
          "name": "amount",
          "type": "uint256"
        }
      ],
      "name": "AdminClaim",
      "type": "event"
    },
    {
      "anonymous": false,
      "inputs": [
        {
          "indexed": false,
          "internalType": "uint256",
          "name": "adminClaimPeriod",
          "type": "uint256"
        }
      ],
      "name": "AdminClaimPeriodUpdated",
      "type": "event"
    },
    {
      "anonymous": false,
      "inputs": [
        {
          "indexed": true,
          "internalType": "address",
          "name": "user",
          "type": "address"
        },
        {
          "indexed": false,
          "internalType": "uint256",
          "name": "amount",
          "type": "uint256"
        }
      ],
      "name": "Claim",
      "type": "event"
    },
    {
      "anonymous": false,
      "inputs": [
        {
          "indexed": true,
          "internalType": "address",
          "name": "user",
          "type": "address"
        },
        {
          "indexed": false,
          "internalType": "uint256",
          "name": "amount",
          "type": "uint256"
        }
      ],
      "name": "Deposit",
      "type": "event"
    },
    {
      "anonymous": false,
      "inputs": [
        {
          "indexed": false,
          "internalType": "uint256",
          "name": "amount",
          "type": "uint256"
        }
      ],
      "name": "Distribute",
      "type": "event"
    },
    {
      "anonymous": false,
      "inputs": [
        {
          "indexed": true,
          "internalType": "address",
          "name": "previousOwner",
          "type": "address"
        },
        {
          "indexed": true,
          "internalType": "address",
          "name": "newOwner",
          "type": "address"
        }
      ],
      "name": "OwnershipTransferred",
      "type": "event"
    },
    {
      "anonymous": false,
      "inputs": [
        {
          "indexed": false,
          "internalType": "uint256",
          "name": "slot",
          "type": "uint256"
        }
      ],
      "name": "SlotUpdated",
      "type": "event"
    },
    {
      "anonymous": false,
      "inputs": [
        {
          "indexed": false,
          "internalType": "address",
          "name": "account",
          "type": "address"
        }
      ],
      "name": "TreasuryWalletUpdated",
      "type": "event"
    },
    {
      "anonymous": false,
      "inputs": [
        {
          "indexed": true,
          "internalType": "address",
          "name": "user",
          "type": "address"
        },
        {
          "indexed": false,
          "internalType": "uint256",
          "name": "amount",
          "type": "uint256"
        }
      ],
      "name": "Withdraw",
      "type": "event"
    },
    {
      "anonymous": false,
      "inputs": [
        {
          "indexed": false,
          "internalType": "uint256",
          "name": "fee",
          "type": "uint256"
        }
      ],
      "name": "WithdrawalFeeUpdated",
      "type": "event"
    },
    {
      "inputs": [],
      "name": "adminClaim",
      "outputs": [],
      "stateMutability": "nonpayable",
      "type": "function"
    },
    {
      "inputs": [],
      "name": "claimRewards",
      "outputs": [],
      "stateMutability": "nonpayable",
      "type": "function"
    },
    {
      "inputs": [
        {
          "internalType": "uint256",
          "name": "amount",
          "type": "uint256"
        }
      ],
      "name": "deposit",
      "outputs": [],
      "stateMutability": "nonpayable",
      "type": "function"
    },
    {
      "inputs": [
        {
          "internalType": "uint256",
          "name": "amount",
          "type": "uint256"
        }
      ],
      "name": "distribute",
      "outputs": [],
      "stateMutability": "nonpayable",
      "type": "function"
    },
    {
      "inputs": [],
      "name": "getAdminClaimPeriod",
      "outputs": [
        {
          "internalType": "uint256",
          "name": "",
          "type": "uint256"
        }
      ],
      "stateMutability": "view",
      "type": "function"
    },
    {
      "inputs": [],
      "name": "getContractState",
      "outputs": [
        {
          "internalType": "uint256",
          "name": "startTime",
          "type": "uint256"
        },
        {
          "internalType": "uint256",
          "name": "endTime",
          "type": "uint256"
        },
        {
          "internalType": "uint256",
          "name": "totalAmount",
          "type": "uint256"
        },
        {
          "internalType": "uint256",
          "name": "totalCredits",
          "type": "uint256"
        }
      ],
      "stateMutability": "view",
      "type": "function"
    },
    {
      "inputs": [],
      "name": "getDistributionHistory",
      "outputs": [
        {
          "components": [
            {
              "internalType": "uint256",
              "name": "startTime",
              "type": "uint256"
            },
            {
              "internalType": "uint256",
              "name": "endTime",
              "type": "uint256"
            },
            {
              "internalType": "uint256",
              "name": "monthlyProfit",
              "type": "uint256"
            },
            {
              "internalType": "uint256",
              "name": "totalCredits",
              "type": "uint256"
            },
            {
              "internalType": "uint256",
              "name": "remainingTokensToClaim",
              "type": "uint256"
            }
          ],
          "internalType": "struct Distribution.DistributionHistory[]",
          "name": "",
          "type": "tuple[]"
        }
      ],
      "stateMutability": "view",
      "type": "function"
    },
    {
      "inputs": [],
      "name": "getSlot",
      "outputs": [
        {
          "internalType": "uint256",
          "name": "",
          "type": "uint256"
        }
      ],
      "stateMutability": "view",
      "type": "function"
    },
    {
      "inputs": [],
      "name": "getTokenAddress",
      "outputs": [
        {
          "internalType": "address",
          "name": "",
          "type": "address"
        }
      ],
      "stateMutability": "view",
      "type": "function"
    },
    {
      "inputs": [],
      "name": "getTreasuryWalletAddress",
      "outputs": [
        {
          "internalType": "address",
          "name": "",
          "type": "address"
        }
      ],
      "stateMutability": "view",
      "type": "function"
    },
    {
      "inputs": [],
      "name": "getUserAddresses",
      "outputs": [
        {
          "internalType": "address[]",
          "name": "",
          "type": "address[]"
        }
      ],
      "stateMutability": "view",
      "type": "function"
    },
    {
      "inputs": [
        {
          "internalType": "address",
          "name": "account",
          "type": "address"
        }
      ],
      "name": "getUserStatus",
      "outputs": [
        {
          "components": [
            {
              "internalType": "uint256",
              "name": "balance",
              "type": "uint256"
            },
            {
              "internalType": "uint256",
              "name": "forecastedCredits",
              "type": "uint256"
            },
            {
              "internalType": "uint256",
              "name": "lastUpdatedTimestamp",
              "type": "uint256"
            },
            {
              "internalType": "uint256",
              "name": "lastClaimedTimestamp",
              "type": "uint256"
            }
          ],
          "internalType": "struct Distribution.User",
          "name": "",
          "type": "tuple"
        }
      ],
      "stateMutability": "view",
      "type": "function"
    },
    {
      "inputs": [],
      "name": "getWithdrawalFee",
      "outputs": [
        {
          "internalType": "uint256",
          "name": "",
          "type": "uint256"
        }
      ],
      "stateMutability": "view",
      "type": "function"
    },
    {
      "inputs": [],
      "name": "owner",
      "outputs": [
        {
          "internalType": "address",
          "name": "",
          "type": "address"
        }
      ],
      "stateMutability": "view",
      "type": "function"
    },
    {
      "inputs": [],
      "name": "renounceOwnership",
      "outputs": [],
      "stateMutability": "nonpayable",
      "type": "function"
    },
    {
      "inputs": [
        {
          "internalType": "address",
          "name": "account",
          "type": "address"
        }
      ],
      "name": "setTreasuryWalletAddress",
      "outputs": [],
      "stateMutability": "nonpayable",
      "type": "function"
    },
    {
      "inputs": [
        {
          "internalType": "uint256",
          "name": "fee",
          "type": "uint256"
        }
      ],
      "name": "setWithdrawalFee",
      "outputs": [],
      "stateMutability": "nonpayable",
      "type": "function"
    },
    {
      "inputs": [
        {
          "internalType": "address",
          "name": "newOwner",
          "type": "address"
        }
      ],
      "name": "transferOwnership",
      "outputs": [],
      "stateMutability": "nonpayable",
      "type": "function"
    },
    {
      "inputs": [
        {
          "internalType": "uint256",
          "name": "newAdminClaimPeriod",
          "type": "uint256"
        }
      ],
      "name": "updateAdminClaimPeriod",
      "outputs": [],
      "stateMutability": "nonpayable",
      "type": "function"
    },
    {
      "inputs": [
        {
          "internalType": "uint256",
          "name": "newSlot",
          "type": "uint256"
        }
      ],
      "name": "updateSlot",
      "outputs": [],
      "stateMutability": "nonpayable",
      "type": "function"
    },
    {
      "inputs": [
        {
          "internalType": "uint256",
          "name": "amount",
          "type": "uint256"
        }
      ],
      "name": "withdraw",
      "outputs": [],
      "stateMutability": "nonpayable",
      "type": "function"
    }
  ],
  "bytecode": "0x60a0604052600060055560006006553480156200001b57600080fd5b506040516200263d3803806200263d8339810160408190526200003e916200029d565b620000493362000121565b600180556001600160a01b038516620000a95760405162461bcd60e51b815260206004820152601360248201527f4c494e474f3a205a65726f20416464726573730000000000000000000000000060448201526064015b60405180910390fd5b6001600160a01b0384166080526002839055620000c9610e104262000303565b6003819055600254620000dc9162000326565b600455600d829055600780546001600160a01b0319166001600160a01b0387161790556200010a8162000171565b620001158662000121565b5050505050506200034e565b600080546001600160a01b038381166001600160a01b0319831681178455604051919092169283917f8be0079c531659141344cd1fd0a4f28419497f9722a3daafe3b4186f6b6457e09190a35050565b6200017b62000222565b6101f4811115620001e75760405162461bcd60e51b815260206004820152602f60248201527f4c494e474f3a205769746864726177616c204665652073686f756c642062652060448201526e6265747765656e203025202d20352560881b6064820152608401620000a0565b60088190556040518181527fe94edcc114da5287ecb30ee8aacf12e6c16b11b8583d7f9e477ab1616e33d53d9060200160405180910390a150565b6000546001600160a01b031633146200027e5760405162461bcd60e51b815260206004820181905260248201527f4f776e61626c653a2063616c6c6572206973206e6f7420746865206f776e65726044820152606401620000a0565b565b80516001600160a01b03811681146200029857600080fd5b919050565b60008060008060008060c08789031215620002b757600080fd5b620002c28762000280565b9550620002d26020880162000280565b9450620002e26040880162000280565b9350606087015192506080870151915060a087015190509295509295509295565b6000826200032157634e487b7160e01b600052601260045260246000fd5b500490565b808201808211156200034857634e487b7160e01b600052601160045260246000fd5b92915050565b60805161229b620003a26000396000818161017d01528181611130015281816113a50152818161174e01528181611a1801528181611c5701528181611d9a01528181611e280152611eaa015261229b6000f3fe608060405234801561001057600080fd5b50600436106101375760003560e01c8063715018a6116100b8578063a591efde1161007c578063a591efde14610271578063ac1e502514610286578063b6b55f2514610299578063d8e159f8146102ac578063ea0d5dcd146102b4578063f2fde38b146102fa57600080fd5b8063715018a6146102115780637f4e48491461021957806382ef8fa8146102455780638da5cb5b1461024d57806391c05b0b1461025e57600080fd5b8063372500ab116100ff578063372500ab146101c857806337bbcfe8146101d057806350c6d481146101e35780635efd930b146101f65780636c877c841461020957600080fd5b80630899f5a71461013c5780630fba7faf1461016657806310fe9ae81461017b57806327499265146101a15780632e1a7d4d146101b3575b600080fd5b6007546001600160a01b03165b6040516001600160a01b0390911681526020015b60405180910390f35b61016e61030d565b60405161015d9190611f4d565b7f0000000000000000000000000000000000000000000000000000000000000000610149565b600d545b60405190815260200161015d565b6101c66101c1366004611fbb565b61039e565b005b6101c66107d3565b6101c66101de366004611fbb565b610d1b565b6101c66101f1366004611fbb565b610d5f565b6101c6610204366004611fd4565b610dec565b6002546101a5565b6101c6610e8e565b60035460045460065460055460408051948552602085019390935291830152606082015260800161015d565b6101c6610ea0565b6000546001600160a01b0316610149565b6101c661026c366004611fbb565b6110a7565b61027961147f565b60405161015d9190612004565b6101c6610294366004611fbb565b6114e1565b6101c66102a7366004611fbb565b611588565b6008546101a5565b6102c76102c2366004611fd4565b611ae1565b60405161015d91908151815260208083015190820152604080830151908201526060918201519181019190915260800190565b6101c6610308366004611fd4565b611b5a565b6060600c805480602002602001604051908101604052809291908181526020016000905b8282101561039557838290600052602060002090600502016040518060a00160405290816000820154815260200160018201548152602001600282015481526020016003820154815260200160048201548152505081526020019060010190610331565b50505050905090565b336000908152600a602052604090205460ff166103fe5760405162461bcd60e51b81526020600482015260196024820152782624a723a79d102737ba1030b71030b1ba34bb32903ab9b2b960391b60448201526064015b60405180910390fd5b60045461040d610e1042612067565b111580156104285750600354610425610e1042612067565b10155b6104445760405162461bcd60e51b81526004016103f590612089565b336000908152600960209081526040918290208251608081018452815481526001820154928101929092526002810154928201929092526003909101546060820152600c541561054257600c8054600091906104a2906001906120dd565b815481106104b2576104b26120f0565b90600052602060002090600502016040518060a00160405290816000820154815260200160018201548152602001600282015481526020016003820154815260200160048201548152505090508160200151600014801561051257508151155b80610524575080602001518260600151115b6105405760405162461bcd60e51b81526004016103f590612106565b505b61054a611bd3565b6000821161056a5760405162461bcd60e51b81526004016103f590612179565b33600081815260096020526040902080548411156105ca5760405162461bcd60e51b815260206004820152601b60248201527f4c494e474f3a20496e73756666696369656e742062616c616e6365000000000060448201526064016103f5565b8060010154600560008282546105e091906120dd565b909155506105f29050610e1042612067565b6004546105ff91906120dd565b815461060b91906121b0565b81600101600082825461061e91906120dd565b90915550508054849082906000906106379084906120dd565b909155506106499050610e1042612067565b60045461065691906120dd565b815461066291906121b0565b81600101600082825461067591906121c7565b909155506106879050610e1042612067565b60028201556001810154600580546000906106a39084906121c7565b9250508190555083600660008282546106bc91906120dd565b9091555050600854600090612710906106d590876121b0565b6106df9190612067565b6007549091506000906106fb906001600160a01b031683611c2c565b90508061074a5760405162461bcd60e51b815260206004820152601c60248201527f4c494e474f3a2046656520636f6c6c656374696f6e206661696c65640000000060448201526064016103f5565b600061075f8561075a858a6120dd565b611c2c565b90508061077e5760405162461bcd60e51b81526004016103f5906121da565b846001600160a01b03167f884edad9ce6fa2440d8a54cc123490eb96d2768479d49ff9c7366125a9424364886040516107b991815260200190565b60405180910390a250505050506107cf60018055565b5050565b336000908152600a602052604090205460ff1661082e5760405162461bcd60e51b81526020600482015260196024820152782624a723a79d102737ba1030b71030b1ba34bb32903ab9b2b960391b60448201526064016103f5565b60045461083d610e1042612067565b111580156108585750600354610855610e1042612067565b10155b6108745760405162461bcd60e51b81526004016103f590612089565b61087c611bd3565b3360008181526009602052604090206003808201549054116108d95760405162461bcd60e51b815260206004820152601660248201527513125391d3ce88105b1c9958591e4818db185a5b595960521b60448201526064016103f5565b6000806000600c80549050600114806109345750600c5460011080156109345750600c805461090a906001906120dd565b8154811061091a5761091a6120f0565b906000526020600020906005020160000154846003015410155b15610a5557600c80546000919061094d906001906120dd565b8154811061095d5761095d6120f0565b9060005260206000209060050201600301541115610a5057600180850154600c80549194509161098c916120dd565b8154811061099c5761099c6120f0565b906000526020600020906005020160030154600c6001600c805490506109c291906120dd565b815481106109d2576109d26120f0565b906000526020600020906005020160020154836109ef91906121b0565b6109f99190612067565b9050610a0581846121c7565b600c80549194508291610a1a906001906120dd565b81548110610a2a57610a2a6120f0565b90600052602060002090600502016004016000828254610a4a91906120dd565b90915550505b610c24565b60005b600c54811015610c22578460030154600c8281548110610a7a57610a7a6120f0565b90600052602060002090600502016001015410158015610abe57506000600c8281548110610aaa57610aaa6120f0565b906000526020600020906005020160030154115b15610c105760009250600091508460030154600c8281548110610ae357610ae36120f0565b90600052602060002090600502016000015411610b065784600101549250610b69565b600c8181548110610b1957610b196120f0565b906000526020600020906005020160000154600c8281548110610b3e57610b3e6120f0565b906000526020600020906005020160010154610b5a91906120dd565b8554610b6691906121b0565b92505b600c8181548110610b7c57610b7c6120f0565b906000526020600020906005020160030154600c8281548110610ba157610ba16120f0565b90600052602060002090600502016002015484610bbe91906121b0565b610bc89190612067565b9150610bd482856121c7565b935081600c8281548110610bea57610bea6120f0565b90600052602060002090600502016004016000828254610c0a91906120dd565b90915550505b80610c1a81612211565b915050610a58565b505b60008311610c6a5760405162461bcd60e51b81526020600482015260136024820152724c494e474f3a205a65726f207265776172647360681b60448201526064016103f5565b600354600454610c7a91906120dd565b8454610c8691906121b0565b6001850155610c97610e1042612067565b60038501556000610ca88685611c2c565b905080610cc75760405162461bcd60e51b81526004016103f5906121da565b856001600160a01b03167f47cee97cb7acd717b3c0aa1435d004cd5b3c8c57d70dbceb4e4458bbd60e39d485604051610d0291815260200190565b60405180910390a2505050505050610d1960018055565b565b610d23611cce565b600d8190556040518181527f227eb5469f2250dba512afc74b3a4aa5eac62196ded8694cfe83b3285435fbc5906020015b60405180910390a150565b610d67611cce565b60008111610db75760405162461bcd60e51b815260206004820152601a60248201527f4c494e474f3a20536c6f742063616e6e6f74206265207a65726f00000000000060448201526064016103f5565b60028190556040518181527fb3ee65c0c15104083e90f55b359836720e3d2dfd10e8203a69e562453e8bf2f590602001610d54565b610df4611cce565b6001600160a01b038116610e405760405162461bcd60e51b81526020600482015260136024820152724c494e474f3a205a65726f204164647265737360681b60448201526064016103f5565b600780546001600160a01b0319166001600160a01b0383169081179091556040519081527f97c79b3848e51f57983ac89e4403452655c8d83ceba8199011de63a74f60d1a790602001610d54565b610e96611cce565b610d196000611d28565b610ea8611cce565b610eb0611bd3565b6000805b600c54811015610f7257600d54600c8281548110610ed457610ed46120f0565b906000526020600020906005020160010154610e1042610ef49190612067565b610efe91906120dd565b10610f6057600c8181548110610f1657610f166120f0565b90600052602060002090600502016004015482610f3391906121c7565b91506000600c8281548110610f4a57610f4a6120f0565b9060005260206000209060050201600401819055505b80610f6a81612211565b915050610eb4565b5060008111610fd15760405162461bcd60e51b815260206004820152602560248201527f4c494e474f3a205a65726f20746f6b656e7320617661696c61626c6520746f20604482015264636c61696d60d81b60648201526084016103f5565b6000610fee610fe86000546001600160a01b031690565b83611c2c565b90508061104e5760405162461bcd60e51b815260206004820152602860248201527f4c494e474f3a204661696c656420746f207472616e7366657220636c61696d656044820152676420746f6b656e7360c01b60648201526084016103f5565b6000546001600160a01b03166001600160a01b03167f9538d979992cc86b9ed8d06fb1974d5626861f234058e3b0ced24898d4a499dc8360405161109491815260200190565b60405180910390a25050610d1960018055565b6110af611cce565b600081116110cf5760405162461bcd60e51b81526004016103f590612179565b6110db610e1042612067565b600454111561112c5760405162461bcd60e51b815260206004820152601d60248201527f4c494e474f3a2043757272656e7420736c6f742069732061637469766500000060448201526064016103f5565b60007f00000000000000000000000000000000000000000000000000000000000000006001600160a01b031663dd62ed3e61116f6000546001600160a01b031690565b6040516001600160e01b031960e084901b1681526001600160a01b039091166004820152306024820152604401602060405180830381865afa1580156111b9573d6000803e3d6000fd5b505050506040513d601f19601f820116820180604052508101906111dd919061222a565b90508181101561122f5760405162461bcd60e51b815260206004820152601d60248201527f4c494e474f3a20496e73756666696369656e7420616c6c6f77616e636500000060448201526064016103f5565b6040805160a0810182526003805482526004805460208401908152938301868152600580546060860190815260808601898152600c80546001810182556000919091529651969092027fdf6966c971051c3d54ec59162606531493a51404a002842f56009d7e5cf4a8c781019690965595517fdf6966c971051c3d54ec59162606531493a51404a002842f56009d7e5cf4a8c886015590517fdf6966c971051c3d54ec59162606531493a51404a002842f56009d7e5cf4a8c985015593517fdf6966c971051c3d54ec59162606531493a51404a002842f56009d7e5cf4a8ca84015592517fdf6966c971051c3d54ec59162606531493a51404a002842f56009d7e5cf4a8cb9092019190915590549081905560025461134d916121c7565b600481905560035461135e916120dd565b60065461136b91906121b0565b6005556040518281527f4def474aca53bf221d07d9ab0f675b3f6d8d2494b8427271bcf43c018ef1eead9060200160405180910390a160007f00000000000000000000000000000000000000000000000000000000000000006001600160a01b03166323b872dd6113e46000546001600160a01b031690565b6040516001600160e01b031960e084901b1681526001600160a01b039091166004820152306024820152604481018690526064016020604051808303816000875af1158015611437573d6000803e3d6000fd5b505050506040513d601f19601f8201168201806040525081019061145b9190612243565b90508061147a5760405162461bcd60e51b81526004016103f5906121da565b505050565b6060600b8054806020026020016040519081016040528092919081815260200182805480156114d757602002820191906000526020600020905b81546001600160a01b031681526001909101906020018083116114b9575b5050505050905090565b6114e9611cce565b6101f48111156115535760405162461bcd60e51b815260206004820152602f60248201527f4c494e474f3a205769746864726177616c204665652073686f756c642062652060448201526e6265747765656e203025202d20352560881b60648201526084016103f5565b60088190556040518181527fe94edcc114da5287ecb30ee8aacf12e6c16b11b8583d7f9e477ab1616e33d53d90602001610d54565b600454611597610e1042612067565b111580156115b257506003546115af610e1042612067565b10155b6115ce5760405162461bcd60e51b81526004016103f590612089565b336000908152600960209081526040918290208251608081018452815481526001820154928101929092526002810154928201929092526003909101546060820152600c54156116cc57600c80546000919061162c906001906120dd565b8154811061163c5761163c6120f0565b90600052602060002090600502016040518060a00160405290816000820154815260200160018201548152602001600282015481526020016003820154815260200160048201548152505090508160200151600014801561169c57508151155b806116ae575080602001518260600151115b6116ca5760405162461bcd60e51b81526004016103f590612106565b505b6116d4611bd3565b60006116de611d78565b9050806117005760006116f084611ea5565b90506116fc81856120dd565b9350505b600083116117205760405162461bcd60e51b81526004016103f590612179565b600033604051636eb1769f60e11b81526001600160a01b0380831660048301523060248301529192506000917f0000000000000000000000000000000000000000000000000000000000000000169063dd62ed3e90604401602060405180830381865afa158015611795573d6000803e3d6000fd5b505050506040513d601f19601f820116820180604052508101906117b9919061222a565b90508481101561180b5760405162461bcd60e51b815260206004820152601d60248201527f4c494e474f3a20496e73756666696369656e7420616c6c6f77616e636500000060448201526064016103f5565b6001600160a01b0382166000908152600960205260409020600181015415801561183457508054155b156118d1576001600160a01b0383166000908152600a602052604090205460ff166118bf576001600160a01b0383166000818152600a60205260408120805460ff19166001908117909155600b805491820181559091527f0175b7a638427703f0dbe7bb9bbf987a2551717b34e79f33b5b1008d1fa01db90180546001600160a01b03191690911790555b6118cb610e1042612067565b60038201555b6000600554116118e25760006118e8565b80600101545b600560008282546118f991906120dd565b9091555050600181015461190e576000611933565b61191a610e1042612067565b60045461192791906120dd565b815461193391906121b0565b81600101600082825461194691906120dd565b909155505080548690829060009061195f9084906121c7565b909155506119719050610e1042612067565b60045461197e91906120dd565b815461198a91906121b0565b81600101600082825461199d91906121c7565b909155506119af9050610e1042612067565b60028201556001810154600580546000906119cb9084906121c7565b9250508190555085600660008282546119e491906121c7565b90915550506040516323b872dd60e01b81526001600160a01b038481166004830152306024830152604482018890526000917f0000000000000000000000000000000000000000000000000000000000000000909116906323b872dd906064016020604051808303816000875af1158015611a63573d6000803e3d6000fd5b505050506040513d601f19601f82011682018060405250810190611a879190612243565b905080611aa65760405162461bcd60e51b81526004016103f5906121da565b836001600160a01b03167fe1fffcc4923d04b559f4d29a8bfc6cda04eb5b0d3c460751c2402c5c5cc9109c886040516107b991815260200190565b611b0c6040518060800160405280600081526020016000815260200160008152602001600081525090565b506001600160a01b0316600090815260096020908152604091829020825160808101845281548152600182015492810192909252600281015492820192909252600390910154606082015290565b611b62611cce565b6001600160a01b038116611bc75760405162461bcd60e51b815260206004820152602660248201527f4f776e61626c653a206e6577206f776e657220697320746865207a65726f206160448201526564647265737360d01b60648201526084016103f5565b611bd081611d28565b50565b600260015403611c255760405162461bcd60e51b815260206004820152601f60248201527f5265656e7472616e637947756172643a207265656e7472616e742063616c6c0060448201526064016103f5565b6002600155565b60405163a9059cbb60e01b81526001600160a01b0383811660048301526024820183905260009182917f0000000000000000000000000000000000000000000000000000000000000000169063a9059cbb906044016020604051808303816000875af1158015611ca0573d6000803e3d6000fd5b505050506040513d601f19601f82011682018060405250810190611cc49190612243565b9150505b92915050565b6000546001600160a01b03163314610d195760405162461bcd60e51b815260206004820181905260248201527f4f776e61626c653a2063616c6c6572206973206e6f7420746865206f776e657260448201526064016103f5565b600080546001600160a01b038381166001600160a01b0319831681178455604051919092169283917f8be0079c531659141344cd1fd0a4f28419497f9722a3daafe3b4186f6b6457e09190a35050565b6040516328a6868d60e01b815230600482015260009081906001600160a01b037f000000000000000000000000000000000000000000000000000000000000000016906328a6868d90602401602060405180830381865afa158015611de1573d6000803e3d6000fd5b505050506040513d601f19601f82011682018060405250810190611e059190612243565b60405163a25d11c360e01b81523060048201529091506000906001600160a01b037f0000000000000000000000000000000000000000000000000000000000000000169063a25d11c390602401602060405180830381865afa158015611e6f573d6000803e3d6000fd5b505050506040513d601f19601f82011682018060405250810190611e939190612243565b90508180611e9e5750805b9250505090565b6000807f00000000000000000000000000000000000000000000000000000000000000006001600160a01b0316639a17d8c16040518163ffffffff1660e01b8152600401602060405180830381865afa158015611f06573d6000803e3d6000fd5b505050506040513d601f19601f82011682018060405250810190611f2a919061222a565b90506000612710611f3b83866121b0565b611f459190612067565b949350505050565b602080825282518282018190526000919060409081850190868401855b82811015611fae5781518051855286810151878601528581015186860152606080820151908601526080908101519085015260a09093019290850190600101611f6a565b5091979650505050505050565b600060208284031215611fcd57600080fd5b5035919050565b600060208284031215611fe657600080fd5b81356001600160a01b0381168114611ffd57600080fd5b9392505050565b6020808252825182820181905260009190848201906040850190845b818110156120455783516001600160a01b031683529284019291840191600101612020565b50909695505050505050565b634e487b7160e01b600052601160045260246000fd5b60008261208457634e487b7160e01b600052601260045260246000fd5b500490565b60208082526034908201527f4c494e474f3a20446973747269627574696f6e206973206f6e20686f6c642e20604082015273283632b0b9b29031b7b73a30b1ba1030b236b4b760611b606082015260800190565b81810381811115611cc857611cc8612051565b634e487b7160e01b600052603260045260246000fd5b6020808252604d908201527f4c494e474f3a2055736572206861766520756e636c61696d656420746f6b656e60408201527f732e20506c6561736520636c61696d206974206265666f7265206465706f736960608201526c74206f7220776974686472617760981b608082015260a00190565b6020808252601c908201527f4c494e474f3a20416d6f756e742063616e6e6f74206265207a65726f00000000604082015260600190565b8082028115828204841417611cc857611cc8612051565b80820180821115611cc857611cc8612051565b6020808252601c908201527f4c494e474f3a20546f6b656e207472616e73666572206661696c656400000000604082015260600190565b60006001820161222357612223612051565b5060010190565b60006020828403121561223c57600080fd5b5051919050565b60006020828403121561225557600080fd5b81518015158114611ffd57600080fdfea26469706673582212202299d14ad4ebd31121c7ba918f3e7c21820100eee9e770bf382eaaa51bce5e4e64736f6c63430008120033",
  "linkReferences": {},
  "deployedLinkReferences": {}
}